:020000020000FC
:1000620069D10AE009B901E010E0002309F441C0B6
:1000720044245524662477243ED046E55EE069ECAC
:1000820070E42CD180F7A3D140E050E060EF71E43E
:10009200D7D040E050E060E272E49BD0802F912FF5
:1000A200A22FB32F88249924082D192D292D290D2B
:1000B200220B322F72D0482F592F6A2F7B2F0ED14D
:1000C20038F400E210E01CD00FEF801A900AECCF57
:1000D2000AE210E015D00AE010E012D00CD04DEC8C
:1000E2005CEC6CEC7DE375D0402E512E622E732EAB
:1000F200C3CFEAE030C1042D152D262D372D0895EA
:0C01020028E02AB95D9BFECF0CB90895DF
:020000000FC02F
:10001C0000EC05BFC0E800E903500DBF73D000230E
:10002C0009F417D0E0E6F0E000E072D1E2E6F0E08F
:10003C0000E640E061D1E0E6F0E000E069D1E2E604
:10004C00F0E000E640E058D1E2E6F0E000E640E007
:06005C0053D101D056C093
:02010E00FFCF21
:0401100001E008956D
:1001140030952095109501951F4F2F4F3F4F08950F
:100124004A952AF03695279517950795F9CF08959E
:100134001124770F179467FD73956068FF270024D7
:0E014400330F079427FD33952068EE270895AA
:100152003323D1F0222332F0EE0F001F111F221F92
:100162003A95F7CFE03838F011F401FF04C00F5F81
:100172001F4F2F4F3F4F3F3F61F0332329F030FB9A
:0801820027F936953029089594
:10018A00332722271127002708953FE7302920E83F
:02019A00F9CF9B
:10019C0070E8072E03220AF4B7DFE02F012F122F8D
:0601AC00232F3EE9D0CF35
:1001B200C7DF432F4F5710F0403208F0E5CF322F00
:1001C200212F102F0E2F4F514195ABDF07FE0895BF
:0201D200A0CFBC
:1001D400AFDF401751076207730778F0332E372FCC
:1001E400732D322E262F632D312E152F532D302EA5
:1001F400042F432D302C012C132C3F3F09F4C8CF7E
:100204007723C9F0371731F0669557954795F795D9
:100214007395F8CF10245AF0EF0F041F151F261FF3
:1002240050F4279517950795E795339590CFEF1BD5
:08023400040B150B260B8BCF08
:06023C00E0E87E27C9CFB7
:1002420078DF012407FA3F3F11F07F3F09F4A1CF85
:10025200332311F0772309F497CF3F577F57370F96
:1002620013F4AAF3F9CF31583F3FB1F34A923A93CC
:1002720033242224112400243327442477272030D6
:100282001207010789F026951795079530F4040E99
:10029200451E361F171E2E1E3F1E440F551F661F7A
:1002A200771FEE1FFF1FEBCF732F399133203AF0E8
:1002B200000C441C771F111C221C331C02C03395F6
:1002C20031F2703819F4402809F073954990232DC2
:0C02D200122D012DE72F002407F83ACF71
:1002DE008894E32FE7272AF4772312F09894089452
:1002EE0008950417150726073707D1F33323C2F7EE
:0602FE00B0F7889408959A
:10030400BF93AF93A02F03C0C89531960D9241506F
:08031400D8F7AF91BF910895E5
:0C031C00002401C001920150E8F7089590
:020328000000D3
:10032A00FA92EA92DA92CA92BA92AA929A928A9223
:10033A007A926A925A924A92BA93AA939A938A930F
:02034A00089514
:10034C00FF84EE84DD84CC84BB84AA849984888465
:10035C007F806E805D804C80BB81AA819981888171
:0E036C00F0E00FB6F894CE0FDF1F0FBE08951D
:10037A00E2DF802F912FA22FB32F442E3F7740E840
:10038A0056E968E17BE4A6DF38F013D0B38300278F
:10039A001127222733270BC011D006DFFADE402FA0
:1003AA00512F622F732F05D0338308D042DFE5E047
:1003BA00D3CFE42D0083118322830895082F192FA8
:0603CA002A2F3B2F0895CD
:0403D000442700C0FE
:1003D400AEDFC85081D0642E44275527662777277F
:1003E4007CDF10F402E001C00027600EBF777DD0EF
:1003F40043E859EF62E27FE322DF6ED081D000E070
:100404001CEF2FE737E469DF30F54C2F6ED0B3DFF4
:1004140079D05ED0062D112764D0DADE08831983E3
:100424002A833B834C2F4C5F842F40E050E060E8EC
:100434007EE305DF482F9FDF4BD00C811D812E8189
:100444003F8140E050E060E870E4F9DE4DD0F4DE36
:10045400AEDE602E09C049D0AADE402E42D051D073
:10046400460C642C03E0602260FE06C000E010E04D
:1004740020E83FE34CD045D002E0601630F000277E
:10048400A016B00611F000E8B02646D040D0D7DE62
:1004940023D04BEF57ED6EE179E3D1DE45E656E22A
:1004A40069E97BEB27D048E554E363EA7DE322D096
:1004B40041EE5DE565E27FEB1DD04BED5FE069EC5D
:1004C4007FE386DE1DD028D0BADEC85FECE040CFE3
:1004D400088119812A813B81802F912FA22FB32F6C
:1004E40008952227332758DE1CD0082F192F2A2FCE
:1004F4003B2F08956DDE482F592F6A2F7B2F9FCEF7
:1005040010C09ADE802E912EA22EB32E0895482D6F
:10051400592D6A2D7B2D0895082D192D2A2D3B2D3B
:0C0524000895402F512F622F732F08956F
:00000001FF
