:02000000000AF4
:02000100100BE2
:02000200207B61
:02000300A18BCF
:020004002FEBE0
:02000500A18BCD
:0200060029CB04
:02000700000CEB
:02000800F7AC53
:02000900A81A33
:02000A00B0BA8A
:02000B008FFD67
:02000C00100AD8
:02000D00207A57
:02000E00A18AC5
:02000F002FCAF6
:02001000A18AC3
:02001100200AC3
:02001200080CD8
:02001300F7AC48
:02001400A81A28
:020015000FFCDE
:02001600F7AC45
:02001700A81A25
:02001800F7AC43
:02001900A81A23
:02001A00F7AC41
:02001B00A81A21
:02001C00060CD0
:02001D00F7AC3E
:02001E00A81A1E
:02001F000FFCD4
:02002000F7AC3B
:02002100A81A1B
:02002200F7AC39
:02002300A81A19
:02002400F7AC37
:02002500A81A17
:02002600040CC8
:02002700F7AC34
:02002800A81A14
:020029000FFCCA
:02002A00F7AC31
:02002B00A81A11
:02002C00F7AC2F
:02002D00A81A0F
:02002E00F7AC2D
:02002F00A81A0D
:020030000C0CB6
:02003100F7AC2A
:02003200A81A0A
:020033000FFCC0
:02003400F7AC27
:02003500A81A07
:02003600007C4C
:02003700F7AC24
:02003800100AAC
:02003900207A2B
:02003A00A18A99
:02003B002FCACA
:02003C00A18A97
:02003D00210A96
:02003E00030CB1
:02003F00F7AC1C
:02004000A81AFC
:02004100031C9E
:02004200F7AC19
:02004300A81AF9
:02004400032C8B
:02004500F7AC16
:02004600A81AF6
:02004700033C78
:02004800F7AC13
:02004900A81AF3
:02004A00034C65
:02004B00F7AC10
:02004C00A81AF0
:02004D00035C52
:02004E00F7AC0D
:02004F00A81AED
:02005000036C3F
:02005100F7AC0A
:02005200A81AEA
:02005300037C2C
:02005400F7AC07
:02005500A81AE7
:02005600038C19
:02005700F7AC04
:02005800A81AE4
:02005900039C06
:02005A00F7AC01
:02005B00A81AE1
:02005C00061C80
:02005D00F7ACFE
:02005E00A81ADE
:02005F00062C6D
:02006000F7ACFB
:02006100A81ADB
:02006200063C5A
:02006300F7ACF8
:02006400A81AD8
:02006500064C47
:02006600F7ACF5
:02006700A81AD5
:02006800065C34
:02006900F7ACF2
:02006A00A81AD2
:02006B00066C21
:02006C00F7ACEF
:02006D00100D74
:02006E00200D63
:02006F00A18D61
:02007000280D59
:02007100A18D5F
:02007200200D5F
:020073000F4735
:02007400F57D18
:020075000F0773
:02007600F57D16
:02007700100077
:02007800202046
:02007900A18064
:02007A0021C0A3
:02007B00A18062
:02007C002AA0B8
:02007D00EE0093
:02007E0010016F
:02007F002071EE
:02008000A1815C
:020081002FE16D
:02008200A1815A
:020083002581D5
:0200840000007A
:02008500E01287
:02008600F52063
:02008700100166
:020088002071E5
:02008900A18153
:02008A002FC184
:02008B00A18151
:02008C0023C18E
:02008D00001061
:02008E00E0127E
:02008F00F5205A
:020090000F015E
:0200910000006D
:02009200E0127A
:02009300F52056
:020094000F411A
:02009500000069
:02009600E01276
:02009700F52052
:02009800AC00BA
:02009900000065
:02009A00E00183
:02009B00100D46
:02009C00202D15
:02009D00A18D33
:02009E0021DD62
:02009F00A18D31
:0200A00023BD7E
:0200A100EE0D62
:0200A2000F0746
:0200A300F07DEE
:0200A4005FFDFE
:0200A5000F4703
:0200A600F07DEB
:0200A7000F0741
:0200A800F57DE4
:0200A900100045
:0200AA002070C4
:0200AB00A18032
:0200AC002FC063
:0200AD00A18030
:0200AE0023C06D
:0200AF00E0016E
:0200B000F0104E
:0200B100B80095
:0200B2008C15AB
:0200B30010003B
:0200B4002070BA
:0200B500A18028
:0200B6002FC059
:0200B700A18026
:0200B80020C066
:0200B900E00263
:0200BA00F02034
:0200BB0003C17F
:0200BC00E11051
:0200BD00E0025F
:0200BE00F0212F
:0200BF0010002F
:0200C0002070AE
:0200C100A1801C
:0200C2002FE02D
:0200C300A1801A
:0200C400258095
:0200C500E00257
:0200C600F52122
:0200C700100126
:0200C8002071A5
:0200C900A18113
:0200CA002FC144
:0200CB00A18111
:0200CC0023C14E
:0200CD00001021
:0200CE00E0123E
:0200CF00F5201A
:0200D0000F40DF
:0200D1004401E8
:0200D200F50136
:0200D3000F001C
:0200D4004401E5
:0200D500F50133
:0200D6004400E4
:0200D7004401E2
:0200D8004402E0
:0200D9004403DE
:0200DA004404DC
:0200DB004405DA
:0200DC004406D8
:0200DD004407D6
:0200DE004408D4
:0200DF004409D2
:0200E000440AD0
:0200E100440BCE
:0200E200440CCC
:0200E300440DCA
:0200E400440EC8
:0200E500440FC6
:0200E600100FF9
:0200E700202FC8
:0200E800A18FE6
:0200E900200FE6
:0200EA00A18FE4
:0200EB002EDF06
:0200EC00F90F0A
:0200ED00AC0065
:0200EE000F07FA
:0200EF004C0DB6
:0200F000F57D9C
:0200F100F80E07
:0200F2000F07F6
:0200F300F07D9E
:0200F4005FFDAE
:0200F5000F47B3
:0200F600F07D9B
:0200F7000F07F1
:0200F800F57D94
:0200F9000F47AF
:0200FA00F07D97
:0200FB00AB8DCB
:0200FC00F57D90
:0200FD000F0DE5
:0200FE00F0D040
:0200FF00ABF064
:02010000E0021B
:02010100F721E4
:020102000F0DDF
:02010300F0D03A
:02010400ABF05E
:02010500E00117
:02010600F410F3
:02010700018273
:02010800A02035
:02010900018172
:02010A00A21041
:02010B000602EA
:02010C00B4201D
:02010D008C1A4A
:02010E000F0DD3
:02010F00F0D02E
:02011000ABF052
:02011100E0010B
:02011200F410E7
:02011300018267
:02011400A02029
:02011500018166
:02011600A21035
:0201170006627E
:02011800B42011
:020119009C0E3A
:02011A000F0DC7
:02011B00F0D022
:02011C00ABF046
:02011D00E001FF
:02011E00F410DB
:02011F0001825B
:02012000A0201D
:0201210001815A
:02012200A21029
:020123000A923E
:02012400E102F6
:020125007BE27B
:02012600AC4DDE
:020127000F0DBA
:02012800F0D015
:02012900ABF039
:02012A00E001F2
:02012B00F410CE
:02012C0001824E
:02012D00A02010
:02012E0001814D
:02012F00A2101C
:0201300002FDCE
:02013100B4D048
:020132008C1A25
:020133000F0DAE
:02013400F0D009
:02013500ABF02D
:02013600E002E5
:02013700F420B2
:02013800018143
:02013900A01014
:02013A00018240
:02013B00A22000
:02013C00039D21
:02013D00B4D03C
:02013E009C0E15
:02013F000F0DA2
:02014000F0D0FD
:02014100ABF021
:02014200E001DA
:02014300F410B6
:02014400018236
:02014500A020F8
:02014600018135
:02014700A21004
:020148000D02A6
:02014900E102D1
:02014A007BE256
:02014B00AC28DE
:02014C000F0D95
:02014D00F0D0F0
:02014E00ABF014
:02014F00E001CD
:02015000F410A9
:02015100018229
:02015200A020EB
:02015300018128
:02015400A210F7
:020155000402A2
:02015600B420D3
:020157008C1A00
:020158000F0D89
:02015900F0D0E4
:02015A00ABF008
:02015B00E001C1
:02015C00F4109D
:02015D0001821D
:02015E00A020DF
:02015F0001811C
:02016000A210EB
:02016100046236
:02016200B420C7
:020163009C0EF0
:020164000F0D7D
:02016500F0D0D8
:02016600ABF0FC
:02016700E001B5
:02016800F41091
:02016900018211
:02016A00A020D3
:02016B00018110
:02016C00A210DF
:02016D000C92F2
:02016E00E102AC
:02016F007BE231
:02017000AC03DE
:020171000FF08D
:020172007BE030
:020173006BE03F
:020174000F4733
:02017500F07D1B
:02017600A88D52
:02017700F57D14
:020178000F076F
:020179004C0D2B
:02017A00F57D11
:02017B00F80E7C
:02017C000F076B
:02017D00F07D13
:02017E005FFD23
:02017F000F4728
:02018000F07D10
:020181000F0766
:02018200F57D09
:020183000F4724
:02018400F07D0C
:02018500ABCD00
:02018600F57D05
:020187000F0D5A
:02018800F0D0B5
:02018900ABF0D9
:02018A00E00291
:02018B00F7215A
:02018C00100061
:02018D002070E0
:02018E00A1804E
:02018F002FC07F
:02019000A1804C
:0201910020004C
:02019200E0018A
:02019300F0106A
:02019400E00188
:02019500A8813F
:02019600000067
:02019700E01274
:02019800F7204E
:02019900100054
:02019A002070D3
:02019B00A18041
:02019C002FC072
:02019D00A1803F
:02019E0020003F
:02019F00E0017D
:0201A000F0105D
:0201A100E0017B
:0201A200A86152
:0201A3000F0D3E
:0201A400F0D099
:0201A500ABF0BD
:0201A600E00275
:0201A700F42042
:0201A800E01263
:0201A900F7203D
:0201AA00100043
:0201AB002070C2
:0201AC00A18030
:0201AD002FC061
:0201AE00A1802E
:0201AF0020002E
:0201B000E0016C
:0201B100F0104C
:0201B200E0016A
:0201B300A88121
:0201B4000580C4
:0201B500E01256
:0201B600F72030
:0201B700100036
:0201B8002070B5
:0201B900A18023
:0201BA002FC054
:0201BB00A18021
:0201BC00200021
:0201BD00E0015F
:0201BE00F0103F
:0201BF00E0015D
:0201C000A88114
:0201C10005E057
:0201C200E01249
:0201C300F72023
:0201C4000F47E3
:0201C500F07DCB
:0201C600A84D42
:0201C700F57DC4
:0201C8000F071F
:0201C9004C0DDB
:0201CA00F57DC1
:0201CB00F80E2C
:0201CC000F071B
:0201CD00F07DC3
:0201CE005FFDD3
:0201CF000F47D8
:0201D000F07DC0
:0201D1000F0716
:0201D200F57DB9
:0201D3000F47D4
:0201D400F07DBC
:0201D5000E0614
:0201D600E16DD9
:0201D700F57DB4
:0201D8000F0D09
:0201D900F0D064
:0201DA00AB80F8
:0201DB00E0043E
:0201DC00F541EB
:0201DD000F0D04
:0201DE00F0D05F
:0201DF00AB4033
:0201E000E0013C
:0201E100F51215
:0201E2000F0DFF
:0201E300F0D05A
:0201E400AB006E
:0201E500E00236
:0201E600F523FF
:0201E700AC6703
:0201E8000F0DF9
:0201E900F0D153
:0201EA00ABF177
:0201EB000F0DF6
:0201EC00F0D051
:0201ED00AB80E5
:0201EE00E0042B
:0201EF00F040DE
:0201F000E0022B
:0201F100F420F8
:0201F200E01417
:0201F300F740D3
:0201F4000F0DED
:0201F500F0D048
:0201F600ABF06C
:0201F700E00125
:0201F800F41001
:0201F900018281
:0201FA00A02043
:0201FB0001847D
:0201FC00A2401F
:0201FD00A3401D
:0201FE0001817D
:0201FF00A0104E
:02020000018279
:02020100A22039
:020202001001E9
:02020300207168
:02020400A181D6
:020205002FC107
:02020600A181D4
:020207002101D3
:02020800E11003
:02020900E0040F
:02020A00F441BD
:02020B000F0DD5
:02020C00F0D030
:02020D00AB4004
:02020E00E0020C
:02020F00F020DD
:02021000E00408
:02021100F741B3
:020212000F0DCE
:02021300F0D128
:02021400AB41FC
:020215000F0DCB
:02021600F0D026
:02021700AB40FA
:02021800E00202
:02021900F020D3
:02021A00A8102A
:02021B00E014ED
:02021C00F540AB
:02021D000F0DC3
:02021E00F0D01E
:02021F00ABF042
:02022000E001FB
:02022100F410D7
:02022200018257
:02022300A02019
:02022400018453
:02022500A240F5
:0202260000F1E5
:02022700E501EF
:020228001000C4
:02022900207043
:02022A00A180B1
:02022B002FC0E2
:02022C00A180AF
:02022D002100AE
:02022E00E110DD
:02022F00E002EB
:02023000F421B7
:020231000F0DAF
:02023200F0D00A
:02023300AB40DE
:02023400E004E4
:02023500F04097
:02023600E002E4
:02023700F721AD
:020238000F0DA8
:02023900F0D102
:02023A00AB41D6
:02023B000F0DA5
:02023C00F0D000
:02023D00AB40D4
:02023E00E004DA
:02023F00F0408D
:02024000A81004
:02024100E012C9
:02024200F520A5
:020243000F0D9D
:02024400F0D1F7
:02024500AB818B
:020246000F0D9A
:02024700F0D0F5
:02024800AB8089
:02024900E004CF
:02024A00F04082
:02024B00A810F9
:02024C00E012BE
:02024D00F5209A
:02024E000000AE
:02024F000E049B
:020250000F0D90
:02025100F0DDDE
:02025200E1D4F5
:02025300F74072
:020254000F0D8C
:02025500F0D0E7
:02025600AB00FB
:02025700E001C4
:02025800F010A4
:0202590038006B
:02025A008C070F
:02025B0000148D
:02025C000E0290
:02025D000F0D83
:02025E00F0DDD1
:02025F00E1D2EA
:02026000F72481
:020261000F0D7F
:02026200F0D1D9
:02026300AB01ED
:020264000F0D7C
:02026500F0D0D7
:02026600AB00EB
:02026700E002B3
:02026800F02084
:02026900ABF0F8
:02026A00E0149E
:02026B00F5405C
:02026C006B80A5
:02026D0001810D
:02026E00A010DE
:02026F0001820A
:02027000A220CA
:02027100B800D3
:020272008F7685
:020273000F0D6D
:02027400F0D0C8
:02027500AB409C
:02027600E004A2
:02027700F04055
:020278000F472E
:02027900F07D16
:02027A0002067A
:02027B00E16D33
:02027C00F57D0E
:02027D000F0769
:02027E004C0D25
:02027F00F57D0B
:02028000F80E76
:0202810057FF25
:0202820057FE25
:0202830057FD25
:0202840057FC25
:0202850057FB25
:0202860057FA25
:0202870057F925
:0202880057F825
:0202890057F725
:02028A0057F625
:02028B0057F525
:02028C0057F425
:02028D0057F325
:02028E0057F225
:02028F0057F125
:0202900057F025
:020291000F015B
:02029200F0106A
:0202930057F022
:020294000F4118
:02029500F01067
:0202960057F01F
:020297000EC394
:02029800F03242
:020299000F4113
:02029A00F5125B
:02029B000F0151
:02029C00F51259
:02029D0010004F
:02029E0020201E
:02029F00A1803C
:0202A00020201C
:0202A100A1803A
:0202A2002BB07F
:0202A300EE006B
:0202A4000F4009
:0202A500440112
:0202A600F50160
:0202A7000F0046
:0202A80044010F
:0202A900F5015D
:0202AA0044000E
:0202AB0044010C
:0202AC0044020A
:0202AD00440308
:0202AE00440406
:0202AF00440504
:0202B000440602
:0202B100440700
:0202B2004408FE
:0202B3004409FC
:0202B400440AFA
:0202B500440BF8
:0202B600440CF6
:0202B700440DF4
:0202B800440EF2
:0202B900440FF0
:0202BA00F90F3A
:0202BB005FFEE4
:0202BC000F072A
:0202BD00F07DD2
:0202BE005FFDE2
:0202BF000F47E7
:0202C000F07DCF
:0202C1000F0725
:0202C200F57DC8
:0202C300100029
:0202C4002070A8
:0202C500A18016
:0202C6002FC047
:0202C700A18014
:0202C8002040D4
:0202C900E00152
:0202CA00F01032
:0202CB00E0024F
:0202CC00F4201C
:0202CD000183AB
:0202CE00A0305E
:0202CF000181AB
:0202D000A2107A
:0202D100001219
:0202D200E52025
:0202D3000183A5
:0202D400A03058
:0202D5000181A5
:0202D600A21074
:0202D700B8006D
:0202D8009C5137
:0202D900100013
:0202DA00207092
:0202DB00A18000
:0202DC002FC031
:0202DD00A180FE
:0202DE002040BE
:0202DF00E0033A
:0202E000F032FA
:0202E10010000B
:0202E20020708A
:0202E300A180F8
:0202E4002FC029
:0202E500A180F6
:0202E6002040B6
:0202E700E00134
:0202E800F01014
:0202E900A8204B
:0202EA00E0032F
:0202EB00F430ED
:0202EC00A4006C
:0202ED00E0012E
:0202EE00E0200E
:0202EF00A82045
:0202F000E0022A
:0202F100F721F3
:0202F2000E41BB
:0202F300000009
:0202F400108078
:0202F500E01314
:0202F600F630E0
:0202F7001001F4
:0202F800207173
:0202F900A181E1
:0202FA002FC112
:0202FB00A181DF
:0202FC002301DC
:0202FD000000FF
:0202FE00E0120C
:0202FF00F520E8
:020300001000EB
:0203010020706A
:02030200A180D8
:020303002FC009
:02030400A180D6
:02030500204096
:02030600E00312
:02030700F032D2
:020308001000E3
:02030900207062
:02030A00A180D0
:02030B002FC001
:02030C00A180CE
:02030D0020408E
:02030E00E0010C
:02030F00F010EC
:02031000A83013
:02031100E00307
:02031200F430C5
:020313000801DF
:02031400E610F1
:02031500E00105
:02031600E020E5
:02031700A8300C
:02031800E00201
:02031900F721CA
:02031A001000D1
:02031B002020A0
:02031C00A180BE
:02031D0020704E
:02031E00A180BC
:02031F0028F0C4
:02032000EE00ED
:020321001000CA
:02032200202099
:02032300A180B7
:020324002000B7
:02032500A180B5
:020326002A208B
:02032700EE00E6
:02032800ACD255
:020329001000C2
:02032A00207041
:02032B00A180AF
:02032C002FC0E0
:02032D00A180AD
:02032E002000AD
:02032F00E003E9
:02033000F030AB
:02033100E001E9
:02033200F410C5
:02033300018245
:02033400A02007
:02033500018342
:02033600A230F3
:020337000011B3
:02033800E510CE
:0203390001823F
:02033A00A02001
:02033B0001833C
:02033C00A230ED
:02033D00B80006
:02033E009CBC65
:02033F001000AC
:0203400020702B
:02034100A18099
:020342002FC0CA
:02034300A18097
:02034400200097
:02034500E001D5
:02034600F010B5
:02034700E002D2
:02034800F4209F
:0203490001832E
:02034A00A030E1
:02034B0001812E
:02034C00A210FD
:02034D0010019D
:02034E0020711C
:02034F00A1818A
:020350002FC1BB
:02035100A18188
:02035200248104
:02035300E012B6
:02035400F52092
:02035500100096
:02035600207015
:02035700A18083
:020358002FC0B4
:02035900A18081
:02035A00200081
:02035B00E003BD
:02035C00F0327D
:02035D0010008E
:02035E0020700D
:02035F00A1807B
:020360002FC0AC
:02036100A18079
:02036200200079
:02036300E001B7
:02036400F01097
:02036500A820CE
:02036600E003B2
:02036700F43070
:02036800A400EF
:02036900E001B1
:02036A00E02091
:02036B00A820C8
:02036C00E002AD
:02036D00F72176
:02036E000E413E
:02036F0000008C
:020370001080FB
:02037100E01397
:02037200F63063
:02037300100078
:020374002070F7
:02037500A18065
:020376002FC096
:02037700A18063
:020378002380E0
:02037900E001A1
:02037A00F01081
:02037B00B85078
:02037C009C02E1
:02037D00AC4F83
:02037E0010006D
:02037F002070EC
:02038000A1805A
:020381002FE06B
:02038200A18058
:02038300250053
:02038400E00295
:02038500F02165
:02038600100065
:020387002070E4
:02038800A18052
:020389002FE063
:02038A00A18050
:02038B0025400B
:02038C00E0038C
:02038D00F0304E
:02038E00B301B9
:02038F009C20B0
:0203900010015A
:020391002071D9
:02039200A18147
:020393002FE158
:02039400A18145
:02039500254100
:02039600100055
:020397002070D4
:02039800A18042
:020399002FC073
:02039A00A18040
:02039B0024C07C
:02039C00E0126D
:02039D00F52049
:02039E0010014C
:02039F002071CB
:0203A000A18139
:0203A1002FC16A
:0203A200A18137
:0203A3002381B4
:0203A400000057
:0203A500E01363
:0203A600F53030
:0203A700100044
:0203A800202013
:0203A900A18031
:0203AA00203001
:0203AB00A1802F
:0203AC002FF030
:0203AD00EE0060
:0203AE00AC3170
:0203AF0010003C
:0203B0002070BB
:0203B100A18029
:0203B2002FE03A
:0203B300A18027
:0203B400250022
:0203B500E00165
:0203B600F01045
:0203B700E00361
:0203B800F4321D
:0203B900E00161
:0203BA00A81188
:0203BB00100030
:0203BC002070AF
:0203BD00A1801D
:0203BE002FE02E
:0203BF00A1801B
:0203C000250016
:0203C100E00357
:0203C200F53113
:0203C300E02137
:0203C400100027
:0203C5002020F6
:0203C600A18014
:0203C700201004
:0203C800A18012
:0203C90027C04B
:0203CA00EE0043
:0203CB00AC1470
:0203CC0010001F
:0203CD0020709E
:0203CE00A1800C
:0203CF002FC03D
:0203D000A1800A
:0203D10020000A
:0203D200E00148
:0203D300F01028
:0203D400A8601F
:0203D500E00244
:0203D600F42011
:0203D700E00143
:0203D800100013
:0203D9002020E2
:0203DA00A18000
:0203DB002040C0
:0203DC00A180FE
:0203DD002D6091
:0203DE00EE002F
:0203DF0010000C
:0203E00020708B
:0203E100A180F9
:0203E2002FC02A
:0203E300A180F7
:0203E400238074
:0203E500E00333
:0203E600F030F5
:0203E700B8005C
:0203E8008C1275
:0203E900100002
:0203EA00207081
:0203EB00A180EF
:0203EC002FC020
:0203ED00A180ED
:0203EE002400E9
:0203EF00E0012B
:0203F000F0100B
:0203F100B80052
:0203F2009C0865
:0203F3001000F8
:0203F4002020C7
:0203F500A180E5
:0203F600207075
:0203F700A180E3
:0203F80028F0EB
:0203F900EE0014
:0203FA000F07EB
:0203FB004C0DA7
:0203FC00F57D8D
:0203FD004C0EA4
:0203FE00F80EF7
:0203FF000F07E6
:02040000F07D8D
:020401005FFD9D
:020402000F47A2
:02040300F07D8A
:020404000F07E0
:02040500F57D83
:020406001000E4
:02040700207063
:02040800A180D1
:020409002FC002
:02040A00A180CF
:02040B002000CF
:02040C00E0010D
:02040D00F010ED
:02040E00E0010B
:02040F00A881C2
:020410000600E4
:02041100E012F7
:02041200F720D1
:020413001000D7
:02041400207056
:02041500A180C4
:020416002FC0F5
:02041700A180C2
:020418002000C2
:02041900E00100
:02041A00F010E0
:02041B00E001FE
:02041C00A881B5
:02041D00064097
:02041E00E012EA
:02041F00F720C4
:020420000F07C4
:020421004C0D80
:02042200F57D66
:02042300F80ED1
:020424000F07C0
:02042500F07D68
:020426005FFD78
:020427000F477D
:02042800F07D65
:020429000F07BB
:02042A00F57D5E
:02042B000F4779
:02042C00F07D61
:02042D00AB8D95
:02042E00F57D5A
:02042F000F0DAF
:02043000F0D00A
:02043100AB809E
:02043200E002E6
:02043300F521B1
:020434000F0DAA
:02043500F0D104
:02043600ABF128
:020437000000C3
:02043800E013CF
:02043900F7309A
:02043A00AC1EF6
:02043B000F0DA3
:02043C00F0D0FE
:02043D00AB8092
:02043E00E001DB
:02043F00F010BB
:02044000E002D8
:02044100F421A4
:020442000F0D9C
:02044300F0D2F5
:02044400ABF219
:020445000F0D99
:02044600F0D0F4
:02044700ABF018
:02044800E003CF
:02044900F4308D
:02044A00E110BF
:02044B00E021AE
:02044C00F710A7
:02044D000F0D91
:02044E00F0D1EB
:02044F00AB817F
:020450000F0D8E
:02045100F0D0E9
:02045200AB807D
:02045300E002C5
:02045400F02096
:02045500A810ED
:02045600E013B1
:02045700F5307E
:02045800100092
:02045900207011
:02045A00A1807F
:02045B002FE090
:02045C00A1807D
:02045D00254038
:02045E00E002BA
:02045F00F0218A
:020460000F0D7E
:02046100F0D0D9
:02046200AB806D
:02046300E003B4
:02046400F03076
:02046500B310D2
:020466009FD520
:02046700100083
:02046800207002
:02046900A18070
:02046A002FE081
:02046B00A1806E
:02046C00254029
:02046D00E002AB
:02046E00F0217B
:02046F00023059
:02047000E01397
:02047100F73062
:02047200A811CF
:02047300100077
:020474002070F6
:02047500A18064
:020476002FE075
:02047700A18062
:0204780025401D
:02047900E0029F
:02047A00F5216A
:02047B0010006F
:02047C002070EE
:02047D00A1805C
:02047E002FE06D
:02047F00A1805A
:02048000254015
:02048100E00396
:02048200F03256
:020483000F0D5B
:02048400F0D0B6
:02048500ABF0DA
:02048600E00193
:02048700F4106F
:020488000183EE
:02048900A030A1
:02048A000181EE
:02048B00A210BD
:02048C00A3408B
:02048D000183E9
:02048E00A0309C
:02048F000181E9
:02049000A210B8
:02049100100158
:020492002071D7
:02049300A18145
:020494002FC176
:02049500A18143
:02049600210142
:02049700E11072
:02049800E0037F
:02049900F4303D
:02049A00E0215F
:02049B00F71058
:02049C00E0215D
:02049D00A811A4
:02049E0010004C
:02049F002070CB
:0204A000A18039
:0204A1002FE04A
:0204A200A18037
:0204A3002540F2
:0204A400E00274
:0204A500F5213F
:0204A600100044
:0204A7002070C3
:0204A800A18031
:0204A9002FE042
:0204AA00A1802F
:0204AB002540EA
:0204AC00E0036B
:0204AD00F0322B
:0204AE000F0D30
:0204AF00F0D08B
:0204B000ABF0AF
:0204B100E00168
:0204B200F41044
:0204B3000183C3
:0204B400A03076
:0204B5000181C3
:0204B600A21092
:0204B70000F152
:0204B800E5015C
:0204B900100031
:0204BA002070B0
:0204BB00A1801E
:0204BC002FC04F
:0204BD00A1801C
:0204BE0021001B
:0204BF00E1104A
:0204C000E00357
:0204C100F43015
:0204C200E02137
:0204C300F71030
:0204C400E02135
:0204C500A8117C
:0204C600100024
:0204C7002070A3
:0204C800A18011
:0204C9002FE022
:0204CA00A1800F
:0204CB002540CA
:0204CC00E0024C
:0204CD00F52117
:0204CE000F47D6
:0204CF00F07DBE
:0204D000A88DF5
:0204D100F57DB7
:0204D2000F0712
:0204D3004C0DCE
:0204D400F57DB4
:0204D500F80E1F
:0204D6005FFEC7
:0204D7000F070D
:0204D800F07DB5
:0204D9005FFDC5
:0204DA000F47CA
:0204DB00F07DB2
:0204DC000F0708
:0204DD00F57DAB
:0204DE000F47C6
:0204DF00F07DAE
:0204E000AB8DE2
:0204E100F57DA7
:0204E2000F0DFC
:0204E300F0D057
:0204E400ABF07B
:0204E500E00233
:0204E600F721FC
:0204E700100003
:0204E800207082
:0204E900A180F0
:0204EA002FC021
:0204EB00A180EE
:0204EC0023806B
:0204ED00E0032A
:0204EE00F030EC
:0204EF007BE0B0
:0204F0006BE0BF
:0204F100B81041
:0204F2009C6309
:0204F3006BE1BB
:0204F400001DE9
:0204F500B3D181
:0204F6009C0E5A
:0204F7006BE2B6
:0204F800B82228
:0204F9009D1252
:0204FA006BE3B2
:0204FB00B83314
:0204FC009D3031
:0204FD00100DE0
:0204FE00202DAF
:0204FF00A18DCD
:02050000206D6C
:02050100A18DCA
:020502002F4D7B
:02050300EF0DFA
:020504000F0DD9
:02050500F0D034
:02050600ABF058
:02050700E00111
:02050800F410ED
:0205090001826D
:02050A00A0202F
:02050B0001836A
:02050C00A2301B
:02050D00BA40F2
:02050E008C2837
:02050F001001D9
:02051000207158
:02051100A181C6
:020512002FE1D7
:02051300A181C4
:0205140025417F
:020515001000D4
:02051600207053
:02051700A180C1
:020518002FC0F2
:02051900A180BF
:02051A0024C0FB
:02051B00E012EC
:02051C00F520C8
:02051D001001CB
:02051E0020714A
:02051F00A181B8
:020520002FE1C9
:02052100A181B6
:0205220025C1F1
:020523000000D6
:02052400E013E2
:02052500F730AD
:020526001001C2
:02052700207141
:02052800A181AF
:020529002FC1E0
:02052A00A181AD
:02052B0023812A
:02052C000010BD
:02052D00E012DA
:02052E00F520B6
:02052F00100DAD
:02053000202D7C
:02053100A18D9A
:02053200206D3A
:02053300A18D98
:020534002F4D49
:02053500EF0DC8
:020536000F0DA7
:02053700F0D002
:02053800ABF026
:02053900E003DD
:02053A00F4309B
:02053B0001813C
:02053C00A0100D
:02053D00018239
:02053E00A220F9
:02053F00B830D2
:02054000100D9C
:02054100202D6B
:02054200A18D89
:02054300206D29
:02054400A18D87
:020545002F4D38
:02054600CF0DD7
:020547001000A2
:02054800202071
:02054900A1808F
:02054A0020800F
:02054B00A1808D
:02054C0024A0E9
:02054D00EE00BE
:02054E00100D8E
:02054F00202D5D
:02055000A18D7B
:02055100206D1B
:02055200A18D79
:020553002F4D2A
:02055400EF0DA9
:020555000F0D88
:02055600F0D0E3
:02055700ABF007
:02055800E003BE
:02055900F4307C
:02055A0001811D
:02055B00A010EE
:02055C0001821A
:02055D00A220DA
:02055E00BA40A1
:02055F009FB04B
:02056000100089
:02056100207008
:02056200A18076
:020563002FE087
:02056400A18074
:0205650025402F
:02056600E003B0
:02056700F03171
:02056800100081
:02056900207000
:02056A00A1806E
:02056B002FE07F
:02056C00A1806C
:02056D0024C0A8
:02056E00B301D7
:02056F009C5797
:02057000100178
:020571002071F7
:02057200A18165
:020573002FE176
:02057400A18163
:0205750025411E
:02057600100073
:020577002070F2
:02057800A18060
:020579002FC091
:02057A00A1805E
:02057B0024C09A
:02057C00E0128B
:02057D00F52067
:02057E0010006B
:02057F002070EA
:02058000A18058
:020581002FE069
:02058200A18056
:02058300254011
:02058400E00392
:02058500F03153
:0205860002B0C1
:02058700E01280
:02058800F7205A
:02058900A811B7
:02058A0010005F
:02058B002070DE
:02058C00A1804C
:02058D002FE05D
:02058E00A1804A
:02058F00254005
:02059000E00386
:02059100F53142
:02059200100156
:020593002071D5
:02059400A18143
:020595002FC174
:02059600A18141
:020597002381BE
:02059800005011
:02059900E0126E
:02059A00F5204A
:02059B0010014D
:02059C002071CC
:02059D00A1813A
:02059E002FE14B
:02059F00A18138
:0205A000250133
:0205A100100048
:0205A2002070C7
:0205A300A18035
:0205A4002FC066
:0205A500A18033
:0205A60024C06F
:0205A700E0135F
:0205A800F5302C
:0205A900100040
:0205AA002070BF
:0205AB00A1802D
:0205AC002FE03E
:0205AD00A1802B
:0205AE00250026
:0205AF00E00169
:0205B000F01049
:0205B100E00365
:0205B200F43221
:0205B300E00165
:0205B400A8118C
:0205B500100034
:0205B6002070B3
:0205B700A18021
:0205B8002FE032
:0205B900A1801F
:0205BA0025001A
:0205BB00E0035B
:0205BC00F53117
:0205BD00E0213B
:0205BE0010002B
:0205BF002020FA
:0205C000A18018
:0205C100201008
:0205C200A18016
:0205C30027C04F
:0205C400EE0047
:0205C500AD2F58
:0205C6000F0D17
:0205C700F0D072
:0205C800ABF096
:0205C900E0014F
:0205CA00F4102B
:0205CB000182AB
:0205CC00A0206D
:0205CD000183A8
:0205CE00A23059
:0205CF00BA3040
:0205D0008C0B92
:0205D100100117
:0205D200207196
:0205D300A18104
:0205D4002FC135
:0205D500A18102
:0205D60023817F
:0205D700002002
:0205D800E0122F
:0205D900F5200B
:0205DA00AD1A58
:0205DB0010000E
:0205DC0020708D
:0205DD00A180FB
:0205DE002FE00C
:0205DF00A180F9
:0205E0002540B4
:0205E100E00335
:0205E200F031F6
:0205E3000F0DFA
:0205E400F0D055
:0205E500ABF079
:0205E600E00231
:0205E700F420FE
:0205E800E0131E
:0205E900F730E9
:0205EA00A81156
:0205EB001000FE
:0205EC0020707D
:0205ED00A180EB
:0205EE002FE0FC
:0205EF00A180E9
:0205F0002540A4
:0205F100E00226
:0205F200F521F1
:0205F3001000F6
:0205F400207075
:0205F500A180E3
:0205F6002FE0F4
:0205F700A180E1
:0205F80025C01C
:0205F900E0031D
:0205FA00F431DA
:0205FB000F0DE2
:0205FC00F0D03D
:0205FD00ABF061
:0205FE00E00219
:0205FF00F420E6
:02060000E11007
:02060100E00116
:020602001000E6
:02060300207065
:02060400A180D3
:020605002FE0E4
:02060600A180D1
:0206070025C00C
:02060800E0030D
:02060900F731C7
:02060A00ACEA58
:02060B000F0DD1
:02060C00F0D02C
:02060D00ABF050
:02060E00E00109
:02060F00F410E5
:02061000E00107
:020611001000D7
:020612002020A6
:02061300A180C4
:020614002000C4
:02061500A180C2
:020616002F2093
:02061700EE00F3
:02061800A140FF
:02061900E001FE
:02061A001000CE
:02061B0020704D
:02061C00A180BB
:02061D002FE0CC
:02061E00A180B9
:02061F0025D0E4
:02062000E002F6
:02062100F721BF
:020622001001C5
:02062300207144
:02062400A181B2
:020625002FC1E3
:02062600A181B0
:0206270023812D
:020628000030A0
:02062900E013DC
:02062A00F530A9
:02062B00ACC958
:02062C000F0DB0
:02062D00F0D00B
:02062E00ABF02F
:02062F00E001E8
:02063000F410C4
:02063100E001E6
:020632001000B6
:02063300202085
:02063400A180A3
:020635002000A3
:02063600A180A1
:020637002F2072
:02063800EE00D2
:02063900E001DE
:02063A001000AE
:02063B0020702D
:02063C00A1809B
:02063D002FE0AC
:02063E00A18099
:02063F0025D0C4
:02064000E002D6
:02064100F420A3
:02064200E110C5
:02064300E001D4
:020644001000A4
:02064500207023
:02064600A18091
:020647002FE0A2
:02064800A1808F
:0206490025D0BA
:02064A00E003CB
:02064B00F73185
:02064C0010009C
:02064D0020701B
:02064E00A18089
:02064F002FE09A
:02065000A18087
:0206510025C0C2
:02065200E002C4
:02065300F42190
:02065400100094
:02065500207013
:02065600A18081
:020657002FE092
:02065800A1807F
:0206590025D0AA
:02065A00E003BB
:02065B00F43079
:02065C00018219
:02065D00A021DA
:02065E00018316
:02065F00A231C6
:02066000018215
:02066100A020D7
:02066200018312
:02066300A230C3
:02066400B001E3
:020665009C57A0
:02066600100181
:02066700207100
:02066800A1816E
:020669002FE17F
:02066A00A1816C
:02066B00254127
:02066C0010007C
:02066D002070FB
:02066E00A18069
:02066F002FC09A
:02067000A18067
:0206710024C0A3
:02067200E01294
:02067300F52070
:02067400100074
:020675002070F3
:02067600A18061
:020677002FE072
:02067800A1805F
:0206790025401A
:02067A00E0039B
:02067B00F0315C
:02067C0002D0AA
:02067D00E01289
:02067E00F72063
:02067F00A811C0
:02068000100068
:020681002070E7
:02068200A18055
:020683002FE066
:02068400A18053
:0206850025400E
:02068600E0038F
:02068700F5314B
:0206880010015F
:020689002071DE
:02068A00A1814C
:02068B002FC17D
:02068C00A1814A
:02068D002381C7
:02068E0000501A
:02068F00E01277
:02069000F52053
:02069100100156
:020692002071D5
:02069300A18143
:020694002FE154
:02069500A18141
:0206960025013C
:02069700100051
:020698002070D0
:02069900A1803E
:02069A002FC06F
:02069B00A1803C
:02069C0024C078
:02069D00E01368
:02069E00F53035
:02069F00100049
:0206A0002070C8
:0206A100A18036
:0206A2002FE047
:0206A300A18034
:0206A40025002F
:0206A500E00172
:0206A600F01052
:0206A700E0036E
:0206A800F4322A
:0206A900E0016E
:0206AA00A81195
:0206AB0010003D
:0206AC002070BC
:0206AD00A1802A
:0206AE002FE03B
:0206AF00A18028
:0206B000250023
:0206B100E00364
:0206B200F53120
:0206B300E02144
:0206B400100034
:0206B500202003
:0206B600A18021
:0206B700201011
:0206B800A1801F
:0206B90027C058
:0206BA00EE0050
:0206BB00AC3958
:0206BC0010002C
:0206BD002070AB
:0206BE00A18019
:0206BF002FE02A
:0206C000A18017
:0206C1002540D2
:0206C200E00155
:0206C300F01035
:0206C400E00153
:0206C500100023
:0206C6002070A2
:0206C700A18010
:0206C8002FC041
:0206C900A1800E
:0206CA0024C04A
:0206CB00E30149
:0206CC0010001C
:0206CD0020709B
:0206CE00A18009
:0206CF002FC03A
:0206D000A18007
:0206D1002340C4
:0206D200E00244
:0206D300F5210F
:0206D400100014
:0206D500207093
:0206D600A18001
:0206D7002FE012
:0206D800A180FF
:0206D9002540BA
:0206DA00E0033B
:0206DB00F031FC
:0206DC0000001C
:0206DD00E01229
:0206DE00F72003
:0206DF00100108
:0206E000207187
:0206E100A181F5
:0206E2002FE106
:0206E300A181F3
:0206E4002541AE
:0206E500100003
:0206E600207082
:0206E700A180F0
:0206E8002FC021
:0206E900A180EE
:0206EA0024C02A
:0206EB00E0131A
:0206EC00F530E7
:0206ED001000FB
:0206EE002020CA
:0206EF00A180E8
:0206F000208068
:0206F100A180E6
:0206F20027D00F
:0206F300EE0017
:0206F4000F47AE
:0206F500F07D96
:0206F600A88DCD
:0206F700F57D8F
:0206F8000F07EA
:0206F9004C0DA6
:0206FA00F57D8C
:0206FB004C0EA3
:0206FC00F80EF6
:0206FD005FFE9E
:0206FE000F07E4
:0206FF00F07D8C
:020700005FFD9B
:020701000F47A0
:02070200F07D88
:020703000F07DE
:02070400F57D81
:020705000F479C
:02070600F07D84
:02070700AB0D38
:02070800F57D7D
:020709000F0DD2
:02070A00F0D02D
:02070B00AB4001
:02070C00E00308
:02070D00F531C4
:02070E000F0DCD
:02070F00F0D028
:02071000AB003C
:02071100E00105
:02071200F512DE
:020713000F0DC8
:02071400F0D122
:02071500AB81B6
:020716000000E1
:02071700E012EE
:02071800F520CA
:020719000F0DC2
:02071A00F0D01D
:02071B00AB0031
:02071C00E003F8
:02071D00F031B9
:02071E000000D9
:02071F00E012E6
:02072000F520C2
:02072100AC50DA
:020722000F0DB9
:02072300F0D014
:02072400AB40E8
:02072500E003EF
:02072600F030B1
:02072700E001EF
:02072800F010CF
:02072900E002EC
:02072A00F420B9
:02072B00E001EB
:02072C001000BB
:02072D0020208A
:02072E00A180A8
:02072F002000A8
:02073000A180A6
:020731002F2077
:02073200EE00D7
:02073300E001E3
:020734000F0DA7
:02073500F0D002
:02073600ABC056
:02073700E003DD
:02073800F53199
:020739000F0DA2
:02073A00F0D0FD
:02073B00ABC051
:02073C00E001DA
:02073D00F010BA
:02073E00300089
:02073F009C41DB
:020740000F0D9B
:02074100F0D0F6
:02074200AB000A
:02074300E002D2
:02074400F020A3
:02074500E003CF
:02074600F03091
:02074700E001CF
:02074800A141CD
:020749000F0D92
:02074A00F0D0ED
:02074B00ABC041
:02074C00E002C9
:02074D00F0209A
:02074E00E601C2
:02074F000F0D8C
:02075000F0D0E7
:02075100AB00FB
:02075200E003C2
:02075300F03084
:02075400E002C1
:02075500F5218C
:020756000F0D85
:02075700F0D1DF
:02075800AB8173
:020759000F0D82
:02075A00F0D0DD
:02075B00AB8071
:02075C00E003B8
:02075D00F0307A
:02075E00A810E1
:02075F00E012A6
:02076000F52082
:020761000F0D7A
:02076200F0D0D5
:02076300AB40A9
:02076400E003B0
:02076500F03072
:02076600E001B0
:02076700F01090
:02076800E001AE
:02076900A811D5
:02076A000F0D71
:02076B00F0D0CC
:02076C00AB40A0
:02076D00E002A8
:02076E00F02079
:02076F00E003A5
:02077000F53161
:020771000F0D6A
:02077200F0D0C5
:02077300AB4099
:02077400E001A2
:02077500F01082
:02077600E0029F
:02077700F02070
:02077800E0039C
:02077900F4305A
:02077A000181FB
:02077B00A010CC
:02077C000182F8
:02077D00A220B8
:02077E00B800C1
:02077F008FA346
:020780000F0D5B
:02078100F0D0B6
:02078200AB804A
:02078300E00391
:02078400F03053
:020785000F471C
:02078600F07D04
:02078700010669
:02078800E16D21
:02078900F57DFC
:02078A000F0757
:02078B004C0D13
:02078C00F57DF9
:02078D004C0E10
:02078E00F80E63
:02078F005FFE0B
:020790000F0751
:02079100F07DF9
:020792005FFD09
:020793000F470E
:02079400F07DF6
:020795000F074C
:02079600F57DEF
:020797000F470A
:02079800F07DF2
:02079900ABCDE6
:02079A00F57DEB
:02079B0010014B
:02079C002071CA
:02079D00A18138
:02079E002FC169
:02079F00A18136
:0207A000240132
:0207A100000056
:0207A200E01263
:0207A300F5203F
:0207A400100043
:0207A5002070C2
:0207A600A18030
:0207A7002FE041
:0207A800A1802E
:0207A9002540E9
:0207AA00E0036A
:0207AB00F0312B
:0207AC00024009
:0207AD00E01258
:0207AE00F72032
:0207AF00A8118F
:0207B000100037
:0207B1002070B6
:0207B200A18024
:0207B3002FE035
:0207B400A18022
:0207B5002540DD
:0207B600E0035E
:0207B700F5311A
:0207B8000F0D23
:0207B900F0D17D
:0207BA00ABC1D1
:0207BB0010002C
:0207BC002070AB
:0207BD00A18019
:0207BE002FE02A
:0207BF00A18017
:0207C0002540D2
:0207C100E00254
:0207C200F02025
:0207C300E01341
:0207C400F5300E
:0207C500100022
:0207C6002070A1
:0207C700A1800F
:0207C8002FE020
:0207C900A1800D
:0207CA002540C8
:0207CB00E0024A
:0207CC00F0211A
:0207CD000530F5
:0207CE00E01336
:0207CF00F73001
:0207D000A8116E
:0207D100100016
:0207D200207095
:0207D300A18003
:0207D4002FE014
:0207D500A18001
:0207D6002540BC
:0207D700E0023E
:0207D800F52109
:0207D90010000E
:0207DA0020708D
:0207DB00A180FB
:0207DC002FE00C
:0207DD00A180F9
:0207DE002540B4
:0207DF00E00335
:0207E000F031F6
:0207E100030013
:0207E200E01223
:0207E300F720FD
:0207E400A8115A
:0207E500100002
:0207E600207081
:0207E700A180EF
:0207E8002FE000
:0207E900A180ED
:0207EA002540A8
:0207EB00E00329
:0207EC00F531E5
:0207ED001000FA
:0207EE00207079
:0207EF00A180E7
:0207F0002FE0F8
:0207F100A180E5
:0207F2002540A0
:0207F300E00222
:0207F400F021F2
:0207F5000350AF
:0207F600E0130E
:0207F700F730D9
:0207F800A81146
:0207F9001000EE
:0207FA0020706D
:0207FB00A180DB
:0207FC002FE0EC
:0207FD00A180D9
:0207FE00254094
:0207FF00E00216
:02080000F521E0
:020801000F0DD9
:02080200F0D034
:02080300ABC088
:02080400E0030F
:02080500F030D1
:02080600E0010F
:020807001000DF
:020808002020AE
:02080900A180CC
:02080A0020408C
:02080B00A180CA
:02080C00224088
:02080D00EE00FB
:02080E001001D7
:02080F00207156
:02081000A181C4
:020811002FC1F5
:02081200A181C2
:0208130023813F
:02081400005092
:02081500E012EF
:02081600F520CB
:020817001001CE
:0208180020714D
:02081900A181BB
:02081A002FE1CC
:02081B00A181B9
:02081C002501B4
:02081D001000C9
:02081E00207048
:02081F00A180B6
:020820002FC0E7
:02082100A180B4
:0208220024C0F0
:02082300E013E0
:02082400F530AD
:020825001000C1
:02082600207040
:02082700A180AE
:020828002FE0BF
:02082900A180AC
:02082A002500A7
:02082B00E001EA
:02082C00F010CA
:02082D00E003E6
:02082E00F432A2
:02082F00E001E6
:02083000A8110D
:020831001000B5
:02083200207034
:02083300A180A2
:020834002FE0B3
:02083500A180A0
:0208360025009B
:02083700E003DC
:02083800F53198
:02083900E021BC
:02083A001000AC
:02083B0020207B
:02083C00A18099
:02083D00201089
:02083E00A18097
:02083F0027C0D0
:02084000EE00C8
:020841000F475F
:02084200F07D47
:02084300A84DBE
:02084400F57D40
:020845000F079B
:020846004C0D57
:02084700F57D3D
:020848004C0E54
:02084900F80EA7
:02084A005FFE4F
:02084B000F0795
:02084C00F07D3D
:02084D005FFD4D
:02084E000F4752
:02084F00F07D3A
:020850000F0790
:02085100F57D33
:02085200100094
:02085300207013
:02085400A18081
:020855002FC0B2
:02085600A1807F
:0208570023C0BC
:02085800E001BD
:02085900F0109D
:02085A00B800E4
:02085B008C1DF2
:02085C00100189
:02085D00207108
:02085E00A18176
:02085F002FE187
:02086000A18174
:0208610025412F
:02086200100084
:02086300207003
:02086400A18071
:020865002FC0A2
:02086600A1806F
:0208670024C0AB
:02086800E0129C
:02086900F52078
:02086A0010007C
:02086B0020204B
:02086C00A18069
:02086D002070F9
:02086E00A18067
:02086F0028F06F
:02087000EE0098
:02087100100075
:02087200202044
:02087300A18062
:02087400200062
:02087500A18060
:020876002A2036
:02087700EE0091
:020878000F0768
:020879004C0D24
:02087A00F57D0A
:02087B004C0E21
:02087C00F80E74
:02087D005FFE1C
:02087E000F0762
:02087F00F07D0A
:020880005FFD1A
:020881000F471F
:02088200F07D07
:020883000F075D
:02088400F57D00
:020885000F471B
:02088600F07D03
:02088700030666
:020888001FF659
:02088900E16D1F
:02088A00F57DFA
:02088B0010005B
:02088C002070DA
:02088D00A18048
:02088E002FC079
:02088F00A18046
:02089000234003
:02089100E00184
:02089200F01064
:0208930038002B
:020894009C4F77
:02089500100051
:020896002070D0
:02089700A1803E
:020898002FE04F
:02089900A1803C
:02089A002540F7
:02089B00E00279
:02089C00F02149
:02089D0002B0A7
:02089E00E01365
:02089F00F73030
:0208A000A8119D
:0208A100100045
:0208A2002070C4
:0208A300A18032
:0208A4002FE043
:0208A500A18030
:0208A6002540EB
:0208A700E0026D
:0208A800F52138
:0208A90010013C
:0208AA002071BB
:0208AB00A18129
:0208AC002FC15A
:0208AD00A18127
:0208AE002381A4
:0208AF000050F7
:0208B000E01353
:0208B100F53020
:0208B200100133
:0208B3002071B2
:0208B400A18120
:0208B5002FE131
:0208B600A1811E
:0208B700250119
:0208B80010002E
:0208B9002070AD
:0208BA00A1801B
:0208BB002FC04C
:0208BC00A18019
:0208BD0024C055
:0208BE00E01246
:0208BF00F52022
:0208C000100026
:0208C1002070A5
:0208C200A18013
:0208C3002FE024
:0208C400A18011
:0208C50025000C
:0208C600E0034D
:0208C700F0300F
:0208C800E0014D
:0208C900F41227
:0208CA00E0014B
:0208CB00A81172
:0208CC0010001A
:0208CD00207099
:0208CE00A18007
:0208CF002FE018
:0208D000A18005
:0208D100250000
:0208D200E00341
:0208D300F531FD
:0208D400E02121
:0208D500100011
:0208D6002020E0
:0208D700A180FE
:0208D8002010EE
:0208D900A180FC
:0208DA0027C035
:0208DB00EE002D
:0208DC00100DFD
:0208DD00202DCC
:0208DE00A18DEA
:0208DF00216D89
:0208E000A18DE8
:0208E1002E5D8A
:0208E200EF0D18
:0208E3000F0DF7
:0208E400F0D151
:0208E5000BC046
:0208E600E1012E
:0208E7001000FF
:0208E80020707E
:0208E900A180EC
:0208EA002FC01D
:0208EB00A180EA
:0208EC0024C026
:0208ED00E01217
:0208EE00F520F3
:0208EF000F0DEB
:0208F000F0D046
:0208F1000BC337
:0208F200E130F3
:0208F300E00122
:0208F400F01200
:0208F5000F0DE5
:0208F600F0D13F
:0208F7000C33C0
:0208F800E131EC
:0208F900E023FA
:0208FA00F430D8
:0208FB00E01308
:0208FC00F730D3
:0208FD00E021F8
:0208FE00A8113F
:0208FF000F0DDB
:02090000F0D035
:020901000BC227
:02090200E120F2
:02090300E0030F
:02090400F531CB
:020905001000E0
:0209060020705F
:02090700A180CD
:020908002FE0DE
:02090900A180CB
:02090A00254086
:02090B00E00208
:02090C00F021D8
:02090D0002B036
:02090E00E013F4
:02090F00F730BF
:02091000A8112C
:020911001000D4
:02091200207053
:02091300A180C1
:020914002FE0D2
:02091500A180BF
:0209160025407A
:02091700E002FC
:02091800F521C7
:020919000F0DC0
:02091A00F0D01B
:02091B000C339B
:02091C00E130C8
:02091D00E001F7
:02091E00F410D3
:02091F00E003F3
:02092000018252
:02092100A02311
:020922000302CE
:020923001FF2C1
:020924000F0DB5
:02092500F0DD03
:02092600E1D21C
:02092700F523B6
:020928000303C7
:020929001FF3BA
:02092A000F0DAF
:02092B00F0DDFD
:02092C00E1D315
:02092D00F030A8
:02092E00018343
:02092F00A230F4
:020930000303BF
:020931001FF3B2
:020932000F0DA7
:02093300F0DDF5
:02093400E1D30D
:02093500F5309B
:020936000300BC
:020937001FF0AF
:020938000F0DA1
:02093900F0DDEF
:02093A00E1D00A
:02093B00F000CA
:02093C00063182
:02093D00B010F8
:02093E009CCB50
:02093F000302B1
:020940001FF2A4
:020941000F0D98
:02094200F0DDE6
:02094300E1D2FF
:02094400F0229F
:02094500063377
:02094600B232CB
:020947009C4DC5
:020948000300AA
:020949001FF09D
:02094A000F0D8F
:02094B00F0DDDD
:02094C00E1D0F8
:02094D00F000B8
:02094E0004D1D2
:02094F00B010E6
:02095000100D88
:02095100202D57
:02095200A18D75
:02095300210D74
:02095400A18D73
:02095500229DE1
:02095600DF0DB3
:02095700030299
:020958001FF28C
:020959000F0D80
:02095A00F0DDCE
:02095B00E1D2E7
:02095C00F02287
:02095D0004D3C1
:02095E00B232B3
:02095F009C1FDB
:02096000030092
:020961001FF085
:020962000F0D77
:02096300F0DDC5
:02096400E1D0E0
:02096500F000A0
:02096600BBF0E4
:020967009C7A78
:02096800030189
:020969001FF17C
:02096A000F0D6F
:02096B00F0DDBD
:02096C00E1D1D7
:02096D00F01187
:02096E00047211
:02096F00B021B5
:02097000100D68
:02097100202D37
:02097200A18D55
:0209730020CD95
:02097400A18D53
:02097500234D10
:02097600DF0D93
:02097700100D61
:02097800202D30
:02097900A18D4E
:02097A00216DED
:02097B00A18D4C
:02097C0028ED64
:02097D00EF0D7C
:02097E00030371
:02097F001FF364
:020980000F0D59
:02098100F0DDA7
:02098200E1D3BF
:02098300F0334F
:0209840005A0CC
:02098500B003BD
:02098600100D52
:02098700202D21
:02098800A18D3F
:02098900214DFE
:02098A00A18D3D
:02098B00214DFC
:02098C00DF0D7D
:02098D00100D4B
:02098E00202D1A
:02098F00A18D38
:02099000216DD7
:02099100A18D36
:0209920028ED4E
:02099300EF0D66
:0209940003015D
:020995001FF150
:020996000F0D43
:02099700F0DD91
:02099800E1D1AB
:02099900F0115B
:02099A0006D283
:02099B00B02189
:02099C00100D3C
:02099D00202D0B
:02099E00A18D29
:02099F0020ED49
:0209A000A18D27
:0209A100264DE1
:0209A200DF0D67
:0209A30003034C
:0209A4001FF33F
:0209A5000F0D34
:0209A600F0DD82
:0209A700E1D39A
:0209A800F0332A
:0209A90006D076
:0209AA00B20396
:0209AB009C119D
:0209AC00030145
:0209AD001FF138
:0209AE000F0D2B
:0209AF00F0DD79
:0209B000E1D193
:0209B100F01143
:0209B2000672CB
:0209B300B02171
:0209B4009CDBCA
:0209B500100D23
:0209B600202DF2
:0209B700A18D10
:0209B800216DAF
:0209B900A18D0E
:0209BA0028ED26
:0209BB00EF0D3E
:0209BC00030333
:0209BD001FF326
:0209BE000F0D1B
:0209BF00F0DD69
:0209C000E1D381
:0209C100F03311
:0209C2000730FC
:0209C300B0037F
:0209C400100D14
:0209C500202DE3
:0209C600A18D01
:0209C700213DD0
:0209C800A18DFF
:0209C90021AD5E
:0209CA00DF0D3F
:0209CB00030126
:0209CC001FF119
:0209CD000F0D0C
:0209CE00F0DD5A
:0209CF00E1D174
:0209D000F01124
:0209D10007A27B
:0209D200B02152
:0209D300100D05
:0209D400202DD4
:0209D500A18DF2
:0209D600214DB1
:0209D700A18DF0
:0209D800214DAF
:0209D900DF0D30
:0209DA00100DFE
:0209DB00202DCD
:0209DC00A18DEB
:0209DD00216D8A
:0209DE00A18DE9
:0209DF0028ED01
:0209E000EF0D19
:0209E100100004
:0209E200207083
:0209E300A180F1
:0209E4002FC022
:0209E500A180EF
:0209E60023C02C
:0209E700E0032B
:0209E800F030ED
:0209E900B80054
:0209EA009C0F60
:0209EB001000FA
:0209EC002020C9
:0209ED00A180E7
:0209EE00207077
:0209EF00A180E5
:0209F00028F0ED
:0209F100EE0016
:0209F200100DE6
:0209F300202DB5
:0209F400A18DD3
:0209F500216D72
:0209F600A18DD1
:0209F7002E5D73
:0209F800EF0D01
:0209F9001001EB
:0209FA0020716A
:0209FB00A181D8
:0209FC002FC109
:0209FD00A181D6
:0209FE002401D2
:0209FF000010E6
:020A0000E01202
:020A0100F520DE
:020A0200100DD5
:020A0300202DA4
:020A0400A18DC2
:020A0500216D61
:020A0600A18DC0
:020A07002E5D62
:020A0800EF0DF0
:020A09000F0DCF
:020A0A00F0D02A
:020A0B000BC31B
:020A0C00E130D7
:020A0D000F0DCB
:020A0E00F0D224
:020A0F000B8159
:020A1000E112F1
:020A1100E00102
:020A12001000D2
:020A13002020A1
:020A1400A180BF
:020A150020605F
:020A1600A180BD
:020A17002FD0DE
:020A1800EE00EE
:020A1900B80023
:020A1A009C142A
:020A1B001000C9
:020A1C00207048
:020A1D00A180B6
:020A1E002FC0E7
:020A1F00A180B4
:020A200020C0F4
:020A2100E002F1
:020A2200F020C2
:020A230003C10D
:020A2400E101EE
:020A25000F0DB3
:020A2600F0D00E
:020A27000B833F
:020A2800E130BB
:020A2900E002E9
:020A2A00F020BA
:020A2B00E013D6
:020A2C00F530A3
:020A2D00AC1FFC
:020A2E001000B6
:020A2F00207035
:020A3000A180A3
:020A31002FC0D4
:020A3200A180A1
:020A330023C0DE
:020A3400E001DF
:020A3500F010BF
:020A3600B80006
:020A37009C150C
:020A38001000AC
:020A390020702B
:020A3A00A18099
:020A3B002FC0CA
:020A3C00A18097
:020A3D0020C0D7
:020A3E00E002D4
:020A3F00F020A5
:020A400003C1F0
:020A4100E101D1
:020A42001000A2
:020A4300207021
:020A4400A1808F
:020A45002FE0A0
:020A4600A1808D
:020A4700258008
:020A4800E003C9
:020A4900F0308B
:020A4A00E012B8
:020A4B00F52094
:020A4C00100197
:020A4D00207116
:020A4E00A18184
:020A4F002FC1B5
:020A5000A18182
:020A510023C1BF
:020A52000000A2
:020A5300E013AE
:020A5400F5307B
:020A550010018E
:020A560020710D
:020A5700A1817B
:020A58002FC1AC
:020A5900A18179
:020A5A002381F6
:020A5B00005049
:020A5C00E012A6
:020A5D00F52082
:020A5E00100185
:020A5F00207104
:020A6000A18172
:020A61002FE183
:020A6200A18170
:020A630025016B
:020A6400100080
:020A65002070FF
:020A6600A1806D
:020A67002FC09E
:020A6800A1806B
:020A690024C0A7
:020A6A00E01397
:020A6B00F53064
:020A6C00100078
:020A6D002070F7
:020A6E00A18065
:020A6F002FE076
:020A7000A18063
:020A710025005E
:020A7200E001A1
:020A7300F01081
:020A7400E0039D
:020A7500F43259
:020A7600E0019D
:020A7700A811C4
:020A780010006C
:020A79002070EB
:020A7A00A18059
:020A7B002FE06A
:020A7C00A18057
:020A7D00250052
:020A7E00E00393
:020A7F00F5314F
:020A8000E02173
:020A8100100063
:020A8200202032
:020A8300A18050
:020A8400201040
:020A8500A1804E
:020A860027C087
:020A8700EE007F
:020A8800100D4F
:020A8900202D1E
:020A8A00A18D3C
:020A8B00216DDB
:020A8C00A18D3A
:020A8D002E5DDC
:020A8E00EF0D6A
:020A8F00100055
:020A90002070D4
:020A9100A18042
:020A92002FE053
:020A9300A18040
:020A94002540FB
:020A9500E0027D
:020A9600F0214D
:020A970002401B
:020A9800E01369
:020A9900F73034
:020A9A00A811A1
:020A9B00100049
:020A9C002070C8
:020A9D00A18036
:020A9E002FE047
:020A9F00A18034
:020AA0002540EF
:020AA100E00271
:020AA200F5213C
:020AA3000F0D35
:020AA400F0D18F
:020AA5000C4300
:020AA600E1313C
:020AA70010003D
:020AA8002070BC
:020AA900A1802A
:020AAA002FE03B
:020AAB00A18028
:020AAC002540E3
:020AAD00E00265
:020AAE00F02036
:020AAF00E01352
:020AB000F5301F
:020AB100100033
:020AB2002070B2
:020AB300A18020
:020AB4002FC051
:020AB500A1801E
:020AB60020C05E
:020AB700E0025B
:020AB800F0212B
:020AB9000F0D1F
:020ABA00F0D07A
:020ABB000C83AA
:020ABC00E13027
:020ABD00E00255
:020ABE00F52120
:020ABF000F0D19
:020AC000F0D173
:020AC1000CC364
:020AC200E13120
:020AC300000031
:020AC400E0123E
:020AC500F5201A
:020AC600AC740E
:020AC70010001D
:020AC80020709C
:020AC900A1800A
:020ACA002FE01B
:020ACB00A18008
:020ACC002540C3
:020ACD00E00344
:020ACE00F03204
:020ACF000F0D09
:020AD000F0D064
:020AD1000C8196
:020AD200E11031
:020AD300E0033E
:020AD400F03000
:020AD500E0013E
:020AD600F4101A
:020AD700018399
:020AD800A0304C
:020AD900018199
:020ADA00A21068
:020ADB00A34036
:020ADC00018394
:020ADD00A03047
:020ADE00018194
:020ADF00A21063
:020AE000100103
:020AE100207182
:020AE200A181F0
:020AE3002FC121
:020AE400A181EE
:020AE5002101ED
:020AE600E1101D
:020AE700E0032A
:020AE800F430E8
:020AE900E0210A
:020AEA00F71003
:020AEB00E02108
:020AEC00A8114F
:020AED001000F7
:020AEE00207076
:020AEF00A180E4
:020AF0002FE0F5
:020AF100A180E2
:020AF20025409D
:020AF300E0021F
:020AF400F521EA
:020AF5001000EF
:020AF60020706E
:020AF700A180DC
:020AF8002FE0ED
:020AF900A180DA
:020AFA00254095
:020AFB00E00316
:020AFC00F032D6
:020AFD000F0DDB
:020AFE00F0D036
:020AFF000C8168
:020B0000E11002
:020B0100E0030F
:020B0200F030D1
:020B0300E0010F
:020B0400F410EB
:020B050001836A
:020B0600A0301D
:020B070001816A
:020B0800A21039
:020B090000F1F9
:020B0A00E50103
:020B0B001000D8
:020B0C00207057
:020B0D00A180C5
:020B0E002FC0F6
:020B0F00A180C3
:020B10002100C2
:020B1100E110F1
:020B1200E003FE
:020B1300F430BC
:020B1400E021DE
:020B1500F710D7
:020B1600E021DC
:020B1700A81123
:020B18001000CB
:020B190020704A
:020B1A00A180B8
:020B1B002FE0C9
:020B1C00A180B6
:020B1D00254071
:020B1E00E002F3
:020B1F00F521BE
:020B20000F0DB7
:020B2100F0D111
:020B22000C8342
:020B2300E131BE
:020B24000F0DB3
:020B2500F0D00E
:020B26000C823F
:020B2700E120CB
:020B2800E003E8
:020B2900F030AA
:020B2A00A81011
:020B2B00E012D6
:020B2C00F520B2
:020B2D000F0DAA
:020B2E00F0D104
:020B2F000CC3F5
:020B3000E131B1
:020B31000F0DA6
:020B3200F0D001
:020B33000CC2F2
:020B3400E120BE
:020B3500E003DB
:020B3600F0309D
:020B3700A81004
:020B3800E012C9
:020B3900F520A5
:020B3A000F0D9D
:020B3B00F0D0F8
:020B3C000CC3E8
:020B3D00E130A5
:020B3E00E001D4
:020B3F00F010B4
:020B40003BF088
:020B41008F869D
:020B42001000A1
:020B4300207020
:020B4400A1808E
:020B45002FC0BF
:020B4600A1808C
:020B470023C0C9
:020B4800E002C9
:020B4900F0209A
:020B4A00B800F1
:020B4B009C0EFE
:020B4C000F0D8B
:020B4D00F0D1E5
:020B4E000C8316
:020B4F00E13192
:020B5000100093
:020B5100207012
:020B5200A18080
:020B53002FE091
:020B5400A1807E
:020B55002580F9
:020B5600E012AB
:020B5700F52087
:020B5800AC11DE
:020B590010008A
:020B5A00207009
:020B5B00A18077
:020B5C002FC0A8
:020B5D00A18075
:020B5E0020C0B5
:020B5F00E003B1
:020B6000F03073
:020B610003C1CE
:020B6200E101AF
:020B63000F0D74
:020B6400F0D0CF
:020B65000C8200
:020B6600E1208C
:020B6700E003A9
:020B6800F53165
:020B69000F0D6E
:020B6A00F0D1C8
:020B6B000CC0BC
:020B6C00E101A5
:020B6D00000086
:020B6E00E01293
:020B6F00F5206F
:020B7000AC7463
:020B7100100072
:020B72002070F1
:020B7300A1805F
:020B74002FE070
:020B7500A1805D
:020B7600254018
:020B7700E00399
:020B7800F03259
:020B79000F0D5E
:020B7A00F0D0B9
:020B7B000C81EB
:020B7C00E11086
:020B7D00E00393
:020B7E00F03055
:020B7F00E00193
:020B8000F4106F
:020B81000183EE
:020B8200A030A1
:020B83000181EE
:020B8400A210BD
:020B8500A3408B
:020B86000183E9
:020B8700A0309C
:020B88000181E9
:020B8900A210B8
:020B8A00100158
:020B8B002071D7
:020B8C00A18145
:020B8D002FC176
:020B8E00A18143
:020B8F00210142
:020B9000E11072
:020B9100E0037F
:020B9200F4303D
:020B9300E0215F
:020B9400F71058
:020B9500E0215D
:020B9600A811A4
:020B970010004C
:020B98002070CB
:020B9900A18039
:020B9A002FE04A
:020B9B00A18037
:020B9C002540F2
:020B9D00E00274
:020B9E00F5213F
:020B9F00100044
:020BA0002070C3
:020BA100A18031
:020BA2002FE042
:020BA300A1802F
:020BA4002540EA
:020BA500E0036B
:020BA600F0322B
:020BA7000F0D30
:020BA800F0D08B
:020BA9000C81BD
:020BAA00E11058
:020BAB00E00365
:020BAC00F03027
:020BAD00E00165
:020BAE00F41041
:020BAF000183C0
:020BB000A03073
:020BB1000181C0
:020BB200A2108F
:020BB30000F14F
:020BB400E50159
:020BB50010002E
:020BB6002070AD
:020BB700A1801B
:020BB8002FC04C
:020BB900A18019
:020BBA00210018
:020BBB00E11047
:020BBC00E00354
:020BBD00F43012
:020BBE00E02134
:020BBF00F7102D
:020BC000E02132
:020BC100A81179
:020BC200100021
:020BC3002070A0
:020BC400A1800E
:020BC5002FE01F
:020BC600A1800C
:020BC7002540C7
:020BC800E00249
:020BC900F52114
:020BCA000F0D0D
:020BCB00F0D167
:020BCC000C8398
:020BCD00E13114
:020BCE000F0D09
:020BCF00F0D064
:020BD0000C8295
:020BD100E12021
:020BD200E0033E
:020BD300F03000
:020BD400A81067
:020BD500E0122C
:020BD600F52008
:020BD7000F0D00
:020BD800F0D15A
:020BD9000CC34B
:020BDA00E13107
:020BDB000F0DFC
:020BDC00F0D057
:020BDD000CC248
:020BDE00E12014
:020BDF00E00331
:020BE000F030F3
:020BE100A8105A
:020BE200E0121F
:020BE300F520FB
:020BE4000F0DF3
:020BE500F0D04E
:020BE6000CC33E
:020BE700E130FB
:020BE800E0012A
:020BE900F0100A
:020BEA003830A1
:020BEB008F86F3
:020BEC000F0DEB
:020BED00F0D046
:020BEE000C42B7
:020BEF00E12003
:020BF000E00320
:020BF100F030E2
:020BF200E00120
:020BF3001000F0
:020BF4002020BF
:020BF500A180DD
:020BF60020409D
:020BF700A180DB
:020BF800224099
:020BF900EE000C
:020BFA001001E8
:020BFB00207167
:020BFC00A181D5
:020BFD002FC106
:020BFE00A181D3
:020BFF00238150
:020C00000050A2
:020C0100E012FF
:020C0200F520DB
:020C03001001DE
:020C040020715D
:020C0500A181CB
:020C06002FE1DC
:020C0700A181C9
:020C08002501C4
:020C09001000D9
:020C0A00207058
:020C0B00A180C6
:020C0C002FC0F7
:020C0D00A180C4
:020C0E0024C000
:020C0F00E013F0
:020C1000F530BD
:020C11001000D1
:020C1200207050
:020C1300A180BE
:020C14002FE0CF
:020C1500A180BC
:020C16002500B7
:020C1700E001FA
:020C1800F010DA
:020C1900E003F6
:020C1A00F432B2
:020C1B00E001F6
:020C1C00A8111D
:020C1D001000C5
:020C1E00207044
:020C1F00A180B2
:020C20002FE0C3
:020C2100A180B0
:020C22002500AB
:020C2300E003EC
:020C2400F531A8
:020C2500E021CC
:020C26001000BC
:020C270020208B
:020C2800A180A9
:020C2900201099
:020C2A00A180A7
:020C2B0027C0E0
:020C2C00EE00D8
:020C2D00100DA8
:020C2E00202D77
:020C2F00A18D95
:020C3000216D34
:020C3100A18D93
:020C32002E5D35
:020C3300EF0DC3
:020C34001000AE
:020C350020702D
:020C3600A1809B
:020C37002FC0CC
:020C3800A18099
:020C3900234056
:020C3A00E001D7
:020C3B00F010B7
:020C3C0008822C
:020C3D001002A3
:020C3E00B220E2
:020C3F009C66B1
:020C40001000A2
:020C4100207021
:020C4200A1808F
:020C43002FE0A0
:020C4400A1808D
:020C4500254048
:020C4600E003C9
:020C4700F0318A
:020C4800024068
:020C4900E012B7
:020C4A00F72091
:020C4B00A811EE
:020C4C00100096
:020C4D00207015
:020C4E00A18083
:020C4F002FE094
:020C5000A18081
:020C510025403C
:020C5200E003BD
:020C5300F53179
:020C54000F0D82
:020C5500F0D1DC
:020C56000D008F
:020C5700E101B9
:020C580010008A
:020C5900207009
:020C5A00A18077
:020C5B002FE088
:020C5C00A18075
:020C5D00254030
:020C5E00E002B2
:020C5F00F02083
:020C6000E0139F
:020C6100F5306C
:020C6200100080
:020C63002070FF
:020C6400A1806D
:020C65002FE07E
:020C6600A1806B
:020C6700254026
:020C6800E002A8
:020C6900F02178
:020C6A00045034
:020C6B00E01394
:020C6C00F7305F
:020C6D00A811CC
:020C6E00100074
:020C6F002070F3
:020C7000A18061
:020C71002FE072
:020C7200A1805F
:020C730025401A
:020C7400E0029C
:020C7500F52167
:020C760010006C
:020C77002070EB
:020C7800A18059
:020C79002FE06A
:020C7A00A18057
:020C7B00254012
:020C7C00E00393
:020C7D00F03154
:020C7E00030071
:020C7F00E01281
:020C8000F7205B
:020C8100A811B8
:020C8200100060
:020C83002070DF
:020C8400A1804D
:020C85002FE05E
:020C8600A1804B
:020C8700254006
:020C8800E00387
:020C8900F53143
:020C8A00100058
:020C8B002070D7
:020C8C00A18045
:020C8D002FE056
:020C8E00A18043
:020C8F002540FE
:020C9000E00280
:020C9100F02150
:020C920003104D
:020C9300E0136C
:020C9400F73037
:020C9500A811A4
:020C960010004C
:020C97002070CB
:020C9800A18039
:020C99002FE04A
:020C9A00A18037
:020C9B002540F2
:020C9C00E00274
:020C9D00F5213F
:020C9E00100D37
:020C9F00202D06
:020CA000A18D24
:020CA10020ED44
:020CA200A18D22
:020CA30021CD61
:020CA400EF0D52
:020CA50010003D
:020CA6002070BC
:020CA700A1802A
:020CA8002FC05B
:020CA900A18028
:020CAA0020C068
:020CAB00E00364
:020CAC00F03125
:020CAD000F0D29
:020CAE00F0D084
:020CAF000DC274
:020CB000E12041
:020CB100E0035E
:020CB200F5311A
:020CB3000F0D23
:020CB400F0D17D
:020CB500AA0192
:020CB60000003C
:020CB700E01249
:020CB800F52025
:020CB900AC6F1E
:020CBA000F0D1C
:020CBB00F0D077
:020CBC000BC368
:020CBD00E13024
:020CBE00E00153
:020CBF00F01033
:020CC000E0034F
:020CC100F4320B
:020CC200E0014F
:020CC300A81176
:020CC4000F0D12
:020CC500F0D06D
:020CC6000BC35E
:020CC700E1301A
:020CC800E00347
:020CC900F53103
:020CCA00E02127
:020CCB00100017
:020CCC002020E6
:020CCD00A18004
:020CCE00200004
:020CCF00A18002
:020CD0002F20D3
:020CD100EE0033
:020CD200E0013F
:020CD3000F0D03
:020CD400F0D05E
:020CD5000D828E
:020CD600E1201B
:020CD700E00338
:020CD800F531F4
:020CD9000F0DFD
:020CDA00F0D058
:020CDB000BC14B
:020CDC00E11025
:020CDD00E00233
:020CDE00F02004
:020CDF00E00330
:020CE000F432EC
:020CE100E00130
:020CE200A81157
:020CE3000F0DF3
:020CE400F0D04E
:020CE5000BC33F
:020CE600E130FB
:020CE700E00328
:020CE800F531E4
:020CE900E02108
:020CEA001000F8
:020CEB002020C7
:020CEC00A180E5
:020CED002000E5
:020CEE00A180E3
:020CEF002F20B4
:020CF000EE0014
:020CF100E00120
:020CF2000F0DE4
:020CF300F0D03F
:020CF4000D42AF
:020CF500E120FC
:020CF600E00319
:020CF700F531D5
:020CF8000F0DDE
:020CF900F0D039
:020CFA000D816A
:020CFB00E11006
:020CFC00E00214
:020CFD00F020E5
:020CFE00A14013
:020CFF00E00112
:020D00000F0DD5
:020D0100F0D030
:020D02000D439F
:020D0300E130DD
:020D0400E0020B
:020D0500F020DC
:020D0600E610F5
:020D0700E00109
:020D08000F0DCD
:020D0900F0D028
:020D0A000DC317
:020D0B00E130D5
:020D0C00E00203
:020D0D00F020D4
:020D0E00E00300
:020D0F00F731BA
:020D10000F0DC5
:020D1100F0D11F
:020D12000DC012
:020D1300E101FC
:020D14000F0DC1
:020D1500F0D01C
:020D16000DC20C
:020D1700E120D9
:020D1800E003F6
:020D1900F030B8
:020D1A00A8101F
:020D1B00E012E4
:020D1C00F520C0
:020D1D000F0DB8
:020D1E00F0D112
:020D1F00AA0127
:020D20000F0DB5
:020D2100F0D010
:020D2200AA0025
:020D2300E003EB
:020D2400F030AD
:020D2500A81014
:020D2600E012D9
:020D2700F520B5
:020D28000F0DAD
:020D2900F0D008
:020D2A00AA001D
:020D2B00E003E3
:020D2C00F030A5
:020D2D003BF099
:020D2E008F8CA8
:020D2F001000B2
:020D3000207031
:020D3100A1809F
:020D32002FC0D0
:020D3300A1809D
:020D340023C0DA
:020D3500E001DB
:020D3600F010BB
:020D3700B80002
:020D38009C0E0F
:020D39000F0D9C
:020D3A00F0D1F6
:020D3B000DC2E7
:020D3C00E121B3
:020D3D001000A4
:020D3E00207023
:020D3F00A18091
:020D40002FE0A2
:020D4100A1808F
:020D420025800A
:020D4300E013BB
:020D4400F53088
:020D4500AC11EF
:020D460010009B
:020D470020701A
:020D4800A18088
:020D49002FC0B9
:020D4A00A18086
:020D4B0020C0C6
:020D4C00E001C4
:020D4D00F010A4
:020D4E0003C1DF
:020D4F00E101C0
:020D50000F0D85
:020D5100F0D0E0
:020D52000DC2D0
:020D5300E1209D
:020D5400E003BA
:020D5500F53176
:020D56000F0D7F
:020D5700F0D1D9
:020D5800AA01EE
:020D5900000098
:020D5A00E012A5
:020D5B00F52081
:020D5C00AC6F7A
:020D5D000F0D78
:020D5E00F0D0D3
:020D5F000BC3C4
:020D6000E13080
:020D6100E001AF
:020D6200F0108F
:020D6300E003AB
:020D6400F43267
:020D6500E001AB
:020D6600A811D2
:020D67000F0D6E
:020D6800F0D0C9
:020D69000BC3BA
:020D6A00E13076
:020D6B00E003A3
:020D6C00F5315F
:020D6D00E02183
:020D6E00100073
:020D6F00202042
:020D7000A18060
:020D7100200060
:020D7200A1805E
:020D73002F202F
:020D7400EE008F
:020D7500E0019B
:020D76000F0D5F
:020D7700F0D0BA
:020D78000D82EA
:020D7900E12077
:020D7A00E00394
:020D7B00F53150
:020D7C000F0D59
:020D7D00F0D0B4
:020D7E000BC1A7
:020D7F00E11081
:020D8000E0028F
:020D8100F02060
:020D8200E0038C
:020D8300F43248
:020D8400E0018C
:020D8500A811B3
:020D86000F0D4F
:020D8700F0D0AA
:020D88000BC39B
:020D8900E13057
:020D8A00E00384
:020D8B00F53140
:020D8C00E02164
:020D8D00100054
:020D8E00202023
:020D8F00A18041
:020D9000200041
:020D9100A1803F
:020D92002F2010
:020D9300EE0070
:020D9400E0017C
:020D95000F0D40
:020D9600F0D09B
:020D97000D420B
:020D9800E12058
:020D9900E00375
:020D9A00F53131
:020D9B000F0D3A
:020D9C00F0D095
:020D9D000D81C6
:020D9E00E11062
:020D9F00E00270
:020DA000F02041
:020DA100A1406F
:020DA200E0016E
:020DA3000F0D32
:020DA400F0D08D
:020DA5000D43FC
:020DA600E1303A
:020DA700E00268
:020DA800F02039
:020DA900E61052
:020DAA00E00166
:020DAB000F0D2A
:020DAC00F0D085
:020DAD000DC374
:020DAE00E13032
:020DAF00E00260
:020DB000F02031
:020DB100E0035D
:020DB200F73117
:020DB3000F0D22
:020DB400F0D17C
:020DB5000DC06F
:020DB600E10159
:020DB7000F0D1E
:020DB800F0D079
:020DB9000DC269
:020DBA00E12036
:020DBB00E00353
:020DBC00F03015
:020DBD00A8107C
:020DBE00E01241
:020DBF00F5201D
:020DC0000F0D15
:020DC100F0D16F
:020DC200AA0184
:020DC3000F0D12
:020DC400F0D06D
:020DC500AA0082
:020DC600E00348
:020DC700F0300A
:020DC800A81071
:020DC900E01236
:020DCA00F52012
:020DCB000F0D0A
:020DCC00F0D065
:020DCD00AA007A
:020DCE00E00340
:020DCF00F03002
:020DD0003830B9
:020DD1008F8C05
:020DD20010000F
:020DD30020708E
:020DD400A180FC
:020DD5002FE00D
:020DD600A180FA
:020DD7002540B5
:020DD800E00237
:020DD900F02107
:020DDA000240D5
:020DDB00E01323
:020DDC00F730EE
:020DDD00A8115B
:020DDE00100003
:020DDF00207082
:020DE000A180F0
:020DE1002FE001
:020DE200A180EE
:020DE3002540A9
:020DE400E0022B
:020DE500F521F6
:020DE6000F0DEF
:020DE700F0D149
:020DE8000D03F9
:020DE900E131F6
:020DEA001000F7
:020DEB00207076
:020DEC00A180E4
:020DED002FE0F5
:020DEE00A180E2
:020DEF0025409D
:020DF000E0021F
:020DF100F020F0
:020DF200E0130C
:020DF300F530D9
:020DF4001000ED
:020DF50020706C
:020DF600A180DA
:020DF7002FE0EB
:020DF800A180D8
:020DF900254093
:020DFA00E00215
:020DFB00F021E5
:020DFC0004F001
:020DFD00E01301
:020DFE00F730CC
:020DFF00A81139
:020E00001000E0
:020E010020705F
:020E0200A180CD
:020E03002FE0DE
:020E0400A180CB
:020E0500254086
:020E0600E00208
:020E0700F521D3
:020E08001000D8
:020E0900207057
:020E0A00A180C5
:020E0B002FE0D6
:020E0C00A180C3
:020E0D0025407E
:020E0E00E003FF
:020E0F00F031C0
:020E100004B02C
:020E1100E012ED
:020E1200F720C7
:020E1300A81124
:020E14001000CC
:020E150020704B
:020E1600A180B9
:020E17002FE0CA
:020E1800A180B7
:020E1900254072
:020E1A00E003F3
:020E1B00F531AF
:020E1C000F0DB8
:020E1D00F0D013
:020E1E000D01C4
:020E1F00E110E0
:020E2000E002EE
:020E2100F020BF
:020E2200E001ED
:020E23001000BD
:020E240020208C
:020E2500A180AA
:020E260020406A
:020E2700A180A8
:020E2800224066
:020E2900EE00D9
:020E2A001001B5
:020E2B00207134
:020E2C00A181A2
:020E2D002FC1D3
:020E2E00A181A0
:020E2F0023811D
:020E3000005070
:020E3100E013CC
:020E3200F53099
:020E33001001AC
:020E340020712B
:020E3500A18199
:020E36002FE1AA
:020E3700A18197
:020E3800250192
:020E39001000A7
:020E3A00207026
:020E3B00A18094
:020E3C002FC0C5
:020E3D00A18092
:020E3E0024C0CE
:020E3F00E012BF
:020E4000F5209B
:020E410010009F
:020E420020701E
:020E4300A1808C
:020E44002FE09D
:020E4500A1808A
:020E4600250085
:020E4700E003C6
:020E4800F03088
:020E4900E001C6
:020E4A00F412A0
:020E4B00E001C4
:020E4C00A811EB
:020E4D00100093
:020E4E00207012
:020E4F00A18080
:020E50002FE091
:020E5100A1807E
:020E5200250079
:020E5300E003BA
:020E5400F53176
:020E5500E0219A
:020E560010008A
:020E5700202059
:020E5800A18077
:020E5900201067
:020E5A00A18075
:020E5B0027C0AE
:020E5C00EE00A6
:020E5D00100D76
:020E5E00202D45
:020E5F00A18D63
:020E6000216D02
:020E6100A18D61
:020E62002E5D03
:020E6300EF0D91
:020E64000F0D70
:020E6500F0D0CB
:020E66000BC1BE
:020E6700E11098
:020E68000F0D6C
:020E6900F0D2C5
:020E6A000B4338
:020E6B00E13272
:020E6C00E001A3
:020E6D00100073
:020E6E00202042
:020E6F00A18060
:020E7000206000
:020E7100A1805E
:020E72002FD07F
:020E7300EE008F
:020E7400B800C4
:020E75009D10CE
:020E76000F0D5E
:020E7700F0D0B9
:020E78000BC1AC
:020E7900E11086
:020E7A00E00294
:020E7B00F02362
:020E7C0003422F
:020E7D001FF262
:020E7E000F0D56
:020E7F00F0DDA4
:020E8000E1D2BD
:020E8100F52357
:020E820003412A
:020E83001FF15D
:020E84000F0D50
:020E8500F0DD9E
:020E8600E1D1B8
:020E8700F01168
:020E8800F41064
:020E8900000364
:020E8A000382E1
:020E8B001FF254
:020E8C000F0D48
:020E8D00F0DD96
:020E8E00E1D2AF
:020E8F00F72347
:020E90000181DE
:020E9100A010AF
:020E92000182DB
:020E9300A2209B
:020E9400BAC0E2
:020E95008C08C7
:020E960000104A
:020E97000383D3
:020E98001FF346
:020E99000F0D3B
:020E9A00F0DD89
:020E9B00E1D3A1
:020E9C00F7302D
:020E9D0003420E
:020E9E001FF241
:020E9F000F0D35
:020EA000F0DD83
:020EA100E1D29C
:020EA200F0213D
:020EA300A81194
:020EA4000F0D30
:020EA500F0D08B
:020EA6000BC37C
:020EA700E13038
:020EA800E00266
:020EA900F52131
:020EAA00001036
:020EAB000383BF
:020EAC001FF332
:020EAD000F0D27
:020EAE00F0DD75
:020EAF00E1D38D
:020EB000F0331D
:020EB100E73028
:020EB2000181BC
:020EB300A0108D
:020EB4000182B9
:020EB500A22079
:020EB600B80082
:020EB7008CCEDF
:020EB8000F0D1C
:020EB900F0D077
:020EBA000BC368
:020EBB00E13024
:020EBC000F0D18
:020EBD00F0D271
:020EBE000B0126
:020EBF00E1123E
:020EC000E0014F
:020EC10010001F
:020EC2002020EE
:020EC300A1800C
:020EC4002060AC
:020EC500A1800A
:020EC6002FD02B
:020EC700EE003B
:020EC800B80070
:020EC9009CBCCF
:020ECA00100016
:020ECB00207095
:020ECC00A18003
:020ECD002FE014
:020ECE00A18001
:020ECF002540BC
:020ED000E0023E
:020ED100F0210E
:020ED2000240DC
:020ED300E0132A
:020ED400F730F5
:020ED500A81162
:020ED60010000A
:020ED700207089
:020ED800A180F7
:020ED9002FE008
:020EDA00A180F5
:020EDB002540B0
:020EDC00E00232
:020EDD00F521FD
:020EDE000F0DF6
:020EDF00F0D150
:020EE000AA4125
:020EE1001000FF
:020EE20020707E
:020EE300A180EC
:020EE4002FE0FD
:020EE500A180EA
:020EE6002540A5
:020EE700E00326
:020EE800F030E8
:020EE900E01215
:020EEA00F520F1
:020EEB000F0DE9
:020EEC00F0D044
:020EED000B43B5
:020EEE00E130F1
:020EEF00E00120
:020EF000F01000
:020EF100BF0040
:020EF2008C3240
:020EF3000F0DE1
:020EF400F0D03C
:020EF5000B02EE
:020EF600E120F9
:020EF700E00316
:020EF800F030D8
:020EF900004DAA
:020EFA00B4D072
:020EFB009C2930
:020EFC001000E4
:020EFD00207063
:020EFE00A180D1
:020EFF002FE0E2
:020F0000A180CE
:020F0100254089
:020F0200E0010C
:020F0300F010EC
:020F0400E00209
:020F05000F0DCE
:020F0600F0D029
:020F07000B03DA
:020F0800E130D6
:020F0900E00105
:020F0A00F010E5
:020F0B00E00301
:020F0C001000D3
:020F0D00207052
:020F0E00A180C0
:020F0F002FF0C1
:020F1000A180BE
:020F11002BC0F3
:020F1200E001FC
:020F13001000CC
:020F140020209B
:020F1500A180B9
:020F16002010A9
:020F1700A180B7
:020F18002CC0EB
:020F1900EE00E8
:020F1A00E001F4
:020F1B001000C4
:020F1C00207043
:020F1D00A180B1
:020F1E002FE0C2
:020F1F00A180AF
:020F200025406A
:020F2100E002EC
:020F2200F521B7
:020F2300ACBF61
:020F24000F0DAF
:020F2500F0D00A
:020F26000B437B
:020F2700E130B7
:020F2800E001E6
:020F2900F010C6
:020F2A00BF40C6
:020F2B008C3206
:020F2C000F0DA7
:020F2D00F0D002
:020F2E000B02B4
:020F2F00E120BF
:020F3000E003DC
:020F3100F0309E
:020F3200004D70
:020F3300B4D038
:020F34009C29F6
:020F35001000AA
:020F3600207029
:020F3700A18097
:020F38002FE0A8
:020F3900A18095
:020F3A00254050
:020F3B00E001D3
:020F3C00F010B3
:020F3D00E002D0
:020F3E000F0D95
:020F3F00F0D0F0
:020F40000B03A1
:020F4100E1309D
:020F4200E001CC
:020F4300F010AC
:020F4400E003C8
:020F450010009A
:020F4600207019
:020F4700A18087
:020F48002FF088
:020F4900A18085
:020F4A002B80FA
:020F4B00E001C3
:020F4C00100093
:020F4D00202062
:020F4E00A18080
:020F4F00201070
:020F5000A1807E
:020F51002CC0B2
:020F5200EE00AF
:020F5300E001BB
:020F540010008B
:020F550020700A
:020F5600A18078
:020F57002FE089
:020F5800A18076
:020F5900254031
:020F5A00E002B3
:020F5B00F5217E
:020F5C00AC8661
:020F5D000F0D76
:020F5E00F0D0D1
:020F5F000B4342
:020F6000E1307E
:020F6100E001AD
:020F6200F0108D
:020F6300E001AB
:020F640010007B
:020F65002070FA
:020F6600A18068
:020F67002FE079
:020F6800A18066
:020F6900254021
:020F6A00E002A3
:020F6B00F02074
:020F6C00E002A1
:020F6D000F0D66
:020F6E00F0D0C1
:020F6F000B0372
:020F7000E1306E
:020F7100E0039B
:020F7200F0305D
:020F7300E00399
:020F740010006B
:020F750020203A
:020F7600A18058
:020F7700201048
:020F7800A18056
:020F79002CC08A
:020F7A00EE0087
:020F7B00E00193
:020F7C00100063
:020F7D002070E2
:020F7E00A18050
:020F7F002FE061
:020F8000A1804E
:020F8100254009
:020F8200E0028B
:020F8300F52156
:020F8400AC5E61
:020F850010005A
:020F86002070D9
:020F8700A18047
:020F88002FE058
:020F8900A18045
:020F8A00254000
:020F8B00E00381
:020F8C00F03142
:020F8D00024020
:020F8E00E0126F
:020F8F00F72049
:020F9000A811A6
:020F910010004E
:020F92002070CD
:020F9300A1803B
:020F94002FE04C
:020F9500A18039
:020F96002540F4
:020F9700E00375
:020F9800F53131
:020F99000F0D3A
:020F9A00F0D194
:020F9B00AA4169
:020F9C00100043
:020F9D002070C2
:020F9E00A18030
:020F9F002FE041
