:10000000650A030A1A0A0E0269008D0003060B0A2C
:100010000D022800170A6800080C2F006D03680302
:100020000E028800030628006903EF020E0AA304EB
:10003000C3046E0A0D02280028024306440A010C7C
:1000400088004306470A020C880043064A0A030C4C
:10005000880043064D0A040C88004306500A050C2C
:1000600088004306530A060C88004306560A070C0C
:1000700088004306590A080C880043065C0A090CEC
:10008000880043065F0A620A300C3F00620A310CA6
:100090003F00620A320C3F00620A330C3F00620AE2
:1000A000340C3F00620A350C3F00620A360C3F00F8
:1000B000620A370C3F00620A380C3F00620A390CB2
:1000C0003F00620AA304C304730A64006B006C005F
:1000D000AB020B022D000A0C2E00010A08022B00B5
:0A00E0000B022D00020A680A03005B
:020FFE00000AE7
:00000001FF
;PIC16C57
