:02000000014BB2
:0100030032CA
:02000B000832B9
:0100130032BA
:02001B000932A8
:1000230032E58C9B701D0AE58A9C70170AE89D7067
:100033001222E58D9B700C0AE58B9C70060AE99DE4
:100043007001228A80000146E4F8F975A88AC37515
:100053008904758C00758A00758810B2B5B2B5B283
:10006300B5B2B5B2B5B2B5C28C7A107B007C037D54
:10007300001124758A1CD28CB2B5B2B5B2B5B2B533
:10008300B2B5B2B5B2B5B2B5C28C7A207B017C00F1
:100093007D001124758A1C758CFFD28CB2B5B2B564
:1000A300B2B5B2B5B2B5B2B5B2B5B2B5B2B5B2B515
:1000B300C28C7A307B007C017D0111247589057522
:1000C3008C00758A00D28CB2B5B2B5B2B5B2B5B2F6
:1000D300B5B2B5B2B5B2B5C28C7A407B007C047DB3
:1000E300011124758AFCD28CB2B5B2B5B2B5B2B5E2
:1000F300B2B5B2B5B2B5B2B5B2B5B2B5C28C7A507B
:100103007B017C017D011124758AFC758CFFD28CE7
:10011300B2B5B2B5B2B5B2B5B2B5B2B5B2B5B2B5A4
:10012300B2B5B2B5B2B5B2B5C28C7A607B007C020F
:100133007D021124758906758C00758A05D28CB2EF
:10014300B5B2B5B2B5B2B5B2B5B2B5B2B5B2B5C264
:100153008C7A707B007C097D021124758AFC758C76
:1001630050D28CB2B5B2B5B2B5B2B5B2B5B2B5B2C2
:10017300B5B2B5B2B5B2B5C28C7A807B507C517D35
:10018300031124758907758C00758A00D28CB2B56A
:10019300B2B5B2B5B2B5B2B5B2B5B2B5B2B5C28C3D
:1001A3007A907B007C047D031124758AFC758C0096
:1001B300D28CB2B5B2B5B2B5B2B5B2B5B2B5B2B50D
:1001C300B2B5B2B5B2B5B2B5B2B5C28C7AA07B0046
:1001D3007C027D041124758A00758C00D28E000088
:1001E30000C28E7AB07B047C007D041124758A00E2
:1001F300758CFCD28E0000000000C28E7AC07B0298
:100203007C007D01A8011124758001790075894066
:10021300758D00758B00758840B2B6B2B6B2B6B2B2
:10022300B6B2B6B2B6B2B6B2B6C28E7A187B007C9C
:10023300047D001135758B1CD28EB2B6B2B6B2B640
:10024300B2B6B2B6B2B6B2B6B2B6B2B6B2B6C28E83
:100253007A287B017C017D001135758B1C758DFF20
:10026300D28EB2B6B2B6B2B6B2B6B2B6B2B6B2B653
:10027300B2B6B2B6B2B6B2B6B2B6C28E7A387B00F6
:100283007C027D011135758950758D00758B00D207
:100293008EB2B6B2B6B2B6B2B6B2B6B2B6B2B6B243
:1002A300B6C28E7A487B007C047D011135758BFCC8
:1002B300D28EB2B6B2B6B2B6B2B6B2B6B2B6B2B603
:1002C300B2B6B2B6B2B6C28E7A587B017C017D015A
:1002D3001135758BFC758DFFD28EB2B6B2B6B2B640
:1002E300B2B6B2B6B2B6B2B6B2B6B2B6B2B6B2B6CB
:1002F300B2B6C28E7A687B007C027D0211357589A5
:1003030060758D00758B05D28EB2B6B2B6B2B6B239
:10031300B6B2B6B2B6B2B6B2B6C28E7A787B007C4B
:10032300097D021135758BFC758D50D28EB2B6B234
:10033300B6B2B6B2B6B2B6B2B6B2B6B2B6B2B6B27A
:10034300B6C28E7A887B507C517D031135758970D6
:10035300758D00758B00D28EB2B6B2B6B2B6B2B698
:10036300B2B6B2B6B2B6B2B6C28E7A987B007C0091
:100373007D031135758BFC758DFFD28EB2B6B2B687
:10038300B2B6B2B6B2B6B2B6B2B6B2B6B2B6B2B62A
:10039300B2B6B2B6C28E7AA87BFF7CFC7D03113560
:0303A30075800260
:00000001FF
