:100003008B128A1389148D1574011200FBAB12AA8B
:1000130013A914F58275830012010D751602AD162E
:10002300ED3395E0FCC3ED95157480F86C98503E64
:10003300AF16EF3395E0FEEF24FEFDEE34FFAB1277
:10004300AA13A9148D82F5831200CEFDEF24FFFFBE
:10005300EE34FF8F82F5831200CE2DFFE516FD33BC
:0F00630095E08D82F583EF12010D051680B02216
:100072008B128A1389148D15E4F516AD16ED33959E
:10008200E0FCC3ED95157480F86C985019AB12AA78
:1000920013A914AF16EF3395E08F82F5831200CEC9
:0700A200F580051680D52250
:1000A9007B007A0079087D0A1200037B007A0079C7
:0900B900087D0A12007280FE228B
:030000000200C239
:0C00C200787FE4F6D8FD7581160200A9D5
:1000CE00BB010CE58229F582E5833AF583E02250E7
:1000DE0006E92582F8E622BBFE06E92582F8E22231
:0D00EE00E58229F582E5833AF583E493224B
:1000FB00BB010689828A83F0225002F722BBFE01E4
:02010B00F322DD
:10010D00F8BB010DE58229F582E5833AF583E8F028
:10011D00225006E92582C8F622BBFE05E92582C8D4
:02012D00F222BC
:00000001FF
