:0A00C000131211100F0E0D0C0B0AA5
:100003008B128A1389148D15E4FFEFC3951550469F
:10001300AE07EEC39515503BAB12AA13A9148E82FB
:100023007583001201CFFD8F827583001201CFFC0F
:10003300D39D401C8C168E827583001201CF8F8254
:100043007583001201FC8E82758300E5161201FC94
:0A0053000E80BF0F80B4E4F5802298
:10005D008B128A1389148D15E4F516AD16ED3395B3
:10006D00E0FCC3ED95157480F86C985019AB12AA8D
:10007D0013A914AF16EF3395E08F82F5831201CFDC
:07008D00F580051680D52265
:1000940078087C007D007BFF7A0079C07E007F0AAF
:1000A4001201A67B007A0079087D0A1200037B0006
:0C00B4007A0079087D0A12005D80FE22AF
:030000000200CA31
:0C00CA00787FE4F6D8FD758116020094E2
:1000D600E709F608DFFA8046E709F208DFFA803E0C
:1000E60088828C83E709F0A3DFFA8032E309F608F9
:1000F600DFFA8078E309F208DFFA807088828C8361
:10010600E309F0A3DFFA806489828A83E0A3F60814
:10011600DFFA805889828A83E0A3F208DFFA804CEE
:1001260080D280FA80C680D4806980F280338010C5
:1001360080A680EA809A80A880DA80E280CA80332E
:1001460089828A83ECFAE493A3C8C582C8CCC583A6
:10015600CCF0A3C8C582C8CCC583CCDFE9DEE78076
:100166000D89828A83E493A3F608DFF9ECFAA9F0F5
:10017600EDFB2289828A83ECFAE0A3C8C582C8CC4B
:10018600C583CCF0A3C8C582C8CCC583CCDFEADE64
:10019600E880DB89828A83E493A3F208DFF980CCC6
:1001A60088F0ED2402B4040050C2F582EB2402B4B8
:1001B600040050B823234582F582EF4E60AEEF600F
:0901C600010EE58223900126736D
:1001CF00BB010CE58229F582E5833AF583E02250E5
:1001DF0006E92582F8E622BBFE06E92582F8E2222F
:0D01EF00E58229F582E5833AF583E4932249
:1001FC00F8BB010DE58229F582E5833AF583E8F039
:10020C00225006E92582C8F622BBFE05E92582C8E4
:02021C00F222CC
:00000001FF
