:100003007F007E007D407C40750B00750A007509FA
:1000130080750840A804A905AA06AB0712017A8FC8
:100023000F8E0E8D0D8C0C1202808F80AF0BAE0ADB
:10003300AD09AC08A804A905AA06AB0712017A8F7B
:10004300138E128D118C101202808F90AF13AE128B
:10005300AD11AC10AB0FAA0EA90DA80C1200898F1D
:10006300178E168D158C141202808FA0AF17AE1643
:0F007300AD15AC141203AE1202808FB080FE22C6
:100082000202ECE86480F8E933E83360110460F0BE
:10009200ED33EC337009E8FCE9FDEAFEEBFF2204E4
:1000A20060DED3EB9FEA9EE99DE8C2E78CF0C2F7DF
:1000B20095F0400CE8CCF8E9CDF9EACEFAEBCFFBAB
:1000C2001202B785D0F05804700320D5B3E804704B
:1000D200075002B2D50202F692D5EC0460F7E4CCE6
:1000E200C0E0C398F8603B94186008400DD0E0FB74
:1000F2000202CEE4FBFAC9FC8028E830E406E4C937
:10010200FBE4CAFCE830E305E4C9CACBFCE85407C7
:100112006010F8C3E913F9EA13FAEB13FBEC13FCD2
:10012200D8F130F52FC3E49CFCEF9BFFEE9AFEED75
:1001320099FDD0E0FBEF4E4D4C701222DB03020220
:10014200F3EC2CFCEF33FFEE33FEED33FDED30E745
:10015200EB0202CEEF2BFFEE3AFEED39FDD0E0FBD3
:1001620050130BBB00030202F6ED13FDEE13FEEF7C
:0801720013FFEC13FC0202CEA6
:10017A00EC4D6011E8497017ED33EC3304600DE47F
:10018A00FCFFFEFD22E933E8330470F80202EC12A8
:10019A0002B758046009E4CC2481500628500902A9
:1001AA0002F62840030202F3C0E0EB4A7044B98029
:1001BA0006D0E0FB0202E2EF4E701CBD8008EBFFA6
:1001CA00EAFEE9FD80EBE98DF0A4FEE5F0020263A8
:1001DA00E9CDF9EAFEEBFFEF89F0A4FCE5F0CE8960
:1001EA00F0A42EFFE435F0CD89F0A42DFEE435F01D
:1001FA008067EF4E7005BD80D780C3EF8BF0A4AC4B
:10020A00F0EE8BF0A42CFCE435F0F8EF8AF0A42C85
:10021A00E5F038FCE433CB8DF0A42CFCE5F03BF898
:10022A00EE8AF0A42CFCE5F038F8E433CF89F0A488
:10023A002CFCE5F038CF3400CE89F0A42FFFE5F08E
:10024A003EFEE433C98DF0A42EFEE5F039CD8AF0E6
:10025A00A42FFFE5F03EFEE43DFD33D0E0FB50075E
:10026A000BBB000F0202F6EC2CFCEF33FFEE33FE61
:06027A00ED33FD0202CE8F
:10028000EDD2E7CD33EC3392D524814006E4FFFE76
:10029000FDFC22FCE4CFCECDCC24E0501174FF80D5
:1002A000EDC3CC13CCCD13CDCE13CECF13CF047072
:0702B000F030D5DE02039CD3
:1003AA000202EC22EDA2E7D2E7F9EC3340F260F365
:1003BA00B4FF08ED547F70E80202F6F82481C2E027
:1003CA00C0E0F40428FAC313FCED92E7FD8C188D03
:1003DA00198E1A8F1BEEA2E7E9BA7F02C313340003
:1003EA009400FA75F091A4E5F013F494FE8AF0A44F
:1003FA0033E5F033248CD313FDE492E7FE7F007CCF
:10040A003F758302ECC0E0F8EDC0E0F9EEC0E0FA17
:10041A00EFC0E0FBAC18AD19AE1AAF1B120303D044
:10042A00E0FBD0E0FAD0E0F9D0E0F8120089ED6400
:10043A0080FD30E7011CD583CBED33CC33F8D0E017
:0A044A00A2E71328C313CC13FD2210
:1002B700E9D2E7C933E833F892D5EDD2E7CD33EC8D
:0702C70033FC5002B2D52206
:1002CE00EC30E7100FBF000C0EBE00080DBD000491
:1002DE000BEB6014A2D5EB13FCED92E7FD2274FF3D
:1002EE00FCFDFEFF22E480F8A2D574FF13FC7D8096
:0202FE0080F08E
:100300000202F6EC5D046005E8590470030202EC99
:100310001202B7580460F6EC4860F2EC7004FDFE7F
:10032000FF22C82481C85007C39850060202F398E0
:1003300050CEF582E9294B4A7005AB820202E27584
:10034000F0007C1A7880C3EF9BEE9AED99400DC3C4
:10035000EF9BFFEE9AFEED99FDE842F0DC23ACF056
:10036000D0E0FFD0E0FED0E0FDAB8220E7101BEB39
:1003700060BAEC2CFCEF33FFEE33FEED33FD0202EE
:10038000CEE803F830E705C0F075F000EF2FFFEE80
:0C03900033FEED33FD40B830E7C280AA18
:03000000020454A3
:0C045400787FE4F6D8FD75811B020003E0
:0E039C00C3E49FFFE49EFEE49DFDE49CFC2272
:00000001FF
