:100000007880187600E870FA75D000740A780A28AB
:1000100094146006759002020AF07880187600E861
:1000200070FA75D000740A75640A25649414600629
:10003000759003020AF07880187600E870FA75D09F
:1000400000740A786475640A269414600675900436
:10005000020AF07880187600E870FA75D000740A09
:100060002405940F6006759005020AF078801876D2
:1000700000E870FA75D000740A780AB338941560F5
:1000800006759006020AF07880187600E870FA7516
:10009000D000740A75640AB33564941560067590CF
:1000A00007020AF07880187600E870FA75D00074BC
:1000B0000A786475640AB336941560067590080270
:1000C0000AF07880187600E870FA75D000740AB3E8
:1000D000340594106006759009020AF0788018764D
:1000E00000E870FA75D00001EF75900A020AF07806
:1000F00080187600E870FA75D00078FF74AA5894DA
:10010000AA600675900B020AF07880187600E870F5
:10011000FA75D000757F0074FF557F600675900CEE
:10012000020AF07880187600E870FA75D000787FBF
:10013000757F0174FE56600675900D020AF0788096
:10014000187600E870FA75D00074FF54FF94FF60D1
:100150000675900E020AF07880187600E870FA753D
:10016000D0007532FF74005232E532600675900F90
:10017000020AF07880187600E870FA75D0007519D8
:10018000805319FFE51994806006759010020AF0FB
:100190007880187600E870FA75D0007480B382E732
:1001A000947F6006759011020AF07880187600E856
:1001B00070FA75D0007480B3B0E7948060067590D3
:1001C00012020AF07880187600E870FA75D0007490
:1001D00080756480B56405747FB5640675901302FC
:1001E0000AF04006759013020AF07880187600E84D
:1001F00070FA75D0007480B48005747FB480067581
:100200009014020AF04006759014020AF0788018E3
:100210007600E870FA75D0007980B98005797FB9E9
:100220008006759015020AF04006759015020AF0D6
:100230007880187600E870FA75D00079647564806B
:10024000B7800675647FB78006759016020AF04085
:1002500006759016020AF07880187600E870FA7534
:10026000D0007480E46006759017020AF078801858
:100270007600E870FA75D000B3C350067590180286
:100280000AF07880187600E870FA75D0007440C2E1
:10029000E66006759019020AF07880187600E8701A
:1002A000FA75D00074FFF4600675901A020AF078AF
:1002B00080187600E870FA75D000B3400675901B80
:1002C000020AF07880187600E870FA75D000742081
:1002D000B2E5600675901C020AF07880187600E896
:1002E00070FA75D00074802499D494786006759063
:1002F0001D020AF07880187600E870FA75D0007454
:100300000A149409600675901E020AF07880187627
:1003100000E870FA75D000780A18E894096006754C
:10032000901F020AF07880187600E870FA75D00005
:10033000757F0A157FE57F94096006759020020A93
:10034000F07880187600E870FA75D000787F757FB5
:100350000A16E694096006759021020AF078801862
:100360007600E870FA75D00074FB75F01284940D75
:0E0370006003759022E5F094116006759022EE
:10037E00020AF07880187600E870FA75D000780AD4
:10038E00D806759023020AF07801D80261A2759002
:10039E0023020AF07880187600E870FA75D000759E
:1003AE007F0AD57F06759024020AF0757F01D57FEE
:1003BE000261C7759024020AF07880187600E87002
:1003CE00FA75D000740A04940B6006759025020A23
:1003DE00F07880187600E870FA75D000780A08E890
:1003EE00940B6006759026020AF07880187600E865
:1003FE0070FA75D000757F0A057FE57F940B600655
:10040E00759027020AF07880187600E870FA75D099
:10041E0000757F0A787F06E6940B600675902802B9
:10042E000AF07880187600E870FA75D0009012FF06
:10043E00A3E58394136006759029020AF0E58260A5
:10044E0006759029020AF07880187600E870FA7521
:10045E00D000741020E40675902A020AF0788018F5
:10046E007600E870FA75D000740810E30675902BCC
:10047E00020AF0600675902B020AF078801876005A
:10048E00E870FA75D0004003B3400675902C020A4E
:10049E00F07880187600E870FA75D0007404900435
:1004AE00B07381B881B881BE81B875902B020AF005
:1004BE007880187600E870FA75D000740430E20384
:1004CE0030E10675902E020AF07880187600E870FA
:1004DE00FA75D000B35003B3500675902F020AF090
:1004EE007880187600E870FA75D000700474017088
:1004FE0006759030020AF07880187600E870FA756A
:10050E00D0007402600474006006759031020AF027
:10051E007880187600E870FA75D000020532759072
:10052E0033020AF07880187600E870FA75D00078F9
:10053E000AE8940A6006759034020AF078801876FC
:10054E0000E870FA75D000757F0AE57F940A6006A0
:10055E00759035020AF07880187600E870FA75D03A
:10056E0000787F757F0AE6940A6006759036020A57
:10057E00F07880187600E870FA75D000740A940A44
:10058E006006759037020AF07880187600E870FAE7
:10059E0075D000740AF8E4E8940A60067590380283
:1005AE000AF07880187600E870FA75D000757F0A28
:1005BE00A87FE8940A6006759039020AF0788018D0
:1005CE007600E870FA75D000780AE8940A6006752D
:1005DE00903A020AF07880187600E870FA75D0002A
:1005EE00740AF57FE4E57F940A600675903B020A73
:1005FE00F07880187600E870FA75D000780A887F57
:10060E00E57F940A600675903C020AF078801876B1
:10061E0000E870FA75D000757F0A857F7EE57E94BE
:10062E000A600675903D020AF07880187600E87030
:10063E00FA75D000757F0A787F867EE57E940A6013
:10064E000675903E020AF07880187600E870FA750A
:10065E00D000757F0AE57F940A600675903F020A06
:10066E00F07880187600E870FA75D000740A787FFA
:10067E00F6E4E57F940A6006759040020AF07880F1
:10068E00187600E870FA75D000757F0A787EA67F1E
:10069E00E57E940A6006759041020AF0788018761D
:1006AE0000E870FA75D000787F760AE57F940A60CC
:1006BE0006759042020AF07880187600E870FA7596
:1006CE00D0007401A2E04006759043020AF07880D3
:1006DE00187600E870FA75D000B392E0B39401601A
:0E06EE0006759044020AF07880187600E870D5
:1006FC00FA75D000901234E58394127006E582945A
:10070C00346006759045020AF07880187600E8701F
:10071C00FA75D000900731939466700B7401939422
:10072C0077600A70026677759046020AF078801836
:10073C007600E870FA75D000740D839466700B74B3
:10074C0007839477600A70026677759047020AF007
:10075C007880187600E870FA75D000745075F0A0A7
:10076C00A47006E5F09432600675904C020AF0789D
:10077C0080187600E870FA75D00074907809489467
:10078C0099600675904E020AF07880187600E87031
:10079C00FA75D0007409757F90457F949960067541
:1007AC00904F020AF07880187600E870FA75D00045
:1007BC007490787F757F064694966006759050020B
:1007CC000AF07880187600E870FA75D0007411443D
:1007DC002294336006759051020AF07880187600E6
:1007EC00E870FA75D0007490757F09427FE4E57F5C
:1007FC0094996006759052020AF07880187600E899
:10080C0070FA75D000757F90437F09E57F949960ED
:10081C0006759053020AF07880187600E870FA7525
:10082C00D00072E0400A740172E0500472E140069C
:10083C00759054020AF07880187600E870FA75D03A
:10084C00007401A0E04008A0E15004A0E04006754F
:10085C009055020AF07880187600E870FA75D0008E
:10086C00900123757F08C082C083C07FE508942364
:10087C00700CE50994017006E50A94086006759001
:10088C0057020AF0D081D064E56494236006759019
:10089C0056020AF07880187600E870FA75D0007469
:1008AC0081239403600675905A020AF078801876BA
:1008BC0000E870FA75D0007481339401600675906D
:1008CC005B020AF07880187600E870FA75D0007434
:1008DC00810394C0600675905C020AF078801876EB
:1008EC0000E870FA75D000740313940060067590DC
:1008FC005D020AF07880187600E870FA75D000D3A3
:10090C0074019400600675905E020AF07880187687
:10091C0000E870FA75D000D2E79480600675905F9D
:10092C00020AF07880187600E870FA75D00080061C
:10093C00759060020AF07880187600E870FA75D02D
:10094C0000740A780A986006759061020AF0788043
:10095C00187600E870FA75D000740A757F0A957FD6
:10096C006006759062020AF07880187600E870FADA
:10097C0075D000740A787F757F0A9660067590634F
:10098C00020AF07880187600E870FA75D000740AC4
:10099C00940A6006759064020AF07880187600E874
:1009AC0070FA75D0007423C4943260067590650299
:1009BC000AF07880187600E870FA75D000740A781E
:1009CC0063C894637005E8940A6006759066020A21
:1009DC00F07880187600E870FA75D000740A757F8C
:1009EC0063C57F94637006E57F940A600675906713
:1009FC00020AF07880187600E870FA75D000740A54
:100A0C00787F757F63C694637006E57F940A6006F1
:100A1C00759068020AF07880187600E870FA75D044
:100A2C00007444787F757F55D694457006E57F94A5
:100A3C00546006759069020AF07880187600E870A8
:100A4C00FA75D00074357853689466600675906AB0
:100A5C00020AF07880187600E870FA75D0007453AA
:0F0A6C00757F35657F9466600675906B020AF0A2
:100A7B007880187600E870FA75D0007435787F7539
:100A8B007F53669466600675906C020AF078801846
:100A9B007600E870FA75D00074356453946660067E
:100AAB0075906D020AF07880187600E870FA75D0B0
:100ABB00007435757F53627FE4E57F94666006753D
:100ACB00906E020AF07880187600E870FA75D00004
:100ADB00757F35637F53E57F9466600675906F0273
:080AEB000AF075907F80FE22E5
:00000001FF
