:02000000014BB2
:0100030032CA
:02000B000832B9
:0100130032BA
:02001B000932A8
:1000230032E58C9B701D0AE58A9C70170AE89D7067
:100033001222E58D9B700C0AE58B9C70060AE99DE4
:100043007001228A80000146E4F8F975A88AC37515
:100053008900758C00758A00758810000000C28CB9
:100063007A107B007C047D001124758A1CD28C00DD
:10007300000000C28C7A207B017C017D0011247575
:100083008A1C758CFFD28C0000000000C28C7A3071
:100093007B007C027D011124758901758C00758AB2
:1000A30000D28C000000C28C7A407B007C047D016E
:1000B3001124758AFCD28C00000000C28C7A507B1C
:1000C300017C017D011124758AFC758CFFD28C00A3
:1000D30000000000C28C7A607B007C027D02112448
:1000E300758902758C00758A05D28C000000C28C5C
:1000F3007A707B007C097D021124758AFC758C5013
:10010300D28C00000000C28C7A807B507C517D032E
:100113001124758903758C00758A00D28C00000048
:10012300C28C7A907B007C047D031124758AFC7554
:100133008C00D28C0000000000C28C7AA07B007C73
:10014300027D041124758A00758C00D28E00000094
:10015300C28E7AB07B047C007D041124758A0075FD
:100163008CFCD28E0000000000C28E7AC07B027C21
:10017300007D01A80111247580017900758900753E
:100183008D00758B00758840000000C28E7A187B45
:10019300007C047D001135758B1CD28E000000009D
:1001A300C28E7A287B017C017D001135758B1C750D
:1001B3008DFFD28E0000000000C28E7A387B007C57
:1001C300027D011135758910758D00758B00D28EF6
:1001D300000000C28E7A487B007C047D01113575D6
:1001E3008BFCD28E00000000C28E7A587B017C010A
:1001F3007D011135758BFC758DFFD28E00000000DB
:1002030000C28E7A687B007C027D021135758920DD
:10021300758D00758B05D28E000000C28E7A787BB7
:10022300007C097D021135758BFC758D50D28E00D3
:10023300000000C28E7A887B507C517D0311357596
:100243008930758D00758B00D28E000000C28E7AC6
:10025300987B007C007D031135758BFC758DFFD277
:100263008E0000000000C28E7AA87BFF7CFC7D0319
:05027300113575800249
:00000001FF
