:060000000236F602006B5F
:03000B0002006B85
:0300130002006B7D
:03001B0002006B75
:0300230002006B6D
:03002B0002006B65
:0300330002006B5D
:03003B0002006B55
:0300430002006B4D
:03004B0002006B45
:0300530002006B3D
:03005B0002006B35
:0300630002006B2D
:01006B003262
:0900800002006B0002006B00029B
:08008900006B0002006B000295
:08009100006B0002006B00028D
:08009900006B0002006B000285
:0800A100006B0002006B00027D
:0800A900006B0002006B000275
:0700B100006B0002006B0070
:0901000002006B0002006B00021A
:08010900006B0002006B000214
:08011100006B0002006B00020C
:08011900006B0002006B000204
:08012100006B0002006B0002FC
:08012900006B0002006B0002F4
:08013100006B0002006B0002EC
:08013900006B0002006B0002E4
:08014100006B0002006B0002DC
:08014900006B0002006B0002D4
:08015100006B0002006B0002CC
:08015900006B0002006B0002C4
:08016100006B0002006B0002BC
:08016900006B0002006B0002B4
:08017100006B0002006B0002AC
:07017900006B0002006B00A7
:0801800078CAE84403600C7921
:0C01880004903A00E4F0A3D8FCD9FAD0AF
:0E01940083D082F6D8FDC082C083758200221F
:0CE0000012010002000000404705020071
:06E00C0000010102060103
:0AE012000A060002000000400100B1
:0EE01C0009023200020100C0000904000002E7
:0EE02A00FE030104070502020002000705863E
:0EE03800020002000904010000FE01010509BA
:08E046002101F401400001007A
:0CE04E0012010002000000404705020023
:06E05A00000101020601B5
:0AE060000A06000200000040010063
:0EE06A0009023200030100C000090400000298
:0EE07800FE03010407050202400000070586B2
:0EE08600024000000904010000FE010105092E
:08E094002101F401400001002C
:0CE09C00120100010000004047050300D5
:06E0A80000010102060167
:0EE0AE0009021200010100C000090400000078
:04E0BC00FE0102055A
:09E0C000092101F40140000100F6
:01E0C900074F
:02E0CA00D8E09C
:02E0CC00DEE094
:02E0CE00FEE072
:02E0D00012E15B
:02E0D20034E137
:02E0D40050E119
:02E0D60078E1EF
:06E0D8000603000009042C
:0EE0DE0020034D006900630072006F004C00CB
:0EE0EC006100620020004200460048002D0046
:04E0FA005400490085
:0EE0FE0014034700450043004B004F00330061
:06E10C0043004F004D002E
:0EE11200220343006F006D006D0061006E007F
:0EE120006400200026002000530074006100FF
:06E12E007400750073008F
:0EE134001C0355005300420054004D004300F0
:0EE14200200055005300420034003800380021
:0EE1500028034700450043004B004F003300FA
:0EE15E0043004F004D002000460057002000F7
:0CE16C00550050004400410054004500E4
:02E17800120390
:0EE17A0033002E003100340031003500390032
:02E18800330062
:0A01A200AA82AB09903A00EBF0AB23
:0701AC0008903A01EBF07529
:0301B3006D007567
:0301B6006E3A7529
:0C01B9006F028A82C002122DFFE582D086
:0601C500027003F5822226
:0401CB00850A6D85AF
:0301CF000B6E852F
:0501D2000C6F8A82029F
:0201D7002D3FBA
:0A01D900AA82C374FF950D743F95D0
:0701E3000E5004758200229A
:0701EA00E511700302029F02
:0A01F100AB117C00EB250DFBEC3593
:0801FB000EFC74C0550DFDAEB1
:0C0203000E74402DFDE43EFEC3ED9BEEAA
:0C020F009C500E743F550DFB7C007440A9
:05021B00C39BFB800CF9
:0A02200074C025114004AB118002E8
:02022A007B4017
:08022C00AC0E903A02ECF0ACBC
:0A0234000D7D00903A03ECF07C0011
:0C023E00C3EC9B501E74022C2402FDE453
:0A024A00343AFEEC250FF582E4358E
:0C02540010F583E0FF8D828E83F00C809B
:01026000DDC0
:04026100756D027540
:060265006E3A74022BF555
:0C026B006F8A82C002C003122DFFE582E2
:09027700D003D0027003F58222CD
:0A028000E511C39BF5117C00EB258E
:05028A000DF50DEC353F
:09028F000EF50E900008C00212E9
:07029800369DD0020201EACD
:04029F007582012241
:0E02A300903A44E4F0903A45F0A3F0A3F0A3A3
:0E02B100F0903A49E4F0903A4AF0A3F0A3F03E
:0E02BF00A3F0903A4EE4F0A3F0A3F0A3F07584
:0602CD001201751301751A
:0602D30014807515007592
:0602D9001600751700225B
:0E02DF00AA82AB83ACF01236DAFD74012AFE5F
:0E02ED00E43BFF8C008E828F8388F01236DA9D
:0902FB00FE5D6005430520800250
:020304007D007A
:0E0306008A828B838CF0ED12354B74022AFF35
:0E031400E43BF88C018F82888389F01236DA80
:0E032200FD74032AFAE43BFB8A828B838CF085
:0E0330001236DAFE74BF5DFAFD74BF5E5A60CD
:0E033E000D4305408F82888389F0ED12354B08
:03034C008D82227D
:0D034F0090E6B8E0FA530280BA8002800305
:03035C0002068511
:0A035F0090E6B9E0FABA0102804509
:06036900BA0203020424A5
:06036F00BA030302048F33
:06037500BA04030204F6C5
:06037B00BA050302056152
:06038100BA06030205C6E6
:06038700BA07030205E1C4
:06038D00BA400302062F36
:06039300BA800302064BD4
:06039900BAA00302069C5D
:06039F00BAA10302067979
:0603A500BAA20302067D6E
:0303AB00020681C6
:0903AE007401B51B0B75120175F9
:0703B7001301121D4D8049E6
:0E03BE00903A44E0FA90E6BAE0FBEAB5033864
:0A03CC0075120175130190E6047428
:0E03D60080F00090E6047482F00090E6497416
:0E03E40082F00090E6497482F00090E64974C1
:0E03F20082F00090E6497482F00090E604E488
:04040000F000800385
:03040400751281ED
:0C04070090E740E512F0903A44E0FA90D3
:0E041300E741F090E68AE4F090E68B7402F088
:0304210002069C34
:0A04240075120190E740E512F09018
:0D042E00E741E4F090E742F090E743F090E2
:0E043B003A4AE0FAA3E0A3E0A3E090E744EA27
:0E044900F0903A4AE0A3E0FBA3E0A3E08B02B0
:0E04570090E745EAF0903A4AE0A3E0A3E0FC0B
:0E046500A3E08C0290E746EAF0903A4AE0A34A
:0E047300E0FBA3E0FCA3E0FDFA90E747EAF00F
:0E04810090E68AE4F090E68B7408F002069C88
:09048F007401B51B2675120175FC
:0C0498001301121D4D90E6047480F0006A
:0E04A40090E6047486F00090E6487486F0003E
:0804B20090E604E4F000801F55
:0E04BA00903A44E0FA90E6BAE0FBEAB5030E91
:0904C80075120175130174EF5562
:0504D10016F516800382
:0304D6007512811B
:0C04D90090E740E512F090E6BAE0FA90DF
:0E04E500E741F090E68AE4F090E68B7402F0B6
:0304F30002069C62
:0A04F60075120190E740E512F09046
:0D050000E741E4F090E742F090E743F0900F
:0E050D003A4EE0FAA3E0A3E0A3E090E744EA50
:0E051B00F0903A4EE0A3E0FBA3E0A3E08B02D9
:0E05290090E745EAF0903A4EE0A3E0A3E0FC34
:0E053700A3E08C0290E746EAF0903A4EE0A373
:0E054500E0FBA3E0FCA3E0FDFA90E747EAF03C
:0E05530090E68AE4F090E68B7408F002069CB5
:0905610075120175130174EF55C8
:06056A0016F5167401B540
:060570001B09121DB67507
:050576001B001211ED55
:0E057B0090E6047480F00090E6047482F000B4
:0E05890090E6047486F00090E6497482F0005B
:0E05970090E6497482F00090E6497482F0000C
:0E05A50090E6497482F00090E604E4F00090C5
:0B05B300E740E512F090E68AE4F090CB
:0805BE00E68B7401F002069CBB
:0A05C60075120190E740E512F09075
:0E05D000E741E4F090E68AF090E68B7402F0CA
:0305DE0002069C76
:0605E100751201751900FE
:0A05E70074E825194034E51924409A
:0A05F100FBE434E7FC7D297E37E5CA
:0C05FB001975F004A42DF582EE35F0F522
:0E06070083E493FDA3E493FEA3E493FFA3E436
:0C06150093FA8B828C83EDF0051980C6EF
:0E06210090E68AE4F090E68B7418F002069CD6
:0C062F00758206121F2375120190E7402F
:0C063B00E512F090E68AE4F090E68B7483
:0406470001F08051ED
:0A064B0075120190E740E512F090EF
:0E065500E6BAE090E741F090001475F0401214
:0E06630002DFAA8290E742EAF090E68AE4F015
:0806710090E68B7403F0802376
:040679007582002264
:04067D007582002260
:04068100758200225C
:0D06850090E6B8E0FA20E70B90E6B9E075CA
:06069200128075820022B7
:040698007582002245
:04069C007582012240
:0E37290001000001040000000000000000018B
:0A3737000000000000000000000088
:0C06A000AA8275F00AEA8485F070EAC3B3
:0C06AC00957075F00A84FA75F00A84E578
:0906B800F0FC7028AD6DAE6EAFD0
:0A06C1006F74302570F88D828E836F
:0A06CB008FF012354B0DBD00010E3B
:0E06D5008D828E838FF0740A12354B7582026F
:0106E30022F4
:0E06E400EAC39C75F00A8475F00A84E5F0FA0A
:0706F2007043AD6DAE6EAF69
:0B06F9006F74302C8D828E838FF01206
:0A070400354B74012DF571E43EF54C
:06070E00728F73743025A8
:05071400708571828573
:0607190072838573F012EB
:0E071F00354B74022DFDE43EFE8D828E838FDD
:0A072D00F0740A12354B75820322A6
:05073700AB6DAD6EAEDC
:0B073C006F74302A8B828D838EF012C8
:0E074700354B74012BFAE43DFF8E0074302C0C
:0E0755008A828F8388F012354B74022BFAE4EF
:0C0763003DFC8E07743025708A828C8368
:0E076F008FF012354B74032BFBE43DFD8B82A3
:0D077D008D838EF0740A12354B75820422B4
:08078A0085826D85836E85F008
:050792006F7D007E00F8
:03079700BE04009D
:0A079A005043EE256DFFE4356EFAC2
:0C07A400AB6F8F828A838BF01236DAFA7A
:0307B000BA30005C
:0E07B3004012EA24C6400DED75F00AA4FBEAE0
:0607C10024D02BFD801581
:0507C700BA0A028003E4
:0307CC00EA7003CD
:0307CF008D8222F6
:0A07D20074104514F514758200221E
:0307DC000E80B8D4
:0A07DF0074104514F5147582002211
:0807E90085827085837185F0A3
:0407F10072AD6DAECA
:0A07F5006EAF6F8D828E838FF012BD
:0A07FF0036DAF824FEF574C313F592
:04080900747573008F
:08080D00C3E57395745037E553
:07081500732573F80808E5E4
:04081C00732570F5DB
:0508200075E43571F5DF
:0308250076857263
:0C08280077E82DF8E43EF98F0288828901
:0B083400838AF01236DAF885758285A1
:06083F0076838577F012BC
:06084500354B057380C273
:09084B00A9737A0009B900010A41
:09085400E92570F9EA3571FAABEF
:0C085D007289828A838BF0E412354BE52F
:06086900732570FAE4356E
:0A086F0071FBAC728A828B838CF05F
:01087900225C
:07087A008582288583298592
:03088100223D8590
:03088400233E858B
:03088700243F8586
:06088A003D82853E8385DE
:060890003FF01236DAF51C
:060896002BA31236DAF577
:06089C002CA31236DAF570
:0308A2002D752E83
:0308A50052752F5A
:0508A8003A75300085E7
:0308AD0025378567
:0308B00026388562
:0308B3002739855D
:0508B60037317401253B
:0408BB0038F5328555
:0308BF0039338545
:0308C200313A8543
:0308C500323B853E
:0308C800333C8539
:0308CB003734853A
:0308CE0038358535
:0308D10039368530
:0A08D4002882852983E0FAA3E0FBE7
:0708DE00EA252BF52BEB3599
:0408E5002CF52CAA18
:0408E9002BAB2CAF5A
:0408ED002D752A003B
:0908F10074F4252A4057E52A247D
:0A08FA0052FDE4343AFE8A828B833B
:0E0904008FF01236DAF582C002C003C005C0C3
:0E09120006C0071236AEE582D007D006D0052B
:0D092000D003D002600F8A828B838FF0120B
:08092D0036DAFC430420800AC5
:0A0935008A828B838FF01236DAFC01
:0B093F008D828E83ECF00ABA00010BE1
:04094A00052A80A357
:07094E00852E82852F8385B1
:0B09550030F01236DAFABA2A028003F2
:03096000020DB7CE
:0A09630090374175F080122AD47419
:08096D0048C0E07437C0E0123D
:0A097500356415811581052EE4B5E7
:04097F002E02052F10
:04098300852E6D85CB
:030987002F6E854B
:03098A00306F7556
:06098D007003E4F5719017
:0E099300374A75F080122B9CE5828583F04573
:0809A100F0700BF514F516755A
:0609A9001301758201221A
:0409AF00852E6D859F
:0309B3002F6E851F
:0309B600306F752A
:0609B9007003E4F57190EB
:0E09BF00374E75F080122B9CE5828583F04543
:0609CD00F06003020A5372
:0809D3007403252EF52EE43516
:0409DB002FF52F8540
:0609DF002E82852F8385A6
:0C09E50030F01236DAFABA201F74012537
:0709F1002EFAE4352FFBACE8
:0C09F800308A828B838CF012078AE58223
:090A0400F515751301758201223C
:070A0D00852E82852F8385F1
:0A0A140030F01236DAFABA3F3285EC
:040A1E001582853484
:030A22006D8535AA
:030A25006E8536A5
:090A28006F1206A0AA827B008572
:060A31003A82853B83853B
:090A37003CF0EA12354BA3EB126E
:070A4000354B74104516F55B
:080A47001675130175820122EE
:040A4F00758200228A
:040A5300852E6D85FA
:030A57002F6E857A
:030A5A00306F7585
:060A5D007004E4F5719045
:0E0A6300375275F080122B9CE5828583F0459A
:080A7100F07035851482853711
:030A79006D853850
:030A7C006E85394B
:090A7F006F1206A0AA827B00851B
:060A8800318285328385F6
:090A8E0033F0EA12354BA3EB1220
:070A9700354B74104516F504
:050A9E0016751400753F
:060AA3001301758201221F
:040AA900852E6D85A4
:030AAD002F6E8524
:030AB000306F752F
:060AB3007004E4F57190EF
:0E0AB900375775F080122B9CE5828583F0453F
:060AC700F06003020BE8E1
:0A0ACD0090374175F080122AD474AE
:080AD7005CC0E07437C0E012BE
:0E0ADF0035641581158190E05CE075F002A48D
:0A0AED0024CAF58274E035F0F583A9
:0A0AF700E0FAA3E0FB8A6D8B6E7538
:060B01006F0085378285BC
:060B070038838539F0126D
:0E0B0D0007E9ACF0742C12354BA3AA82AB831F
:0C0B1B0090E05DE075F002A424CAF582B1
:0C0B270074E035F0F583E0FDA3E0FE8DE6
:040B33006D8E6E75E0
:0C0B37006F008A828B838CF01207E9ACFF
:0E0B4300F0742C12354BA3AA82AB8390E05EB7
:0A0B5100E075F002A424CAF58274D6
:0B0B5B00E035F0F583E0FDA3E0FE8D27
:040B66006D8E6E75AD
:0C0B6A006F008A828B838CF01207E9AACE
:040B760025AB26ACD9
:030B7A0027756D6F
:030B7D0061756E31
:0A0B800037756F808A828B838CF03A
:060B8A00122E78AA25AB33
:040B900026AC2775F3
:030B94006D637519
:030B97006E377541
:0C0B9A006F808A828B838CF0122E78AA68
:040BA60025AB26ACA9
:0C0BAA00278A0574012BFE8C078A828BC1
:0E0BB600838CF0C005C006C0071236C2AA82AA
:0E0BC400AB83D007D006D0058D828E838FF0D4
:0A0BD200EA12354BA3EB12354B7508
:070BDC00130174104516F52A
:050BE3001675820122DD
:040BE800852E6D8564
:030BEC002F6E85E4
:030BEF00306F75EF
:060BF2007003E4F57190B0
:0E0BF800376975F080122B9CE5828583F045ED
:0A0C0600F070537403252EF52EE460
:050C1000352FF52F85D2
:060C15002E82852F83856D
:0A0C1B0030F01236DAFABA3F2E85E7
:060C25003782853883854B
:080C2B0039F0743112354B85DC
:060C330031828532838549
:0A0C390033F0740112354BA3E412EE
:080C4300354B751301741045D7
:070C4B0016F5167582012267
:0A0C52007518017513017582012267
:040C5C00852E6D85EF
:030C60002F6E856F
:030C6300306F757A
:060C66007003E4F571903B
:0E0C6C00376D75F080122B9CE5828583F04574
:0A0C7A00F0701A7403253DFAE4350A
:0A0C84003EFBAC3F8A828B838CF0AC
:090C8E00740112354B758201223C
:040C9700852E6D85B4
:030C9B002F6E8534
:030C9E00306F753F
:060CA1007003E4F5719000
:0E0CA700377175F080122B9CE5828583F04535
:060CB500F06003020D35A2
:080CBB007403252EF52EE4352B
:040CC3002FF52F8555
:060CC7002E82852F8385BB
:0C0CCD0030F01236DAFABA201F7401254C
:070CD9002EFAE4352FFBACFD
:0C0CE000308A828B838CF012078AE58238
:090CEC00F5177513017582012250
:070CF500852E82852F838507
:0A0CFC0030F01236DAFABA3F2C8508
:040D06001782853794
:030D0A006D8538BC
:030D0D006E8539B7
:090D10006F1206A0AA827B008587
:060D190031828532838562
:090D1F0033F0EA12354BA3EB128C
:090D2800354B751301758201229F
:040D310075820022A5
:040D3500852E6D8515
:030D39002F6E8595
:030D3C00306F75A0
:060D3F007004E4F5719060
:0E0D4500377575F080122B9CE5828583F04592
:0D0D5300F0703890001475F0401202DF853A
:030D6000376D8567
:030D6300386E8562
:030D6600396F12D0
:0A0D690006A0AA827B008531828576
:070D730032838533F0EA1220
:080D7A00354BA3EB12354B755C
:070D8200130174104516F582
:050D8900167582012235
:040D8E00852E6D85BC
:030D92002F6E853C
:030D9500306F7547
:060D98007003E4F5719008
:0E0D9E00377A75F080122B9CE5828583F04534
:070DAC00F0700475820122C2
:040DB3007582002223
:040DB700852E6D8593
:030DBB002F6E8513
:030DBE00306F751E
:060DC1007005E4F57190DD
:0E0DC700377E75F080122B9CE5828583F04507
:060DD500F06003020F1B99
:080DDB007405252EF52EE43508
:040DE3002FF52F8534
:030DE7002E6D85E9
:030DEA002F6E85E4
:030DED00306F75EF
:060DF0007004E4F57190AF
:0E0DF600378475F080122B9CE5828583F045D2
:060E0400F06003020EBBCA
:070E0A00E51430E536756DBB
:030E110089756E72
:050E140037756F8085B9
:060E190037828538838555
:060E1F0039F0122B16AAA7
:070E25002574012526FBAC3A
:0C0E2C00278A828B838CF0741612354BE1
:0A0E3800A3E412354B74DF5514F5E6
:030E4200148069B0
:070E4500E51430E436756D81
:030E4C00A0756E20
:050E4F0037756F80857E
:060E54003782853883851A
:060E5A0039F0122B16AA6C
:070E60002574012526FBACFF
:0C0E6700278A828B838CF0741812354BA4
:0A0E7300A3E412354B74EF5514F59B
:030E7D0014802EB0
:040E8000756DB9755E
:030E84006E377551
:060E87006F8085378285B3
:060E8D0038838539F012E4
:070E93002B16AA25740125AE
:0A0E9A0026FBAC278A828B838CF0C4
:0A0EA400740E12354BA3E412354B17
:080EAE0075130174104516F5DF
:050EB600167582012207
:040EBB00852E6D858E
:030EBF002F6E850E
:030EC200306F7519
:060EC5007005E4F57190D8
:0E0ECB0037C875F080122B9CE5828583F045B8
:070ED900F0703B756DCE7552
:030EE0006E3775F5
:060EE3006F808537828557
:060EE90038838539F01288
:070EEF002B16AA2574012552
:0A0EF60026FBAC278A828B838CF068
:0B0F0000740712354BA3E412354B754B
:070F0B00130174104516F5F7
:050F12001675820122AA
:040F170075820022BD
:040F1B00852E6D852D
:030F1F002F6E85AD
:030F2200306F75B8
:060F25007005E4F5719077
:0E0F2B0037D675F080122B9CE5828583F04549
:060F3900F0600302110646
:080F3F007405252EF52EE435A2
:040F47002FF52F85CE
:030F4B002E6D8583
:030F4E002F6E857E
:030F5100306F7589
:060F54007005E4F5719048
:0E0F5A0037DC75F080122B9CE5828583F04514
:0A0F6800F070377403253DFAE435FC
:0A0F72003EFBAC3F8A828B838CF0BB
:090F7C00740512354B85288285AD
:0C0F85002983E0FAA3E0FB740A2AFAE4D6
:0A0F91003BFB852882852983EAF0E6
:070F9B00A3EBF075820122B7
:040FA200852E6D85A6
:030FA6002F6E8526
:030FA900306F7531
:060FAC007005E4F57190F0
:0E0FB20037E275F080122B9CE5828583F045B6
:0A0FC000F070377403253DFAE435A4
:0A0FCA003EFBAC3F8A828B838CF063
:090FD400740312354B8528828557
:0C0FDD002983E0FAA3E0FB740A2AFAE47E
:0A0FE9003BFB852882852983EAF08E
:070FF300A3EBF0758201225F
:040FFA00852E6D854E
:030FFE002F6E85CE
:03100100306F75D8
:061004007003E4F5719099
:0E100A0037E875F080122B9CE5828583F04557
:0A101800F070377403253DFAE4354B
:0A1022003EFBAC3F8A828B838CF00A
:09102C00740212354B85288285FF
:0C1035002983E0FAA3E0FB74082AFAE427
:0A1041003BFB852882852983EAF035
:07104B00A3EBF07582012206
:04105200852E6D85F5
:031056002F6E8575
:03105900306F7580
:06105C007005E4F571903F
:0E10620037EC75F080122B9CE5828583F045FB
:0A107000F070377403253DFAE435F3
:0A107A003EFBAC3F8A828B838CF0B2
:09108400740412354B85288285A5
:0C108D002983E0FAA3E0FB740A2AFAE4CD
:0A1099003BFB852882852983EAF0DD
:0710A300A3EBF075820122AE
:0410AA00852E6D859D
:0310AE002F6E851D
:0310B100306F7528
:0610B4007004E4F57190E8
:0E10BA0037F275F080122B9CE5828583F0459D
:0A10C800F070377403253DFAE4359B
:0A10D2003EFBAC3F8A828B838CF05A
:0910DC00740612354B852882854B
:0C10E5002983E0FAA3E0FB74092AFAE476
:0A10F1003BFB852882852983EAF085
:0710FB00A3EBF07582012256
:0411020075820022D0
:04110600852E6D8540
:03110A002F6E85C0
:03110D00306F75CB
:061110007004E4F571908B
:0E11160037F775F080122B9CE5828583F0453B
:06112400F060030211E976
:08112A007404252EF52EE435B6
:041132002FF52F85E1
:031136002E6D8596
:031139002F6E8591
:03113C00306F759C
:06113F007005E4F571905B
:0E11450037FC75F080122B9CE5828583F04507
:0A115300F070377403253DFAE4350F
:0A115D003EFBAC3F8A828B838CF0CE
:09116700740912354B85288285BC
:0C1170002983E0FAA3E0FB74092AFAE4EA
:0A117C003BFB852882852983EAF0F9
:07118600A3EBF075820122CA
:04118D00852E6D85B9
:031191002F6E8539
:03119400306F7544
:061197007004E4F5719004
:0E119D00380275F080122B9CE5828583F045A8
:0A11AB00F070377403253DFAE435B7
:0A11B5003EFBAC3F8A828B838CF076
:0911BF00740812354B8528828565
:0C11C8002983E0FAA3E0FB74082AFAE493
:0A11D4003BFB852882852983EAF0A1
:0711DE00A3EBF07582012272
:0411E50075820022ED
:0411E90075820022E9
:07374100494E464F3A2000FB
:023748002A0055
:04374A00636C730039
:04374E00657365003A
:053752006573723F00E9
:0537570069646E3F00F3
:05375C0069646E0A0023
:023761002C003A
:06376300302E33390A008C
:043769006F7063001A
:04376D0072737400FF
:04377100737265000A
:053775007374623F00C7
:04377A00776169000A
:06377E00737973743A0038
:053784006572723F00B8
:0E3789002D3130302C2022436F6D6D616E6447
:09379700206572726F72220A00B3
:0E37A0002D3230302C20224578656375746917
:0B37AE006F6E206572726F72220A00BD
:0E37B900302C20224E6F206572726F72220A31
:0137C7000001
:0637C800766572733F00FC
:0837CE00313939392E300A00AF
:0637D600667067613A0015
:0637DC00636F6E66200021
:0637E200747970653F00E0
:0437E80069643F00D1
:0637EC00646F6E653F00F2
:0537F200646174610038
:0537F7006D656D3A0054
:0637FC006461746120000D
:0538020064656C20006C
:0811ED0090E60174A0F000225D
:0811F50085827285837385F089
:0511FD0074757500751A
:051202007600AF6FA8AB
:0712070070A97174022FF5BC
:06120E0077E438F5788951
:091214007974032FF57AE438F532
:05121D007B897CE4F573
:031222007DF57ED9
:06122500C3E57D956DE5B7
:06122B007E956E400302F7
:02123100134C5C
:0A123300C3E5769575505EC007C054
:09123D0000C001AD760576ED2537
:071246007AFDE4357BFAABF1
:04124D007CE57D259A
:0512510072FCE57E3592
:0A12560073FEAF748C828E838FF05C
:0E1260001236DAFC8D828A838BF012354BE554
:06126E0075B5760280094F
:09127400D001D000D007021341A3
:0D127D00D001D000D0078F82888389F0E572
:06128A007D12354BA3E5C7
:081290007E12354B758201222C
:07129800E576702DE57D25D0
:05129F0072FAE57E3546
:0A12A40073FBAC748A828B838CF01C
:0812AE001236DAFA8577828519
:0612B60078838579F01237
:0B12BC0036DAFBEAB503067576010286
:0212C7001341D1
:0812C9007401B57621E57D25D5
:0512D10072FAE57E3514
:0A12D60073FBAC748A828B838CF0EA
:0A12E0001236DA70057576028057A9
:0512EA00757600805242
:0912EF007402B5764D757600E538
:0512F8007D2572FAE5FE
:0512FD007E3573FBAC1F
:0C130200748A828B838CF01236DAFA2495
:08130E00EC5005757513800217
:021316008A75D6
:07131800857782857883854B
:0A131F0079F01236DAFBBB65197590
:0A132900750375760174032FFBE4D1
:0E13330038FC89058B828C838DF0EA12354BD5
:07134100057DE4B57D020506
:011348007E26
:0313490002122568
:0C134C008F82888389F0E57D12354BA369
:09135800E57E12354B7582FF227F
:0E13610075AF0390E6C2E0FA43020490E6C2C4
:0E136F00EAF0EA601090E6C2E0FA4302029053
:07137D00E6C2EAF0EA702568
:0913840090E6C2E04402F07A0098
:03138D00BA04009F
:0E139000500F90E6C2E054FEF0E0FB4401F086
:03139E000A80ECD6
:0813A10090E6C2E0FA4404F0FA
:0E13A900E58075800075826412368A438020CC
:0213B7007A00BA
:0313B900BA320045
:0E13BC005025E58030E41390E6C2E090E6C2D2
:0C13CA00E4F0E090E6C2E4F0758201223D
:0D13D600900001C00212369DD0020A80D6A0
:0413E30075820022ED
:0E13E700AA82AB838B9A7C007D008A9B7A00E1
:0213F5007B007B
:0A13F700C3EA956DEB956E50168564
:0E1401009C9090E6C2E054FEF0E0FC4401F046
:07140F000ABA00E40B80E1C2
:0414160075820122B8
:02141A007A0056
:03141C00BA04000F
:0E141F00500F90E6C2E054FEF0E0FB4401F0F6
:03142D000A80EC46
:0E14300090E6C2E04404F090E6C2E04402F010
:0A143E0074805580FABA8002800421
:041448007582002287
:04144C007582012282
:0A145000AA827B00EA30E0027B0173
:05145A00EA30E1010B86
:05145F00EA30E2010B80
:05146400EA30E3010B7A
:05146900EA30E4010B74
:05146E00EA30E5010B6E
:05147300EA30E6010B68
:05147800EA30E7010B62
:03147D008B82223D
:0E148000AA82C002121450AB82D002EB24FEEE
:03148E00500122E8
:0E14910043B207530208438008EAF45280EA8F
:03149F0042B22234
:0E14A200AA82AB83740B2AFAE43BFB8A828B8E
:0E14B00083E0605390380775F080C002C003DF
:0814BE00122AD4740EC0E07480
:0C14C60038C0E012356415811581758274
:0B14D200081214807582051219BC7509
:0614DD005402903A6A126D
:0E14E3001ABB758200121480D003D00253B2DF
:0E14F100F8903A6BE0FC530401BC01047582D4
:0214FF000122C8
:061501008A828B83E4F0F6
:0415070075820022C7
:0A150B00AA82AB837C6C7D3A7E005F
:0E151500758200C002C003C004C005C00612EB
:0E1523001480D006D005D004D003D00253B2FD
:0B153100F8C281EA4B7004758263224F
:0E153C00758208C002C003C004C005C00612BC
:09154A00148075829F1219BC7512
:061553005403903A6C12F3
:0E1559001ABB758200121480D006D005D00493
:0E156700D003D00253B2F88C828D838EF01226
:0815750036DAFFBF20028008F6
:05157D00BF0102800324
:031582000216D37B
:051585000CBC00010D8B
:0E158A008C828D838EF01236DAFFBF20079020
:061598003A6FE4F0800F41
:0B159E00BF0208903A6F7401F0800457
:0415A9007582052220
:0515AD000CBC00010D63
:0E15B2008C828D838EF01236DAFC903A6FE058
:0E15C000FD903A6FEC2DF0903A6FE0FCBC14F9
:0315CE0002806533
:0515D100BC150280348E
:0515D600BC16028003B9
:0315DB0002166293
:0E15DE00903A7074FFF0A3F0A3743FF0A3E402
:0E15EC00F0903A74F0A3F0A37440F0A3E4F082
:0E15FA00903A78F0A37440F0903A7A7440F082
:02160800805C04
:0E160A00903A7074FFF0A3F0A3741FF0A3E4F5
:0E161800F0903A74F0A3F0A37420F0A3E4F075
:0E162600903A78F0A37420F0903A7A7420F095
:02163400803004
:0E163600903A7074FFF0A3F0A3740FF0A3E4D9
:0E164400F0903A74F0A3F0A37410F0A3E4F059
:0E165200903A78F0A37410F0903A7A7410F089
:02166000800404
:041662007582052266
:0E166600903A70E0FCA3E0FDA3E0FEA3E0FFDD
:0E1674008A828B83ECF0A3EDF0A3EEF0A3EFDF
:0E168200F074042AFCE43BFD903A74E0FEA3F1
:0E169000E0FFA3E0F8A3E0F98C828D83EEF07A
:0E169E00A3EFF0A3E8F0A3E9F074082AFCE43F
:0E16AC003BFD903A78E0FEA3E0FF8C828D8338
:0D16BA00EEF0A3EFF0740A2AFAE43BFB9077
:0C16C7003A7AE08A828B83F07582002260
:0416D30075820522F5
:0416D700AA82AB83B5
:0E16DB008A828B83C002C0031214A2E582D063
:0E16E90003D00270ED90380775F080122AD4FD
:0916F7007411C0E07438C0E01267
:09170000356415811581AA40AB86
:0C170900418A828B83E0FCA3E0FDA3E09A
:0E171500FEA3E07F008A828B83ECF0A3EDF050
:0E172300A3EEF0A3EFF04307038A828B83EC62
:0E173100F0A3EDF0A3EEF0A3EFF0758208C078
:0E173F0002C003121480D003D0028A828B8372
:07174D00755304121A56E562
:06175400444545600C85D0
:03175A004454856F
:06175D0042828543831265
:021763001ABBAF
:0D17650075820012148053B2F875820122C3
:04177200AA82AB8319
:0E1776008A828B83C002C0031214A2E582D0C7
:0D17840003D00270ED758208C002C0031290
:0C17910014807582061219BC75820012CB
:08179D00148053B2F8AC46AD14
:0C17A500478C828D83E0FEA3E0FFA3E0F0
:0E17B100F8A3E079008C828D83EEF0A3EFF0B8
:0E17BF00A3E8F0A3E9F04301D88C828D83EEFD
:0E17CD00F0A3EFF0A3E8F0A3E9F09038077561
:0C17DB00F080C004C005122AD47414C0B1
:0C17E700E07438C0E012356415811581F3
:0E17F300758208121480D005D0048C828D837C
:0A180100755304121A567582001286
:0E180B001480D003D00253B2F8740B2AF58279
:0B181900E43BF5837401F075820122AE
:04182400AA82AB8366
:0E1828008A828B83C002C0031214A2E582D014
:0D18360003D00270ED758208C002C00312DD
:0C18430014807582061219BC7582001218
:0E184F00148053B2F87582081214807582C797
:0E185D001219BC758200121480D003D0025301
:0E186B00B2F8740B2AF582E43BF5837401F0A9
:041879007582012251
:06187D0085824E85834FB9
:07188300E54C454D70030226
:02188A0019B88B
:07188C00854E82854F831297
:0E18930014A2E58270F375820812148075822B
:0E18A100061219BC75820012148053B2F8852D
:0318AF0048508519
:0318B20049518514
:0A18B5005082855183E0FEA3E0FF9E
:0E18BF00A3E0F8A3E0F97AFF8F0388048905FF
:0E18CD00EAC39EFEEB9FFFEC98F8ED99F90E32
:0418DB00BE00010F3B
:0A18DF00C3EE954CEF954D5025E542
:0618E9004CC39EF54CE526
:0A18EF004D9FF54D8E02EFCA25E073
:0C18F900CA33CA25E0CA33FBEA2550F5CB
:0519050048EB3551F52F
:03190A0049800908
:06190D00AE4CAF4DE4F505
:031913004CF54D43
:0E19160090380775F080C006C007122AD474FE
:0819240017C0E07438C0E012A6
:0C192C00356415811581D007D006AA484B
:0C193800AB498A828B83E0FCA3E0FDA396
:0E194400E0F8A3E079008A828B83ECF0A3ED3B
:0E195200F0A3E8F0A3E9F04301028A828B8340
:0E196000ECF0A3EDF0A3E8F0A3E9F075820827
:0E196E00C002C003C006C007121480D007D00C
:0C197C0006D003D0028A828B83755304CE
:0C198800C006C007121A56D007D0068E09
:0519940052854A828526
:091999004B83121A2B7582001217
:0C19A200148053B2F8740B254EF582E45B
:0A19AE00354FF5837401F002188331
:0419B8007582012211
:0D19BC00AA828A037C00C002C003C004742C
:0819C9001AC0E07438C0E012FE
:0E19D1003564E58124FCF581D002EA23FA1387
:0E19DF009281D280C280EA23FA139281D280D4
:0E19ED00C280EA23FA139281D280C280EA23DC
:0E19FB00FA139281D280C280EA23FA139281FD
:0E1A0900D280C280EA23FA139281D280C2807A
:0E1A1700EA23FA139281D280C280EA2313924E
:061A250081D280C2802284
:061A2B00AA82AB83AC525D
:0E1A31008C051CED601E8A828B83E0FDA3AA4B
:0E1A3F0082AB838D82C002C003C0041219BCAA
:081A4D00D004D003D00280DCBC
:011A5500226E
:061A5600AA82AB83AC5331
:0E1A5C008C051CED601CEC2AF582E43BF58342
:0E1A6A00E0F582C002C003C0041219BCD00413
:061A7800D003D00280DE65
:011A7E002245
:0E1A7F00E4D280A28233C280D280A28233C21F
:0E1A8D0080D280A28233C280D280A28233C275
:0E1A9B0080D280A28233C280D280A28233C267
:0E1AA90080D280A28233C280D280A28233C259
:041AB70080F5822212
:061ABB00AA82AB83AC54CB
:0E1AC1008C051CED6012121A7FAD828A828B9A
:0A1ACF0083EDF0A3AA82AB8380E848
:011AD90022EA
:07380700494E464F3A200034
:03380E00620A004B
:03381100720A0038
:03381400650A0042
:03381700770A002D
:05381A00307825780064
:0E381F008F01BF010101010701000302020237
:0E382D00020000040404040404000000000073
:0E383B000000003F3911BB1F01010107010110
:0E384900030100000000000202060606060051
:0E38570040090F090000003F0802019C013FDC
:0E386500BF07010000031601010000080C0C53
:0E3873000C000000000000000000003F3901C2
:0E3881001323A53F3F070100010303170100B9
:0E388F000002020202000000000000093609DB
:02389D00003FEA
:0E389F0000000000000000000000000000001B
:0E38AD000000000083360400032303020084A1
:0838BB000902020223030200CE
:0738C300E0000000EE4E00E2
:0E1ADA00C0E0C082C083C002C0D075D00043FF
:0C1AE800A0015391BF75A2007402551AB2
:0C1AF400FABA0243531AFD90E6F3E0FA40
:0E1B00004480F00090E6C67484F090E6C7744E
:0E1B0E0009F090E6C87402F090E6C97402F087
:0D1B1C0090E6CA7402F00090E6CEE4F0906E
:0E1B2900E6CFF090E6D0F090E6D17401F075B2
:041B3700BB0080432C
:0E1B3B0090E6487406F090E6F3E0FA4480F07D
:0E1B49000090E6C67483F090E6C77436F09004
:0E1B5700E6C87404F090E6C9E4F090E6CA74A3
:0D1B650003F00090E6CEE4F090E6CFF090A3
:0C1B7200E6D0F090E6D17401F075BB06DF
:0E1B7E0053A0FED0D0D002D083D082D0E0326F
:0E1B8C00C0E0C082C083C002C0D075D000434C
:0E1B9A00A0045391BF75A20090E6C2E0FA537A
:0A1BA8000208BA0805431A0280493A
:0E1BB200C2AF90E6F574FFF000D2AF90E6F3FC
:0D1BC000E0FA4480F00090E6C67484F090D6
:0E1BCD00E6C77409F090E6C87402F090E6C90D
:0E1BDB007402F090E6CA7402F00090E6CEE4C8
:0E1BE900F090E6CFF090E6D0F090E6D17401D7
:041BF700F075BB00CA
:0E1BFB0053A0FBD0D0D002D083D082D0E032F5
:0E1C090090E60174E6F00090E6497482F090D7
:0D1C1700E624E4F00090E6257414F000903F
:0E1C2400E618E0FA4410F00090E61AE0FA44E8
:0E1C320008F00090E6307480F090E631740106
:0E1C4000F00090E6D2E4F00090E6E27402F0CC
:0E1C4E000090E6D3E4F090E6E3F090E6F57443
:0D1C5C00FFF0009038C3E49390E6F3F090A1
:0E1C690038C4E49390E6C3F09038C5E493903D
:0D1C7700E6C1F09038C6E49390E6C2F0900C
:0A1C840038C8E49390E6C0F07A003F
:031C8E00BA800019
:0E1C910050128A037CE4EA90381F93FD8B8288
:061C9F008C83F00A80E9CD
:0D1CA50090E6C67483F090E6C77436F090A8
:0E1CB200E6C87404F090E6C9E4F090E6CA7447
:0E1CC00003F090E6CB7423F090E6CC7403F0B2
:0E1CCE0090E6CD7402F090E60CE4F090E6C6CD
:0C1CDC00F090E6F3E04480F0751A00C2BE
:051CE800AF756DDA7517
:061CED006E1A758234122C
:041CF3002F82756D5A
:031CF7008C756E7B
:0C1CFA001B758200122F8290E6507404CB
:0E1D0600F090E6607402F0D2AF90E6F3E0FADF
:0E1D14004480F00090E6C67483F090E6C77439
:0E1D220036F090E6C87404F090E6C9E4F09044
:0E1D3000E6CA7403F00090E6CEE4F090E6CF31
:0E1D3E00F090E6D0F090E6D17401F075BB068F
:011D4C002274
:0C1D4D00C2AF751A0090E6F574FFF000BC
:0E1D5900E5BB30E7FB9038CA75F080122AD443
:091D670074D1C0E07438C0E01230
:0E1D7000356415811581D2AF90E6F3E0FA4498
:0E1D7E0080F00090E6C67483F090E6C77436DD
:0D1D8C00F090E6C87404F090E6C9E4F09011
:0E1D9900E6CA7403F00090E6CEE4F090E6CFC8
:0E1DA700F090E6D0F090E6D17401F075BB0626
:011DB500220B
:0E1DB600C2AF90E650E4F00090E660E4F0006A
:0E1DC40090E6D1E4F090E6D37401F090E6E3EF
:0C1DD2007401F090E6F574FFF000751A43
:0E1DDE000090E618E0FA54EFF00090E61AE0EC
:0E1DEC0054F7F0D2AF9038CA75F080122AD4A6
:091DFA0074DFC0E07438C0E0128F
:071E030035641581158122F1
:0738CA00494E464F3A200071
:0E38D100677069662061626F727465640A0038
:0E38DF00677069662064656163746976617460
:0438ED0065640A0004
:0E1E0A0090E6007410F0758E0075802075B2A1
:0E1E18002B75900075B3FF75A0C075B4C79010
:0E1E2600E6C27407F090E6C3E4F090E60B7499
:0E1E340003F00090E610E4F00090E611E4F0F8
:0E1E42000090E61274A0F00090E613E4F000A9
:0E1E500090E61474E0F00090E615E4F00090C7
:0E1E5E00E6047480F00090E6047402F0009038
:0D1E6C00E6047406F00090E604E4F0009037
:0E1E7900E6187401F00090E61A7401F0009073
:0E1E8700E68AE4F00090E68BE4F00090E64975
:0E1E95007482F00090E6497482F00090E649F5
:0E1EA3007482F00090E6497482F00090E680B0
:0D1EB100E0FA30E70E90E6247402F0009095
:061EBE00E625E4F000221D
:0E1EC40090E624E4F00090E6257440F0002241
:0E1ED2005380BF43B24090000112369D438002
:051EE0004053B2BF22D7
:091EE500E582FA700443A04022DA
:041EEE0053A0BF221C
:091EF200E582FA700443A080228D
:041EFB0053A07F224F
:041EFF0063A040227A
:041F030063A0802235
:011F070022B7
:0D1F0800903A7B7403F0903A7C7401F07500
:031F15006D7B756C
:031F18006E3A75A9
:081F1B006F02758241022DFFE7
:0E1F2300AA82903A7D7401F0903A7EEAF07541
:031F31006D7D754E
:031F34006E3A758D
:091F37006F02758241122DFF7545
:031F40001CFF2261
:071F4300903A7FE4F0756D98
:031F4A007F756E32
:081F4D003A756F017582411223
:041F55002DFF756D7A
:031F59007F756E23
:081F5C003A756F017582411214
:0E1F64002D3F903A7FE0FA530201BA01047556
:031F7200820122C7
:041F7500758200224F
:03370B000237136F
:0636F600756101755564C9
:0337260002370E59
:05370E0012299680FE67
:051F790090E68BE4F08E
:091F7E0090E6A0E0FA20E1F8224F
:031F8700022A85A6
:031F8A00022AAB7D
:091F8D00121F797402B51E0790C1
:061F96003A80E4F0A3F024
:091F9C00903A80E0F50DA3E0F598
:051FA5000E750F4075F0
:0A1FAA0010E790E6BEE0F511758225
:0C1FB400511201D9E5827006751D03F57D
:021FC00082227B
:0E1FC20090E6BEE0FA7B00903A80E0FCA3E0DF
:0E1FD000FD903A80EA2CF0EB3DA3F075820103
:011FDE0022E0
:0E1FDF0090E690E0FB7A0090E691E07D002A0B
:071FED00F556ED3BF557909E
:091FF4003A49E0FCBC0102800343
:031FFD00022108B6
:0E200000903A4AE0FCA3E0FDA3E0FEA3E0FF5F
:09200E00EC4D4E4F60030220C7A7
:0E201700903A9CE4F0903A45E0FCA3E0FDA373
:0A202500E0FEA3E0FFA856A9577AD9
:0E202F00007B00C3E89CE99DEA9EEB9F502ACF
:0A203D00E55624F4FAE55734FFFBE2
:0E2047007C007D00903A4AEAF0A3EBF0A3EC97
:0A205500F0A3EDF0E55624EAF5567D
:08205F00E55734FFF557802E10
:0E206700903A45E0FAA3E0FBA3E0FCA3E0FD05
:0E207500903A4AEAF0A3EBF0A3ECF0A3EDF0F2
:0E208300903A45E0FAA3E0FBA3E0FCA3E0FDE9
:042091008A568B5789
:0C209500755816903A45E0FBA3E0FCA350
:0E20A100E0FDA3E0FEEB24F6FBEC34FFFCEDCB
:0E20AF0034FFFDEE34FFFE903A45EBF0A3EC5B
:0A20BD00F0A3EDF0A3EEF002219E67
:0820C70075580CE55624F4F5F0
:0620CF0056E55734FFF551
:0C20D50057903A4AE0FBA3E0FCA3E0FDBA
:0A20E100A3E0FEAF56A857E4F9FA99
:0D20EB00EF2BFBE83CFCE93DFDEA3EFE90DA
:0E20F8003A4AEBF0A3ECF0A3EDF0A3EEF002F9
:02210600219E18
:0C210800755800903A45E0FAA3E0FBA3F4
:0A211400E0FCA3E0FDAE56AF5778E3
:0E211E00007900C3EE9AEF9BE89CE99D502AE1
:0E212C00903A4AE0FAA3E0FBA3E0FCA3E0FD3A
:0D213A00EE2AFEEF3BFFE83CF8E93DF9908E
:0E2147003A4AEEF0A3EFF0A3E8F0A3E9F0802F
:012155004841
:0E215600903A4AE0FAA3E0FBA3E0FCA3E0FD10
:0E216400903A45E0FEA3E0FFA3E0F8A3E0F907
:0D217200EE2AFAEF3BFBE83CFCE93DFD9056
:0E217F003A4AEAF0A3EBF0A3ECF0A3EDF090E7
:0E218D003A45E0FAA3E0FBA3E0FCA3E0FD8AE4
:03219B00568B5709
:0E219E00903A9CE0FAC374808AF063F080955A
:0621AC00F05003022307BE
:0921B200EA7006903A847462F0B0
:0C21BB00903A84E0FABA6278AA587BF0EF
:0621C7007C00756F8275BB
:0321CD00703A75F0
:0421D00071008556BF
:0321D4006D8557BF
:0C21D7006E8A828B838CF01211F5AA82B4
:0721E300BA014F750A9D755A
:0321EA000B3A7538
:0621ED0008DD75093F75D5
:0C21F3000C107582511201A2E5827003ED
:0321FF00F5822244
:04220200756D9D75E4
:032206006E3A75B8
:072209006F00757010E4F591
:0822100071903A8575F000128F
:0E2218002B9CE5828583F045F0600475820002
:012226002295
:0E222700903A847465F0903A9C7401F0800641
:06223500903A9C74FFF0DA
:0C223B00903A84E0FABA6558AA587BF08B
:062247007C00756F82753A
:03224D00703A756F
:04225000710085563E
:032254006D85573E
:0C2257006E8A828B838CF01211F5AA8233
:0C226300BA012F903A87E0903A98F09072
:08226F003A86E0903A99F090E4
:082277003A85E0903A9AF090DC
:0E227F003A9BE4F0121361E5827003F58222AF
:08228D00903A9C7401F08006F8
:06229500903A9C74FFF07A
:0C229B00903A82E0FAA3E0FBEA2558F537
:0622A70058E556C39AF54C
:0522AD0056E5579BF50A
:0C22B20057903A4AE0FCA3E0FDA3E0FED8
:0E22BE00A3E0FFE4F8F9EA2CFCEB3DFDE83E5E
:0E22CC00FEE93FFF903A4AECF0A3EDF0A3EEDE
:0E22DA00F0A3EFF0903A45E0FCA3E0FDA3E096
:0E22E800FEA3E0FFECC39AFAED9BFBEE98F824
:0E22F600EF99F9903A45EAF0A3EBF0A3E8F077
:03230400A3E9F05A
:0E230700903A9CE0FAC374808AF063F08095EF
:06231500F040030223BDAD
:08231B00AA587BF07C008556F6
:032323006D85576E
:0C2326006E8A828B838CF01213E7E58234
:052332007003F582229A
:0E233700903A45E0FAA3E0FBA3E0FCA3E0FD32
:0A234500AE56AF57E4F8F9EAC39E64
:0E234F00FAEB9FFBEC98FCED99FD903A45EA05
:0E235D00F0A3EBF0A3ECF0A3EDF0903A98E0C3
:0C236B00FAA3E0FBA3E0FCA3E0FDAE56EB
:0C237700AF5778007900903A98EAC39EB6
:0E238300F0EB9FA3F0EC98A3F0ED99A3F0907F
:0E2391003A98E0FAA3E0FBA3E0FCA3E0FDC352
:0E239F00E49AE49BE49C74808DF063F08095DA
:0D23AD00F0400D12141AE5827003F5822233
:0323BA0075130197
:0423BD007582012202
:0E23C10090E6BCE0FABA020D90E6B8E0FA53DE
:0723CF000201BA01028006C1
:0623D60074FE251E500AF2
:0A23DC00122C1BE582704CF58222E2
:0E23E60090E6BCE0700D90E6B8E0FA530201FC
:0523F400BA010280287F
:0E23F90090E6BCE0FABA020D90E6B8E0FA53A6
:072407000202BA0202801379
:0E240E0090E6BCE0FABA861590E6B8E0FA5304
:05241C000202BA020AF1
:0A24210012034FE5827007F58222D6
:04242B007582002294
:04242F00758201228F
:04243300758200228C
:04243700750AAD7500
:03243B000B3A75E4
:06243E0008F775093F7567
:092444000C017582511201A290F5
:09244D003AADE0FA90E00CF090C9
:06245600E05AEAF0750AED
:03245C00AE750B4F
:05245F003A7508F87554
:09246400093F750C087582511244
:04246D0001A27A004E
:03247100BA0800A6
:0A2474005022EA24AEF582E4343A67
:09247E00F583E0FBBBFF027B309B
:0A248700EA2AFC247AF582E434E12D
:07249100F583EBF00A80D98E
:012498002221
:0E249900903BC27411F0E4A3F0A3F0A3F09006
:0424A7003BC1E4F061
:0924AB00903A49E4F030040312F8
:0224B400324FA5
:0824B600E5AA30E0030227ACA7
:0724BE00E51B60030227ACDF
:0724C5007401B5130280173A
:0E24CC00903A45E0FAA3E0FBA3E0FCA3E0FD9C
:0924DA00EA4B4C4D60030226564A
:0E24E30090F00175F0001236DAFA90F00275F2
:0E24F100F0001236DAFB3395E0FCEBF4FBEC66
:0E24FF00F4FCEAFD3395E0FEEDB50306EEB504
:04250D000402800341
:0325110002263768
:0E251400903A44EAF090F000E0FABA0102803A
:0125220003B5
:032523000225D1BD
:0E25260090F00475F0001236DAFBA31236DADC
:0C253400FCA31236DAFDA31236DAFE908A
:0E2540003A45EBF0A3ECF0A3EDF0A3EEF09023
:0C254E003A497401F07401B513028003D7
:03255A0002265600
:0C255D00751302903A4AE4F0A3F0A3F0DA
:09256900A3F074EF5516F516906D
:0E2572003A4EE4F0A3F0A3F0A3F0903BBCE4DB
:0D258000F0A3F0903AB6740CF0E4A3F090D4
:0D258D003BBE7400F0A374F0F0A3E4F090E6
:05259A003BC1F07522B9
:03259F00BE7523E3
:0525A2003B75240075EB
:0325A70025BC75DB
:0325AA00263A7559
:0625AD002700903AB6126F
:0925B300087AE582600302265655
:0725BC0074204514F51475AD
:0825C3001301903BC1E4F0900C
:0625CB003A49F002265619
:0E25D100BA0242903BBCE0FAA3E0FB4A60373E
:0C25DF0075130390F00475F0001236DA5A
:0D25EB00FAA31236DAFBA31236DAFCA312B3
:0E25F80036DAFD903A45EAF0A3EBF0A3ECF0E2
:0E260600A3EDF0903A4EE4F0A3F0A3F0A3F0A1
:02261400804004
:0E26160090E6A3E04401F09038F175F08012D8
:072624002AD474F9C0E07430
:0C262B0038C0E012356415811581801F55
:0E26370090E6A3E04401F09038F175F08012B7
:072645002AD474FDC0E0740B
:0A264C0038C0E012356415811581D5
:072656007402B513028003BA
:03265D000227A6AB
:0C266000903BC1E0FA24F650030227A3CF
:07266C00EA2A2A902673738D
:072673000227A302269102D9
:06267A00269A0226CA02A6
:0626800026FA02272502E4
:06268600273A0227A3021F
:05268C00274502277143
:07269100121ED275130102B5
:0226980027A673
:04269A00750ABC758C
:03269E000B3A757F
:0626A10008ED75093F750C
:0926A7000C0A7582511201A29087
:0E26B0003AC6740AF0903BBC740BF0A3E4F041
:0726BE0074104516F51675B6
:0526C50013010227A62D
:0426CA00750ABC755C
:0326CE000B3A754F
:0626D10008DD75093F75EC
:0926D7000C107582511201A29051
:0E26E0003ACC740AF0903BBC7411F0A3E4F005
:0726EE0074104516F5167586
:0526F50013010227A6FD
:0E26FA0074805580FABA8008903ABC7431F0B2
:02270800800649
:06270A00903ABC7430F0AF
:0E271000903ABD740AF0903BBC7402F0A3E452
:07271E00F07513010227A66C
:0A272500121FDFE58260030227A601
:07272F0074104514F5147548
:042736001301806C9F
:07273A00121C09751B01755B
:04274100130180619F
:042745007540C275A4
:03274900413B759C
:03274C0042BC7517
:03274F00433A7595
:062752004414E4F545907B
:062758003A5E1216D79054
:0C275E003BBC7414F0A3E4F074104516AA
:07276A00F51675130180351F
:042771007546C27572
:03277500473B904F
:062778003A5E12177275B3
:03277E0048C275D9
:03278100493B9041
:0C2784003AB6E0FAA3E0FB8A4A74F02B9E
:07279000F54B754C14E4F554
:052797004D903A5E12B6
:07279C00187D751301800395
:0327A300751301AA
:0627A60090E6497482F088
:0827AC00E5AA30E50302292F24
:0727B4007403B5130280035A
:0327BB0002292FC1
:0E27BE00903A4EE0FAA3E0FBA3E0FCA3E0FD9E
:0927CC00EA4B4C4D600302285455
:0E27D50090F8007402F0903A44E0FA90F80197
:0E27E30075F000EA12354B903A44E0F4FA909B
:0E27F100F80275F000EA12354B90F803E4F59B
:0E27FF00F012354B903BBCE0FAA3E0FB7C00EF
:0E280D007D0090F80475F000EA12354BA3EB45
:0B281B0012354BA3EC12354BA3ED125D
:0E282600354B90F809E4F5F012354B90F80AA6
:0D283400E4F5F012354B90F80BE4F5F012CE
:0E284100354B90F80875F000740112354B7598
:05284F00590CE4F55AEC
:0C285400903A4EE0A3E0A3E0A3E0AA59F4
:02286000AB5A71
:0E286200C002C003903A4EE0FCA3E0FDA3E0EC
:0D287000FEA3E0FF903BBCE0FAA3E0FB8A72
:04287D005B8B5C75A0
:072881005D00755E00C3E578
:062888005B9CE55C9DE590
:0A288E005D9EE55E9FD003D002407E
:0A2898005A8A048B050ABA00010BEE
:0828A2008C5F74F82DF56090C5
:0D28AA003A4EE0FEA3E0FFA3E0A3E0EE2421
:0A28B700BCF582EF343AF583E085AA
:0728C1005F82856083F09047
:0E28C8003A4EE0FCA3E0FDA3E0FEA3E0FF0C0F
:0C28D600BC00090DBD00050EBE00010F86
:0E28E200903A4EECF0A3EDF0A3EEF0A3EFF071
:0328F00002286259
:0C28F30090E698EBF090E699EAF0E4F52E
:0428FF0059F55A909D
:0E2903003A4EE0FAA3E0FBA3E0FCA3E0FDC324
:08291100EA955BEB955CEC9587
:072919005DED955E401075B5
:07292000130174EF5516F5D9
:0829270016903BBCE4F0A3F0A4
:09292F00E51C7005F582121F235E
:062938007555640224AB9A
:0C293E00C021C0E0C0F0C082C083C00215
:0E294A00C003C004C005C006C007C000C00125
:0A295800C0D075D000D5610975618B
:0729620032121EFF751C007C
:082969007401B51E09151FE5FC
:062971001F700312321773
:0E297700C2CFD0D0D001D000D007D006D005FE
:0E298500D004D003D002D083D082D0F0D0E0B6
:03299300D021321E
:07299600121E0A121F0812B5
:06299D0002A31211ED90EF
:0629A3003A5E12150B75EF
:0C29A9001B001229E890E601E04404F055
:0929B500C2AF122437122FD31215
:0529BE00314E7A3E7B62
:0B29C300298A828B8312366DD2AF127E
:0E29CE001F43E5826008758204121F238006F5
:0629DC00758202121F23A8
:0629E200122B780224997B
:0838F1004552524F523A2000EB
:0438F90049440A0034
:0638FD00625461670A003D
:0A29E800C2ACC200903BC6E4F090C0
:0829F2003BC7F0903BC8F090D8
:0E29FA003BC9F090E6087401F07598501099F2
:032A080002800049
:052A0B0010980280009C
:042A1000756D1F754C
:062A14006E2A75822312F8
:052A1A002ECED2AC221B
:0E2A1F00C0E0C082C083C002C003C0D075D02A
:082A2D0000C2AC1098028017F2
:0C2A3500903BC8E0FA903BC804F0EA2493
:0A2A4100CAF582E4343CF583E59900
:012A4B00F09A
:052A4C00109902802535
:0E2A5100903BC6E0FA903BC7E0FBEAB50304F9
:042A5F00C20080131E
:0C2A6300903BC7EB04F0EB24CAF582E4C2
:072A6F00343BF583E0F5990B
:0E2A7600D2ACD0D0D003D002D083D082D0E03A
:012A8400321F
:0C2A8500AA82C2AC300018903BC6E0FBF7
:0C2A9100903BC604F0EB24CAF582E4344C
:072A9D003BF583EAF0800421
:042AA400D2008A9939
:032AA800D2AC228B
:0E2AAB00903BC8E0FA903BC9E0FBEAB503029D
:022AB900801487
:0C2ABB00903BC9EB04F0EB24CAF582E468
:082AC700343CF583E0FA8002C3
:022ACF007A008B
:032AD1008A8222D4
:062AD400AA82AB83ACF006
:0E2ADA008A828B838CF01236DAFD60188D82B2
:052AE8000ABA00010B19
:0E2AED00C002C003C004122A85D004D003D05A
:032AFB000280DC7A
:012AFE0022B5
:0E2AFF007A00903BC8E0FB903BC9E0FCEBB5D1
:042B0D00040280023C
:022B11007A0147
:032B13008A822291
:082B160085827085837185F052
:042B1E0072AD6DAE79
:042B22006EAF6FA87B
:042B260070A971AA77
:012B2A007238
:0E2B2B008D828E838FF01236DAFBA3AD82AE60
:0E2B390083888289838AF0EB12354BA3A88231
:0A2B4700A983EB70DF8570828571B1
:052B5100838572F022F3
:082B560090E6A0E04401F0222A
:0E2B5E00AA8274805AC423541FFB740F5A902D
:0C2B6C00E6834BF090E683E04420F0226A
:0E2B780090E680E0440AF09000FA12369D903C
:0E2B8600E65D74FFF090E65F74FFF05391EF90
:082B940090E680E054F7F02206
:0A2B9C00AA82AB83ACF0E57045712E
:062BA60070049000002203
:052BAC00AD6DAE6EAF3F
:042BB1006FA870A9F0
:012BB50071AE
:052BB60018B8FF011931
:0E2BBB00E84960368A828B838CF01236DAF598
:0C2BC900726029C000C0018D828E838FD5
:0A2BD500F01236DAF8B5720280063D
:062BDF00D001D0008010BF
:092BE500D001D0000ABA00010B76
:072BEE000DBD00C40E80C103
:0E2BF5008A828B838CF01236DAFA3395E0FB7D
:0E2C03008D828E838FF01236DAFD3395E0FC61
:0A2C1100EAC39DF582EB9CF58322D7
:06372000E478FFF6D8FD7D
:0736FC00751D00751E00752D
:023703001FFFA6
:0E2C1B0090E6B8E0FA530280BA805F90E6B906
:072C2900E0FABA0202800A82
:052C3000BA0302800B55
:052C3500BA05498033DF
:062C3A00E51D7582002279
:0C2C400090E740E51DF090E741E4F090C3
:0D2C4C00E742F090E74374FFF090E744E5A5
:0C2C59001EF090E745E4F090E68AF09051
:082C6500E68B7406F0022D3B22
:0C2C6D0090E740E51EF090E68AE4F0904D
:082C7900E68B7401F0022D3B13
:042C81007582002236
:0B2C850090E6B8E0FA30E703022D37BC
:0C2C900090E6B9E0FA6013BA010280255A
:052C9C00BA0402806192
:062CA100BA0603022D1625
:032CA700022D30CB
:082CAA00E51E700C12321775D3
:062CB2001E01751FFF0268
:022CB8002D3BB2
:072CBA00751D0F7582002259
:072CC1007402B51E0280053C
:052CC8007405B51E1BA0
:0E2CCD0090E6BEE06015121F8DE5827009755D
:082CDB001D03751E0AF582229B
:052CE300751E05805381
:0C2CE8007405B51E0E90E6BEE0700812E8
:072CF4003217751E08804035
:072CFB00751D0F7582002218
:092D0200740AB51E08751D007568
:042D0B001E02802CF8
:072D0F00751D0F7582002203
:0A2D1600E51E600F7401B51E028077
:012D200008AA
:082D2100751D00751E028012F1
:072D2900751D0F75820022E9
:072D3000751D0F75820022E2
:042D3700758200227F
:042D3B00758201227A
:0A2D3F00AA82E56F7004758201227C
:0E2D490090E678E0FB20E6F890E6787480F0E3
:0A2D5700EA2AFA90E67974014AF0C6
:0E2D610090E678E0FA30E0F890E678E0FA309C
:052D6F00E203022DF457
:0B2D740090E678E0FA20E103022DF465
:0C2D7F007401B56F0890E678E0FA44207B
:012D8B00F057
:092D8C0090E679E0F570AA6DAB48
:032D95006EAC6FB2
:042D98001CEC60309F
:0E2D9C0090E678E0FD30E0F890E678E0FD206B
:0D2DAA00E248BC010890E678E0FD4420F00E
:0E2DB70090E679E0FD8A828B83F0A3AA82ABBE
:072DC500838A6D8B6E80CC48
:0E2DCC0090E678E0FA30E0F890E678E0FA2041
:0C2DDA00E21890E678E04440F0AA6DABEF
:0C2DE6006E90E679E08A828B83F07582A3
:022DF2000122BC
:0B2DF40090E678E04440F07582002279
:022DFF00AA82A6
:0E2E010090E678E0FB20E6F890E6787480F02A
:072E0F00EA2AFA90E679F0CF
:0E2E160090E678E0FA30E0F890E678E0FA20F6
:0C2E2400E24790E678E0FA30E13FAA6D4A
:042E3000AB6EAC6F6A
:0E2E3400EC602B8A828B83E0FDA3AA82AB8325
:062E420090E679EDF01CA2
:0E2E480090E678E0FD30E0F890E678E0FD20BE
:0C2E5600E21590E678E0FD20E1D4800B4E
:0B2E620090E678E04440F07582012209
:0B2E6D0090E678E04440F075820022FF
:082E780085827085837185F0ED
:042E800072AD70AE11
:032E840071AF72B9
:0E2E87008D828E838FF01236DA60070DBD004B
:042E9500F10E80EECC
:052E9900A86DA96EAA5E
:052E9E006F8E048F039C
:0E2EA300888289838AF01236DAFEA3A882A9FB
:0E2EB100838D828C838BF0EE12354BA3AD82A5
:0A2EBF00AC83EE70DF857082857130
:052EC900838572F02278
:052ECE00AA82BA030016
:072ED3004005EA249C5001B8
:012EDA0022D5
:092EDB00740F5AFBBB03028007CF
:072EE400740F5AFBBB0B4504
:0A2EEB00A2AF9201C2AFEA2400F585
:0C2EF50082E43400F5837402F07B00746A
:0C2F0100012AFCE43BFDEC2400F582ED0D
:0A2F0D003400F583E56EFCF0740259
:0C2F17002AFAE43BFBEA2400F582EB34CC
:0A2F230000F583AA6D7B00EAF0A21E
:032F2D000192AF5F
:012F3000227E
:082F3100E582FA24835001221D
:062F3900EA5403600122CE
:0A2F3F00A2AF9202C2AFEA2400F52F
:0C2F490082E43401F5837402F07B007414
:0C2F5500012AFCE43BFDEC2400F582EDB9
:0A2F61003401F583E56EF074022AD6
:0B2F6B00FAE43BFBEA2400F582EB34A3
:082F760001F583AA6DEAF0A247
:042F7E000292AF22EA
:082F8200E582FA24CB50012284
:062F8A00EA54036001227D
:0A2F9000A2AF9203C2AFEA2480F55D
:0C2F9A0082E43400F5837402F07B0074C4
:0C2FA600012AFCE43BFDEC2480F582EDE8
:0A2FB2003400F583E56EF074022A86
:0B2FBC00FAE43BFBEA2480F582EB34D2
:082FC70000F583AA6DEAF0A2F7
:042FCF000392AF2298
:082FD300C2E8C2EA756D007549
:062FDB006E017582431235
:042FE1002ECE756D0E
:032FE50080756E86
:0C2FE80000758253122ECE0090E650E4DB
:0E2FF400F00090E652E4F00090E654E4F000A5
:0E30020090E656E4F00090E65174FFF0009066
:0E301000E65374FFF00090E65574FFF0009058
:0E301E00E65774FFF00090E658E4F090E65993
:0E302C0074FFF090E65AE4F090E65B74FFF05B
:0E303A0090E65CE4F090E65D74FFF090E65ED8
:0E304800E4F090E65F74FFF00090E660E4F0C4
:0D3056000090E66174FFF090E662E4F090F7
:0E306300E66374FFF090E665E4F090E66874B2
:0A3071000BF05391AFD2E8D2EA222F
:063705007562007563000F
:0A307B0090E680E0FA30E719756472
:033085000075656E
:03308800E075668A
:03308B0012756754
:03308E00E0756882
:033091001C756942
:03309400E0756A7A
:033097006A756BEC
:02309A00E02232
:04309C0075644E7594
:0330A00065E07573
:0330A300666075EF
:0330A60067E0756B
:0330A900686A75DD
:0330AC0069E07563
:0330AF006A1C7523
:0330B2006BE022AE
:0930B5005391EF75A100D2043221
:0C30BE00C021C0E0C0F0C082C083C0028E
:0E30CA00C003C004C005C006C007C000C0019E
:0E30D800C0D075D0005391EF75A10012307B6F
:0C30E600751E00D0D0D001D000D007D063
:0E30F20006D005D004D003D002D083D082D007
:06310000F0D0E0D0213206
:0C310600C021C0E0C0F0C082C083C00245
:0E311200C003C004C005C006C007C000C00155
:0E312000C0D075D0005391EF75A10012307B26
:0C312E00751E00D0D0D001D000D007D01A
:0E313A0006D005D004D003D002D083D082D0BE
:06314800F0D0E0D02132BE
:05314E0012307B756DDD
:03315300B5756EE1
:0831560030758200122F317563
:03315E006DBE75CE
:063161006E3075821012B1
:043167002F31756D22
:03316B0006756E78
:0C316E0031758214122F3190E65C743130
:02317A00F02241
:0D317C00E582547FFA24F75004758200228A
:07318900BA01047582012266
:08319000530201E4BA0001043E
:03319800F582229B
:09319B00AA82BA010490E6A12207
:0731A400BA810490E6A222AB
:0A31AB0053027FEA700490E6A022B0
:0D31B500EAC31324A2F582E434E6F5832278
:0431C20075649C751F
:0331C60065E0754C
:0331C90068AE7578
:0331CC0069E02295
:0C31CF00C021C0E0C0F0C082C083C0027C
:0E31DB00C003C004C005C006C007C000C0018C
:0E31E900C0D075D0005391EF75A1001231C215
:0C31F700751E02D0D0D001D000D007D04F
:0E32030006D005D004D003D002D083D082D0F4
:06321100F0D0E0D02132F4
:06321700E51E7018756D44
:03321D00CF756EFC
:0832200031758210122F317587
:033228006DCF75F2
:06322B006E3175821402F1
:023231002F313B
:04323300756DBE7582
:063237006E3075821012DA
:04323D002F31756D4B
:0332410006756EA1
:0832440031758214122F31755F
:03324C001E00223F
:0C324F00C20490E6B8E0FA530260BA0036
:03325B00028038B6
:05325E00BA2002800D02
:05326300BA4002801ECC
:05326800BA60028013B2
:03326D00023543E4
:0A3270001223C1E58260030235431A
:06327A00122B5602354341
:06328000122B560235433B
:0A328600122433E582600302354391
:06329000122B560235432B
:0D32960090E6B8E0FA530280BA800280038F
:0332A30002343DB5
:0B32A60090E6B9E0FABA00030233B46E
:0532B100BA06028035A1
:0532B600BA08028008C7
:0532BB00BA0A028017B1
:0332C0000234379E
:0C32C30090E740E562F090E68AE4F090AD
:0832CF00E68B7401F0023543A7
:0C32D70090E740E563F090E68AE4F09098
:0832E300E68B7401F002354393
:0A32EB0090E6BBE0FABA0102801D74
:0532F500BA0202803E58
:0532FA00BA0302805F31
:0532FF00BA0602802167
:05330400BA070280423F
:06330900BA210302339714
:03330F000233AED8
:0A331200AA64AB6590E6B3EBF07B14
:09331C000090E6B4EAF00235432A
:0A332500AA66AB6790E6B3EBF07BFD
:09332F000090E6B4EAF002354317
:0A333800AA68AB6990E6B3EBF07BE6
:093342000090E6B4EAF002354304
:0A334B00AA6AAB6B90E6B3EBF07BCF
:093355000090E6B4EAF0023543F1
:0E335E0090E6BAE0FA90E0C9E0FBC3EA9B40BB
:07336C0006122B5602354347
:0C33730090E6BAE075F002A424CAF582CE
:0B337F0074E035F0F583E0FAA3E09065
:0D338A00E6B3F07B0090E6B4EAF0023543B4
:0A3397007AC07BE090E6B3EBF07A19
:0A33A100C07BE07B0090E6B4EAF088
:0333AB00023543A5
:0633AE00122B560235430C
:0D33B40090E6B8E0FA53021FBA0002800A4A
:0533C100BA0102801DAD
:0533C600BA0268802E30
:0E33CB0090E7407401F090E741E4F090E68A4C
:0A33D900F090E68B7402F002354319
:0E33E30090E740E4F090E741F090E68AF09029
:0833F100E68B7402F002354383
:0E33F90090E6BCE0F58212317CE58260259002
:0E340700E6BCE0F58212319BE0FA5302019020
:0E341500E740EAF090E741E4F090E68AF0909C
:08342300E68B7402F002354350
:06342B00122B560235438E
:06343100122B5602354388
:06343700122B5602354382
:0C343D0090E6B9E0FA24F4500302354098
:07344900EA2A2A90345073B7
:073450000235400234860240
:0634570035080234E90211
:06345D003540023540027B
:0634630035400235400275
:063469003540023474023C
:05346F00354002347D30
:0934740090E6BAE0F5620235436E
:09347D0090E6BAE0F56302354364
:0D34860090E6B8E0FA53021FBA000280057C
:05349300BA024E800AA0
:0A34980090E6BAE0122B560235430D
:0D34A20090E6BAE0703790E6BCE0F58212CB
:0D34AF00317CE582602A90E6BCE0F58212D7
:0E34BC00319BAA82AB83E0FC5304FE8A828B14
:0E34CA0083ECF090E6A3E054FEF090E6BCE048
:0734D800F582122B5E8064F7
:0534DF00122B56805F76
:0534E400122B56805A76
:0E34E90090E6B8E0FA53021FBA004F90E6BA20
:0734F700E0FABA01028005B2
:0534FE00BA020280404B
:05350300122B56803B75
:0E35080090E6BAE0FA702C90E6BCE0F5821274
:0D351600317CE582601A90E6BCE0F582127F
:0E352300319BAA82AB83E0FC4304018A828BB9
:0535310083ECF0800DA9
:05353600122B56800875
:05353B00122B56800375
:03354000122B56F5
:0835430090E6A0E04480F022B4
:0E354B0020F71030F6118883A88220F507F6CD
:05355900A8837583004A
:01355E00224A
:03355F00F280F700
:02356200F02255
:05356400C06C85816CC4
:0B356900E56C24FDF8868318868218AC
:0E357400E493A324DB600C242560051236527C
:0235820080F0D7
:0335840002366AA2
:09358700D2D5E493A3C083C082F5
:03359000B47314FD
:0935930086F01886831886821860
:0B359C001236DA6054A312365280F59C
:0B35A700B4630818E618123652804387
:0E35B200B46417E630E74618E6F42401F60884
:0C35C000E6F43400F6742D12365280330D
:0A35CC00B4782D868318868218E477
:0B35D600123643E583123642E58312F3
:0A35E1003643E582123642E58212FD
:0A35EB00364330D505743012365215
:0735F500D082D0830235747F
:0335FC00B475F6AD
:0635FF00E6FA18E6F918D7
:0D3605007C107D2712362DFF7CE87D03121E
:0E361200362DC4F5837C647D0012362D428374
:0D362000E975F00A84C445F0F582EF80A939
:02362D007B0020
:0E362F000BC3E99CF9EA9DFA50F61BE92CF951
:05363D00EA3DFAEB225A
:01364200C4C3
:07364300540F700320D51F96
:08364A00C2D52490D43440D411
:0E365200C083C082C0F0F582E8C0E0121F877E
:09366000D0E0F8D0F0D082D08354
:01366900223E
:03366A00D06C22FF
:0A366D00AA82AB83C2AD8A6D8B6E9A
:0E36770075822B122ECE75CB6375CAC075C836
:0436850004D2AD229C
:01368900221E
:02368A00AA8212
:06368C00123689DAFB2270
:0336920090FB505A
:08369500A3E582458370F922D0
:04369D00AA82AB83CF
:0836A1001236921ABAFF011B58
:0536A900EA4B70F42261
:0536AE00AA82BA4100F0
:0B36B3004009EA24A5400475820122B2
:0436BE0075820022EF
:0436C200AA82AB83AA
:0836C6001236DA6003A380F85C
:0C36CE00C3E5829AF582E5839BF5832218
:0337130075817E3F
:0A371600120180E582600302370E05
:0E36DA0020F71430F6148883A88220F507E646
:0636E800A8837583002297
:0336EE00E280F780
:0336F100E493223D
:0236F400E022D2
:00000001FF
