:03020000020208EF
:0302610002020393
:05020300121E3980FE0F
:03000000020200F9
:0100030032CA
:01000B0032C2
:0100130032BA
:01001B0032B2
:0100230032AA
:01002B0032A2
:01003300329A
:01003B003292
:01004300328A
:01004B003282
:01005300327A
:01005B003272
:01006300326A
:0101000032CC
:0101040032C8
:0101080032C4
:01010C0032C0
:0101100032BC
:0101140032B8
:0101180032B4
:0101200032AC
:0101240032A8
:0101280032A4
:01012C0032A0
:01013000329C
:010134003298
:010138003294
:01013C003290
:01014000328C
:010148003284
:01014C003280
:01015000327C
:010154003278
:010158003274
:01015C003270
:01016000326C
:01017000325C
:010174003258
:010178003254
:01017C003250
:01018000324C
:010184003248
:010188003244
:01018C003240
:01019000323C
:010194003238
:010198003234
:01019C003230
:0101A000322C
:0101A8003224
:0101AC003220
:0101B000321C
:0101B4003218
:0101B8003214
:010264002277
:08026500AA82AB837C007D003E
:0B026D00C3EC9AED9B50147EB07F04A0
:050278001EBEFF011F86
:0B027D00EE4F70F70CBC00E80D80E5B0
:010288002253
:08028900AA82AB837C007D001A
:0B029100C3EC9AED9B50147E0A7F0026
:05029C001EBEFF011F62
:0B02A100EE4F70F70CBC00E80D80E58C
:0102AC00222F
:0E02AD0075AF0790E67BE090E67CF0DAF32276
:0102BB002220
:0202BC007A00C6
:0302BE00BAFF0084
:0D02C100500B90E678E0FB20E0030A80F08F
:0C02CE0090E678E0FA20E204EA20E10B60
:0B02DA0090E678E04440F075820122BD
:0402E50075820022FC
:0202E9007A0099
:0302EB00BAFF0057
:0D02EE00500B90E678E0FB20E0030A80F062
:0E02FB0090E678E0FA30E20B90E678E04440BE
:05030900F075820122E5
:04030E0075820022D2
:020312007A006F
:03031400BAFF002D
:0E031700500F90E678E0FB20E2047582002291
:030325000A80EC5F
:0403280075820122B7
:02032C007A0055
:03032E00BAFF0013
:0E033100500F90E678E0FB20E6047582002273
:03033F000A80EC45
:04034200758201229D
:09034600AA82C3E49508E433FB2C
:0E034F0090E678E04480F0C002C00312031272
:0E035D00D003D00290E679EAF0C002C003128D
:0C036B0002BCE582D003D0027012E5094C
:0C037700600A90E678E04440F012032C8D
:04038300758200225D
:0E038700EB601090000AC002C003120289D081
:0503950003D00280B559
:0C039A00E509600890E678E0FA4440F0C5
:0403A6007582012239
:0C03AA00AA82AB837C00E50C7003F58296
:0103B6002224
:0A03B7007508647509007582A2C084
:0E03C10002C003C004120346E582D004D0033C
:0703CF00D00260030204B03C
:0C03D60090E679E50BF0C002C003C00403
:0E03E2001202BCE582D004D003D002600302F8
:0203F00004B057
:0C03F20090E679E50AF0C002C003C004E8
:0E03FE001202BCE582D004D003D002600302DC
:02040C0004B03A
:0E040E0090E678E04440F0C002C003C0041243
:0D041C00032C90E678E04480F0120312906B
:0E042900E67974A3F01202BCE582D004D00381
:0E043700D002707590E679E08A828B83F0C067
:0E04450002C003C0041202E9E582D004D00315
:05045300D0027059FD0C
:0C045800C3ED950C502A90E679E08A82F2
:0E0464008B83F0A3AA82AB83C002C003C00446
:0E047200C0051202E9E582D005D004D003D007
:0804800002702D0D8D0480D0E7
:0E04880090E678E04420F090E679E0C004129F
:0E04960002E9E582D004701290E678E044405E
:0C04A400F090E679E0C00412032CD004B4
:0304B0008C822219
:0C04B300AA82AB837C00E50F7003F58289
:0104BF00221A
:0A04C0007508647509007582A2C07A
:0E04CA0002C003C004120346E582D004D00332
:0704D800D002600302057071
:0C04DF0090E679E50EF0C002C003C004F6
:0E04EB001202BCE582D004D003D002600302EE
:0204F90005708C
:0C04FB0090E679E50DF0C002C003C004DB
:0E0507001202BCE582D004D003D002705CFD6D
:0C051500C3ED950F50478A828B83E0FEF7
:0E052100A3AA82AB8390E679EEF0903A04E054
:0D052F00FFEE2FF0903A02E0FEA3E0FF90F7
:0E053C003A0274012EF0E43FA3F0C002C003A7
:0E054A00C004C0051202BCE582D005D004D06A
:0A05580003D00270130D8D0480B370
:0E05620090E678E04440F0C00412032CD00470
:030570008C822258
:0A057300903A38E0FA903A00E0F503
:06057D000AA3E0F50B8A61
:0C0583000C90E740C0021203AAAB82D02B
:0E058F00027C00903A00E0FDA3E0FE903A00EE
:0A059D00EA2DF0EC3EA3F08B822261
:0B05A700AA82903A00E0F50DA3E0F5F9
:0905B2000E8A0F90E740C002120E
:0E05BB0004B3D0027B00903A00E0FCA3E0FD08
:0B05C900903A00EA2CF0EB3DA3F0227A
:0C05D400AA82AB837C00E5117003F58265
:0105E00022F8
:0A05E1007508647509007582A6C054
:0E05EB0002C003C004120346E582D004D00310
:0705F900D00260030206BE00
:0C06000090E679E510F0C002C003C004D1
:0E060C001202BCE582D004D003D002600302CB
:02061A0006BE1A
:0E061C0090E678E04440F0C002C003C0041233
:0D062A00032C90E678E04480F0120312905B
:0E063700E67974A7F01202BCE582D004D0036D
:0E064500D002707590E679E08A828B83F0C057
:0E06530002C003C0041202E9E582D004D00305
:05066100D0027059FDFC
:0C066600C3ED9511502A90E679E08A82DD
:0E0672008B83F0A3AA82AB83C002C003C00436
:0E068000C0051202E9E582D005D004D003D0F7
:08068E0002702D0D8D0480D0D7
:0E06960090E678E04420F090E679E0C004128F
:0E06A40002E9E582D004701290E678E044404E
:0C06B200F090E679E0C00412032CD004A4
:0306BE008C822209
:0C06C100AA82AB837C00E5137003F58275
:0106CD00220A
:0A06CE007508647509007582A6C066
:0E06D80002C003C004120346E582D004D00322
:0706E600D00260030207B01F
:0C06ED0090E679E512F0C002C003C004E2
:0E06F9001202BCE582D004D003D002600302DE
:0207070007B039
:04070900AD127E00AF
:09070D00C3EE951340030207A29C
:0E0716008A828B83E0FFA3AA82AB8390E679F0
:0D072400EFF0C002C003C004C005C0061203
:0E07310002BCE582D006D005D004D003D00271
:0C073F00706F0D8D120E8E04ED20E3C2D1
:0C074B00C3EE951350BC90E678E04440EB
:0E075700F0C002C003C004C005C00612032C8F
:0A0765007508647509007582A6127C
:0E076F000346E582D006D005D004D003D002A8
:0E077D00703190E679EDF0C002C003C004C0F8
:0E078B0005C0061202BCE582D006D005D004DF
:09079900D003D002701102070D1B
:0E07A20090E678E04440F0C00412032CD0042E
:0907B000903A05E512F08C82225A
:0A07B900903A38E0FA903A05E0F5B6
:0907C300108A1190E740C00212F7
:0E07CC0005D4AB82D002903A05E0FCEA2CF096
:0307DA008B8222ED
:0207DD00AA82EE
:0A07DF00D280000000C280DAF72289
:0E07E900A2A0D28033C280A2A0D28033C280F0
:0E07F700A2A0D28033C280A2A0D28033C280E2
:0E080500A2A0D28033C280A2A0D28033C280D3
:0E081300A2A0D28033C280A2A0D28033C280C5
:07082100F58222758200221E
:02082800AA160E
:0E082A00A2A0D28033C280A2A0D28033C280AE
:0E083800A2A0D28033C280A2A0D28033C280A0
:0E084600A2A0D28033C280A2A0D28033C28092
:0E085400A2A0D28033C280A2A0D28033C28084
:05086200F0A3DAC4223E
:0E086700E582339281D28033C2809281D280AA
:0E08750033C2809281D28033C2809281D280C1
:0E08830033C2809281D28033C2809281D280B3
:0E08910033C2809281D28033C2809281D280A5
:04089F0000C28022F1
:0208A300AA1693
:0E08A500E0339281D28033C2809281D28033C0
:0E08B300C2809281D28033C2809281D2803383
:0E08C100C2809281D28033C2809281D2803375
:0E08CF00C2809281D28033C2809281D280A3F7
:0508DD00C280DAC42214
:0B08E200D2837582081207DDC283225A
:0808ED00D2837582080207DDC9
:0D08F500903A137405F01208E275820512A6
:0609020008677A007B008B
:0E090800C002C0031207E9E582D003D002301E
:0E091600E02E8A048B057E007F00C3EC94FF68
:0E092400ED94FFEE9400EF6480948050157502
:0E0932008200C002C0031207DDD003D0020A0B
:06094000BA00C50B80C2E5
:0C0946001207E9E58230E0047A0280022A
:020952007A0029
:09095400903A0EEAF01208ED9051
:06095D003A0EE0F58222D3
:0E096300AA82AB8320830A903A0E7404F075CA
:03097100820422DB
:0E09740053B4FE43B20BC002C0031208F5E5F7
:0E09820082D003D0026007903A0EE0F5822288
:0E099000903A08E0FCA3E07D00EC24F8FCEDBA
:09099E0034FFFD8CF005F0800629
:0609A700EA2AFAEB33FB23
:0E09AD00D5F0F7903A13740BF0C002C003129D
:0E09BB0008E275820B120867D0038B82C0031E
:0E09C900120867D003D0028A82120867758276
:0E09D700001208677582081207DD7582002283
:0409E50075820022F5
:0309E9000208ED14
:0909EC001208ED903A1BE4F01230
:0D09F50008F5E5826007903A0EE0F58222D9
:0D0A0200903A137406F01208E27582061295
:060A0F0008671208ED90DB
:0C0A15003A137402F01208E2758202121B
:0B0A21000867903A18E0A3E0F582128D
:0C0A2C000867903A18E0FAA3E08A8212F2
:0C0A3800086775820012086775820022B2
:0E0A4400AA82903A1BE0FB6012C0021209EC7D
:0D0A5200E582D0026007903A0EE0F58222A6
:0A0A5F008A82120867903A1AE090AC
:0C0A69003A1A04F0903A1AE0FA701C905F
:0E0A75003A18E0FAA3E0FB903A1874012AF058
:0D0A8300E43BA3F01208ED903A1B7401F063
:040A90007582002249
:0E0A9400AA82AB83903A1BE0FC6016C002C041
:0D0AA200031209ECE582D003D0026007903A
:060AAF003A0EE0F5822280
:090AB500903A1AE0FC700C851463
:0A0ABE00168A828B831208A380675A
:0B0AC800ECF4FC0CE5146006C3EC9598
:030AD30014504F6D
:0C0AD6008C168A828B83C002C003C0040F
:0C0AE2001208A3D004D003D002E514C316
:0C0AEE009CF514903A18E0FDA3E0FE9087
:0E0AFA003A1874012DF0E43EA3F0903A1AE48D
:0E0B0800F0EC2AFAE43BFBC002C0031209EC39
:0E0B1600E582D003D0026007903A0EE0F5822F
:010B240022AE
:080B25008514168A828B8312ED
:020B2D0008A31B
:0A0B2F00903A1AE0FAE5142AF0905B
:0E0B39003A1AE0FA701C903A18E0FAA3E0FBBA
:0E0B4700903A1874012AF0E43BA3F01208ED76
:060B5500903A1B7401F050
:040B5B00758200227D
:0E0B5F00AA82AB8320830A903A0E7404F075CC
:030B6D00820422DD
:0E0B700053B4FE43B20BC002C0031208F5E5F9
:0E0B7E0082D003D0026007903A0EE0F582228A
:0E0B8C00903A1CEAF0A3EBF0903A08E0FCA3CC
:0E0B9A00E07D00EC24F8FCED34FFFD8CF0054E
:030BA800F08006D4
:060BAB00EA2AFAEB33FB1D
:0E0BB100D5F0F7903A18EAF0A3EBF0903A1A5C
:0D0BBF00E4F0903A137406F0C002C0031277
:090BCC0008E275820612086712A6
:070BD50008ED903A12E090D8
:070BDC003A13F01208E29049
:0E0BE3003A12E0F582120867D0038B82C0033D
:0E0BF100120867D003D0028A8212086775824C
:080BFF00001208671208ED90D6
:090C07003A1B7401F07582002211
:070C10001208ED75820022BD
:030C17000208EDE3
:0E0C1A001208ED903A1CE0FAA3E0FB8A828BF0
:050C280083A3020B5F35
:0E0C2D0090E671E4F0903A077401F0903A0EF0
:0D0C3B00E4F0903A087410F0A37480F0907B
:0E0C48003A1274D8F053B4FE43B20BD2837547
:0C0C560082001207DD903A137490F01237
:0C0C620008E27582901208677582181273
:080C6E0007DD1207E9E58290A1
:070C76003A10F01208ED90A6
:0C0C7D003A13749FF01208E275829F1277
:060C8900086775160390D8
:060C8F003A1412082812BD
:0A0C950008ED903A16E0FABA1000DC
:0E0C9F00403DEA24E74038903A14E0903A0FC6
:0E0CAD00F0903A15E0903A11F0EA24F0FA8A3D
:090CBB00F005F07A017B008006CF
:060CC400EA2AFAEB33FB03
:0E0CCA00D5F0F7903A0AEAF0A3EBF0EB339581
:060CD800E0A3F0A3F022EE
:0E0CDE00903A07E4F0903A0E7407F053B2F427
:010CEC0022E5
:0A0CED00903A38E0F51690E7401247
:0B0CF7000828903A1EE0FABA020E90A6
:0D0D02003A36E0FAA3E0FB4A70030208ED68
:010D0F0022C1
:0A0D1000903A38E0F51490E7401225
:0B0D1A000A94903A1FE0FABA020E9013
:0D0D25003A36E0FAA3E0FB4A70030208ED45
:010D3200229E
:0E0D3300AAB674BF5AF5F0748045F0F5B653B9
:0E0D4100B17F90000112026543B180903A2705
:030D4F00E4F022AB
:0E0D520043B180AAB674BF5AF5F0748045F024
:0E0D6000F5B6E5B120E62453B17F740455B218
:0E0D6E00F5F0747045F0F5B274045580F5F0A0
:0E0D7C00742045F0F58090000112026543B12D
:010D8A0080E8
:060D8B00903A27E4F0227B
:0E0D910090E6017480F00000000090E670E42F
:0E0D9F00F090E671F0903A28E5B2F0903A2715
:0E0DAD00747BF053B204AAB674BF5AF5F0740A
:0E0DBB008045F0F5B653B17F43B27274045513
:0D0DC90080F5F0742245F0F58090000512D1
:0B0DD600026543B180C2817A007B00FF
:0E0DE1002087208A048B057E007F00C3EC94DF
:0E0DEF00FFED94FFEE9400EF648094805007B7
:070DFD000ABA00E00B80DDE3
:0A0E040043B2013087047AC880026F
:020E0E007A6404
:0E0E1000903A25EAF0903A21E4F0A3F0A3F026
:080E1E00A3F0903A20E4F02259
:010E260022A9
:070E27003087047A168002F7
:020E2E007A0B3D
:0A0E3000903A25E0FBEA2BF07A006F
:030E3A00BA4000BB
:090E3D005007D280C2800A80F443
:0E0E4600D281D280C280D280C280D280C2808F
:0E0E5400D280C280903A28E0F5B2E5B130E6D7
:040E620003020E2653
:010E66002269
:0C0E670085B41575B4FF903A38E0FB909C
:0E0E73003A21E0FCA3E0FDA3E0FEA3E0FF783F
:0E0E81000079007A00903A21EB2CF0E83DA3B6
:0E0E8F00F0E93EA3F0EA3FA3F090E68BE060AE
:0E0E9D0022FA759B40759AE775AF07903A20D0
:050EAB00E0F990E67B78
:0E0EB000E0F5A0D28029F9C280DAF5903A2050
:020EBE00E9F059
:0B0EC0008515B490E68BE0FABA400004
:050ECB005003020E2798
:010ED00022FF
:0E0ED100E582FA700FE5B130E60A903A267419
:060EDF0001F07582012202
:0E0EE500903A26E4F090E6017480F0000000E0
:0E0EF3000090E670E4F090E671F053B2045304
:0E0F0100B4FEAAB674BF5AF5F0748045F0F540
:0E0F0F00B653B17F43B23074045580F5F074D0
:0E0F1D001045F0F58090000112026543B1808E
:0A0F2B009000141202657A007B00AA
:0E0F350030872120811EC3EA94A0EB940F5058
:0E0F430015900001C002C003120265D003D059
:080F5100020ABA00DF0B80DC8C
:0E0F5900900001120265E5B130E605120E2689
:020F67008009FF
:090F6900120D52903A267404F0B6
:070F7200903A26E0F582220F
:0B0F7900903A06E0FA605675101A75F9
:060F84001104903A29124D
:0E0F8A0005D4903A2BE0FAA3E0FB4A603F90BA
:0E0F98003A29E0FCA3E0FDC3EC9AED9B400477
:040FA6008C028D0329
:050FAA001ABAFF011B53
:0E0FAF00903A08E0FCA3E07D00EC24F4FCED99
:090FBD0034FFFD8CF005F0800703
:070FC600C3EB13FBEA13FA71
:090FCD00D5F0F68A828B83A32281
:080FD6009000001209637A008B
:030FDE00BA08004E
:0D0FE1005016C0021207E9AB82D002EA9060
:0B0FEE001E5593FCEBB504030A80E5E0
:050FF900BA0802801A95
:0E0FFE007B00903A08E0FCA3E0FDECC39AF5FE
:0C100C0082ED9BF5831209E990000022A0
:0D1018001207E9AA82C0021207E9AB82901C
:0E1025003A08E0FCA3E0FDEC24F6F582ED3481
:0E103300FFF583C0031209E9D003D0028B043D
:0E104100E4FBFDEA4203ED42048B828C83A3A4
:01104F00227E
:0B105000903A06E0FA602F75101A7548
:06105B001104903A2D1271
:0E10610005D4903A2FE0FAA3E0FB4A60189005
:0D106F003A2DE0FAA3E0FB4A6003021113E2
:0A107C00903A267403F075820322F7
:0E108600900000120963E582600A903A267419
:0610940002F07582022249
:02109A007A00DA
:03109C00BA08008F
:0D109F005016C0021207E9AB82D002EA90A1
:0B10AC001E5593FCEBB504030A80E521
:0510B700BA08028020D0
:0E10BC007B00903A08E0FCA3E0FDECC39AF53F
:0E10CA0082ED9BF5831209E9903A267403F03B
:0410D80075820322F8
:0E10DC001207E9AA82C0021207E9AB82D00215
:0E10EA00EB4202903A08E0FBA3E0FCEB24F698
:0E10F800F582EC34FFF583C0021209E9D00244
:0D110600EA700A903A267403F07582032205
:0E111300758200120ED1AA82903A26EAF0BA36
:071121000105120E26800FEC
:0E112800BA040C758200120ED1E582903A26B0
:01113600F0C8
:07113700903A26E0F5822248
:01006C00286B
:01006D000191
:04006E005A54455843
:040072000A1200006E
:010076000089
:010077000187
:060078004700000000003B
:0C007E0000000000000000000000000076
:0A008A00303030303030303030308C
:01113E00228E
:0E113F0090E683E4F07420F07410F07430F049
:0E114D0090E6837401F07421F07411F0743197
:02115B00F02280
:0A115D00AA82E51724E0500375177D
:011167001F68
:0D11680090E6BFE0701090E6BEE0FBC3957E
:0911750017500690E6BEE0F517E4
:0C117E0075AF078A9B85169A759E417517
:0A118A009DE790E67C7403F07A0004
:0C119400C3EA9517501190E67BE0FB9039
:0B11A000E67CF090E67CE4F00A80E9B9
:0B11AB00E5170425E0FA90E740F09003
:0E11B600E7417403F090E68AE4F090E68BEADD
:0211C400F02217
:0E11C600903A36E0FAA3E0FBC374409AE49B33
:0811D40050067C407D00800400
:0411DC008A048B05F1
:0E11E000903A38ECF07D00903A36EAC39CF06D
:0511EE00EB9DA3F022BF
:0A11F300903A39E0FABA3102807731
:0511FD00BA320280750A
:05120200BA3902800A68
:05120700BA3C02802941
:05120C00BA4274802DC0
:0E121100903A04E4F0903A02F0A3F090E6BBAD
:0E121F00E0FB7A0090E6BAE0FC7D00903A0019
:08122D00EC4AF0ED4BA3F022A6
:0912350090E6BAE0903A05F022BF
:0D123E0090E6BDE0FA903A1FF0EA70419092
:0E124B00E6BBE0FB7A0090E6BAE07D004AF5D3
:0D12590082ED4BF583120B5FE5826026905D
:0E126600E6A0E04401F0903A36E4F0A3F02256
:03127400020D3335
:09127700903A27E0FABA7B01224B
:03128000020D91CB
:0812830090E6A0E0FA4401F03E
:01128B002240
:0C128C00C020C0E0C0F0C082C083C002DF
:0E129800C003C004C005C006C007C000C001EE
:0E12A600C0D075D00090E6B9E0FA903A39F069
:0E12B40090E6B57401F090E6B9E0FA24F3502C
:0412C20003021642CB
:0712C600EA2A2A9012CD7301
:0712CD000212F40213A80253
:0612D4001642021425027F
:0612DA001642021642025A
:0612E00014BD0215D80246
:0612E60015DA0215EB020F
:0612EC0015F002160102DC
:0212F2001606DE
:0A12F40090E6B8E0FABA8002800D1F
:0512FE00BA8102801E10
:05130300BA8202802FF8
:0313080002164288
:0E130B0090E740E4F090E741F090E68AF09021
:08131900E68B7402F00216429B
:0E13210090E740E4F090E741F090E68AF0900B
:08132F00E68B7402F002164285
:0C13370090E6BCE0FA600FBA01028019D9
:05134300BA80028005E4
:05134800BA812F801E98
:0E134D0090E6A0E0FA53020190E740EAF0803B
:01135B003A57
:0E135C0090E6A1E0FA53020190E740EAF0802B
:01136A002B57
:0E136B0090E6A2E0FA53020190E740EAF0801B
:011379001C57
:0E137A0090E6BCE0C31314540324A3F582E4F0
:0E13880034E6F583E0FA53020190E740EAF004
:0E13960090E741E4F090E68AF090E68B740256
:0413A400F0021642FB
:0A13A80090E6B8E0FABA02028003F2
:0313B200021642DE
:0913B50090E6BAE0600302164262
:0C13BE0090E6BCE0FA600FBA0102801556
:0513CA00BA800280055D
:0513CF00BA8123801625
:0B13D40090E6A0E0FA54FEF002164282
:0B13DF0090E6A1E0FA54FEF002164276
:0B13EA0090E6A2E0FA54FEF00216426A
:0E13F50090E6BCE0C31314540324A3FAE434BE
:0E140300E6FB90E6BCE0C31314540324A3F5EB
:0E14110082E434E6F583E0FC5304FE8A828B0D
:06141F0083ECF00216420E
:0A14250090E6B8E0FABA0202800374
:03142F0002164260
:0914320090E6BAE06003021642E4
:0C143B0090E6BCE0FA600FBA01028014D9
:05144700BA80028005DF
:05144C00BA81208014AC
:0A14510090E6A0E0FA4401F08041AB
:0A145B0090E6A1E0FA4401F08037AA
:0A14650090E6A2E0FA4401F0802DA9
:0E146F0090E6BCE0C31314540324A3FAE43443
:0E147D00E6FB90E6BCE0C31314540324A3F571
:0E148B0082E434E6F583E0FC4304FE8A828BA3
:0314990083ECF0F1
:0E149C0090E6BCE05480C423541FFA90E6BCD6
:0E14AA00E0FB740F5B420290E683EAF07420D0
:0514B8004AF00216429B
:0A14BD0090E6BBE0FABA01028019C4
:0514C700BA02028026BC
:0514CC00BA0302804D8F
:0614D100BA0603021591AA
:0614D700BA07030215A391
:0314DD000215CE27
:0A14E0007A8A7B1E90E6B3EBF090D1
:0814EA00E6B4748AF002164218
:0B14F20090E680E0FA30E7127AA67B5B
:0A14FD001E90E6B3EBF090E6B47425
:05150700A6F0021642EF
:0A150C007AC87B1E90E6B3EBF09066
:08151600E6B474C8F0021642AD
:0A151E0090E6BAE0FABA0102800F6D
:05152800BA0202801C64
:05152D00BA0302802951
:05153200BA044A8036F6
:0615370075825D7A5D7B08
:04153D001E8B167576
:06154100170512115D0206
:0215470016424A
:061549007582627A627BEC
:04154F001E8B167564
:06155300172012115D02D9
:02155900164238
:0A155B0075828A7A8A7B008B167570
:06156500170A12115D02DD
:02156B00164226
:06156D007582827A827B88
:041573001E8B167540
:06157700170812115D02CD
:02157D00164214
:0A157F007AEA7B1E90E6B3EBF090D1
:08158900E6B474EAF002164218
:0A1591007A9C7B1E90E6B3EBF0900D
:08159B00E6B4749CF002164254
:0B15A30090E680E0FA30E7127AC87B87
:0A15AE001E90E6B3EBF090E6B47473
:0515B800C8F00216421C
:0A15BD007AA67B1E90E6B3EBF090D7
:0715C700E6B474A6F0807485
:0A15CE0090E6A0E0FA4401F0806A04
:0215D800806829
:0E15DA0090E740E4F090E68AF090E68B740112
:0315E800F0805739
:0515EB0012113F8052C7
:0E15F00090E740E4F090E68AF090E68B7401FC
:0315FE00F0804139
:0516010012113F803CC6
:0E16060090E6B8E0FABA823490E6BCE0C31376
:0B16140014540325E0243BF582E4346D
:0C161F003AF583E4F0A3F090E685E0903B
:0D162B00E740F090E684E0FA90E741F0908F
:0A163800E68AE4F090E68B7402F0FD
:0B16420090E6B8E0FABA400302186D11
:05164D00BAC002800399
:03165200021897E4
:0E16550090E6BFE0FB7A0090E6BEE0FC7D0070
:0E166300903A36EC4AF0ED4BA3F01211C6900F
:09167100E6B9E0FABA2202803168
:06167A00BA300302181350
:05168000BA38028043AE
:05168500BA3A02806783
:06168A00BA3B0302173019
:06169000BA3D03021749F8
:06169600BA400302176ACE
:06169C00BA41030217A091
:0616A200BA43030217ED3C
:0316A800021863C2
:0E16AB0090E6B5E4F090E68AF090E68B7428A5
:0D16B900F090E6B3E4F090E6B4746CF0023B
:0216C600189773
:0E16C80090E6BBE0FB7A0090E6BAE0FC7D0005
:0E16D600903A00EC4AF0ED4BA3F090E68AE467
:0D16E400F0120573E58290E68BF002189776
:0E16F100903A02E0FAA3E0FB8A0490E740EC96
:0D16FF00F08B0290E741EAF0903A04E09091
:0A170C00E742F07508007509017549
:0D17160082A2120346AA8290E743EAF090F7
:0D172300E68AE4F090E68B7404F00218975B
:0E17300090E6BAE0903A05F090E68AE4F012F6
:0B173E0007B9E58290E68BF0021897D7
:0A1749007508007509017582A612EB
:0E1753000346AA8290E740EAF090E68AE4F0AE
:0917610090E68B7401F002189768
:0E176A00903A0EE0FA7009208306903A0E7451
:0217780004F07B
:06177A00759B077A077B56
:0C1780003A8B9A759E40759DE7C0027A76
:0E178C00081202ADD00290E68AE4F090E68BDF
:06179A007408F00218972C
:0D17A00090E6BDE0FA903A1EF0EA702D9040
:0E17AD00E6BBE0FB7A0090E6BAE07D004AF56C
:0D17BB0082ED4BF583120963E58260129008
:0E17C800E6A0E0FA4401F0903A36E4F0A3F017
:0317D6000218975F
:0E17D900120CED90E68AE4F0903A38E0FA90B7
:0617E700E68BF0021897EA
:0617ED00759B0E7A0E7BD5
:0C17F3003A8B9A759E40759DE7C0027A03
:0E17FF000A1202ADD00290E68AE4F090E68B6A
:06180D00740AF0021897B6
:06181300759B207A207B8A
:0C1819003A8B9A759E417A417BE78B9DCB
:0E182500C0027A071202ADD002AAB674BF5AF2
:0E183300F5F0748045F0F5B6E5B130E60790AB
:06184100E740E4F080091D
:0918470090E7407401F0120D332A
:0E18500090E7487401F090E68AE4F090E68B91
:05185E007409F0803464
:0A18630090E6A0E0FA4401F0802AAC
:0C186D0090E6BFE0700690E6BEE060165A
:0E187900903A3A7401F090E68BE4F05391EF50
:0818870090E65D7401F0801988
:08188F001211F390E68BE4F066
:0E1897005391EF90E65D7401F090E6A0E0FA48
:0318A5004480F08C
:0E18A800D0D0D001D000D007D006D005D0049B
:0D18B600D003D002D083D082D0F0D0E0D09B
:0218C3002032D1
:0E18C500C0E0C082C0835391EF90E65D7402D4
:0818D300F0D083D082D0E03296
:0E18DB00C0E0C082C0835391EF90E65D7404BC
:0818E900F0D083D082D0E03280
:0E18F100C0E0C082C0835391EF90E65D7408A2
:0818FF00F0D083D082D0E0326A
:0E190700C0E0C082C0835391EF90E65D741083
:08191500F0D083D082D0E03253
:0E191D00C0E0C082C0835391EF90E65D74205D
:08192B00F0D083D082D0E0323D
:0E193300C0E0C082C0835391EF90E65D744027
:08194100F0D083D082D0E03227
:0C194900C020C0E0C0F0C082C083C0021B
:0E195500C003C004C005C006C007C000C0012A
:0E196300C0D075D000C2E81211C6903A39E02B
:07197100FABA30030219E38A
:05197800BA3802801ED8
:05197D00BA3A0280618E
:05198200BA3B028024C5
:05198700BA3D0280578B
:05198C00BA4002805288
:05199100BA41028025AF
:05199600BA4341804846
:0E199B0090E68AE4F0120573E58290E68BF088
:0219A900803884
:0E19AB0090E68AE4F01207B9E58290E68BF030
:0219B900802884
:0D19BB00903A38E0FA6008903A0EE4F0121D
:0219C8000CED24
:0E19CA0090E68AE4F0903A38E0FA90E68BF06E
:0219D800800984
:0919DA0090E68AE4F090E68BF03F
:0E19E3005391EF90E65F7401F0D2E8D0D0D0BF
:0E19F10001D000D007D006D005D004D003D01E
:0C19FF0002D083D082D0F0D0E0D02032A3
:0C1A0B00C020C0E0C0F0C082C083C00258
:0E1A1700C003C004C005C006C007C000C00167
:0E1A2500C0D075D000C2E8903A3AE0FA6020D6
:0D1A3300903A3AE4F090E6BFE0FB7A0090B4
:0E1A4000E6BEE0FC7D00903A36EC4AF0ED4B3D
:051A4E00A3F01211F3EA
:0D1A53001211C6903A39E0FABA31028060F3
:051A6000BA32028058BB
:051A6500BA3902800AFD
:051A6A00BA3C028010EF
:051A6F00BA424E801F89
:0B1A740090E68BE0F5821205A7804190
:0B1A7F00903A05E0F51290E68BE0F5D0
:091A8A001390E7401206C1802D03
:0D1A9300903A38E0FA6026903A0EE4F01226
:0A1AA0000D10903A0EE0FA601712E4
:0E1AAA0008ED90E6A0E0FA4401F0903A36E430
:051AB800F0A3F0800323
:031ABD00120E679F
:0E1AC00090E68BE4F05391EF90E65F7402F035
:0E1ACE00903A36E0FAA3E0FB4A700890E6A0DA
:051ADC00E0FA4480F077
:0E1AE100D2E8D0D0D001D000D007D006D0057A
:0E1AEF00D004D003D002D083D082D0F0D0E05B
:031AFD00D02032C4
:0E1B0000C0E0C082C0835391EF90E65F740492
:081B0E00F0D083D082D0E03258
:0E1B1600C0E0C082C0835391EF90E65F740878
:081B2400F0D083D082D0E03242
:0E1B2C00C0E0C082C0835391EF90E65F74105A
:081B3A00F0D083D082D0E0322C
:0E1B4200C0E0C082C0835391EF90E65F742034
:081B5000F0D083D082D0E03216
:0E1B5800C0E0C082C0835391EF90E65F7440FE
:081B6600F0D083D082D0E03200
:0E1B6E00C0E0C082C0835391EF90E65F7480A8
:081B7C00F0D083D082D0E032EA
:071B840075100075110390BC
:061B8B003A311205D4906E
:0E1B91003A31E0FABA4324903A32E0FABA440C
:0E1B9F001C903A33E0FABA3014903A06740102
:0A1BAD00F075101075110A90008AFF
:051BB7001205D48005B9
:051BBC00903A06E4F080
:021BC1007A00A8
:031BC300BA0A005B
:0E1BC6005012EA248AF582E43400F583E0FB35
:061BD400BB30540A80E959
:071BDA007510FB7511059069
:091BE1003A311205D47A007B00B0
:031BEA00BB050038
:0A1BED00503CEB2431F582E4343A59
:0E1BF700F583E0FCEA248AFDE43400FEECC431
:0E1C0500540F901EEE93FF8D828E83F00AEA3C
:0E1C1300248AFDE43400FE740F5C901EEE93F4
:0A1C2100FC8D828E83F00A0B80BF59
:011C2B002296
:0E1C2C0090E680E04408F090E6007412F0901C
:0C1C3A000002120265538EF8120D529049
:0E1C46003A2674FFF0C2AFC2E8900043740269
:0E1C5400F09000447401F090004574B8F090D8
:0D1C6200E668E04408F09001007402F07A9A
:0A1C6F008C7B128B04900101ECF055
:0C1C7900900102EAF09001047402F07A7D
:0A1C8500C57B188B04900105ECF0FC
:0C1C8F00900106EAF09001087402F07A5F
:0A1C9B00DB7B188B04900109ECF0CC
:0C1CA50090010AEAF090010C7402F07A41
:0A1CB100F17B188B0490010DECF09C
:0C1CBB0090010EEAF09001107402F07A23
:0A1CC700077B198B04900111ECF06B
:0C1CD100900112EAF09001147402F07A05
:0A1CDD001D7B198B04900115ECF03B
:0C1CE700900116EAF09001187402F07AE7
:0A1CF300337B198B04900119ECF00B
:0C1CFD0090011AEAF09001207402F07AC5
:0A1D0900497B198B04900121ECF0D6
:0C1D1300900122EAF09001247402F07AA2
:0A1D1F000B7B1A8B04900125ECF0F9
:0C1D2900900126EAF09001287402F07A84
:0A1D3500007B1B8B04900129ECF0E9
:0C1D3F0090012AEAF090012C7402F07A66
:0A1D4B00167B1B8B0490012DECF0B9
:0C1D550090012EEAF09001307402F07A48
:0A1D61002C7B1B8B04900131ECF089
:0C1D6B00900132EAF09001347402F07A2A
:0A1D7700427B1B8B04900135ECF059
:0C1D8100900136EAF09001387402F07A0C
:0A1D8D00587B1B8B04900139ECF029
:0C1D970090013AEAF090013C7402F07AEE
:0A1DA3006E7B1B8B0490013DECF0F9
:0E1DAD0090013EEAF05391EF90E65D747FF0F6
:0E1DBB0090E65CE0FA447FF090E65F74FFF083
:0E1DC90090E65E74FFF0D2E8D2AF90E611749F
:0E1DD700A0F00000000090E61074A0F00000E4
:0E1DE500000090E612E4F00000000090E6130B
:0E1DF300E4F00000000090E614E4F0000000B0
:0E1E01000090E615E4F000000000120C2D9099
:0D1E0F003A07E0FA70099000FA120265121D
:021E1C000C2D8B
:0E1E1E00121B8412105090E680E04482F09077
:0D1E2C00000A12026590E680E054F7F022F3
:0B1E3900121C2C903A06E0FA600C909E
:061E44001E767510067504
:051E4A0011011205D496
:021E4F0080FE13
:081E55005A54455842530101A3
:051E5D005A5445580035
:0E1E62005553422D46504741204D6F64756C1C
:0E1E70006520322E30312020286465666175B1
:041E7E006C74290057
:081E820064656661756C740073
:0E1E8A0012010002FFFFFF401A2200010000BB
:041E9800010203013F
:0A1E9C000A060002FFFFFF400100EC
:0E1EA60009022000010104C0320904000002FC
:0E1EB400FFFFFF000705810200020007050185
:041EC2000200020018
:021EC60000001A
:0E1EC80009022000010104C0320904000002DA
:0E1ED600FFFFFF000705810240000007050125
:041EE40002400000B8
:021EE8000000F8
:041EEA0004030000ED
:0E1EEE003031323334353637383941424344CF
:031EFC0045460058
:021EFF000000E1
:011F010000DF
:011F0200FFDF
:011F030000DD
:081F04000000000000000000D5
:06023700E478FFF6D8FD9B
:08021500790DE94400601B7A39
:05021D0001901EFF78B6
:030222003675929C
:0A0225003AE493F2A308B8000205C2
:08022F0092D9F4DAF27592FF96
:08023D007800E84400600A7932
:03024500007592AF
:060248003AE4F309D8FCC2
:08024E007836E84400600C79E9
:0B02560001903A00E4F0A3D8FCD9FAB4
:03020800758120DD
:0A020B00121E51E582600302020397
:041E51007582002274
:00000001FF
