:03000000020008F3
:0300610002000397
:0500030012011F80FE48
:10006400AA82AB83ACF07D00C3ED951D50578D067D
:10007400C3EE951D504CED2AFFE43BF88C018F82B2
:10008400888389F012019AF51EEE2AF51FE43BF5E8
:10009400208C21851F828520838521F012019AF509
:1000A40022C3951E50198F82888389F0E52212019C
:1000B40081851F828520838521F0E51E1201810E32
:1000C40080AE0D80A322AA82AB83ACF07D00C3ED89
:1000D40095205035ED2AFEE43BFF8C008E828F8301
:1000E40088F012019AFE8E80ED251DFFE4351EF87E
:1000F400A91F8F82888389F012019AFF8F90EEB531
:100104000702800205080D80C5E508600775A05543
:100114008508B02275A0AA75B0AA22750913750ABC
:1001240012750B0E750C0F750D10750E11750F0DE4
:1001340075100B75110C75120A75130A75140B756D
:10014400150C75160D75170E75180F751910751A8F
:1001540011751B12751C13750800751D0A90000992
:1001640075F040120064751D13751E00751F4075EF
:0D017400200A90000975F0401200CA80FEBC
:06003700E478FFF6D8FD9D
:100015007900E94400601B7A009001BA780075A068
:1000250000E493F2A308B8000205A0D9F4DAF2754A
:02003500A0FF2A
:1001810020F71030F6118883A88220F507F6A8839E
:0901910075830022F280F7F022D0
:10003D007800E84400600A790075A000E4F309D85F
:10004D00FC7800E84400600C7900900000E4F0A317
:04005D00D8FCD9FAF8
:0D0008007581221201B6E58260030200033B
:10019A0020F71430F6148883A88220F507E6A8838E
:1001AA0075830022E280F7E49322E022758200221E
:00000001FF
