:03000000020008F3
:0300610002000397
:0500030012006580FE03
:10006400227A00900001C002120064858280D002CE
:100074007401B5800280027A01900123C00212004B
:1000840064858280D0027423B5800280010A9023A3
:100094004575F001E4C002120064858280D00274C8
:1000A40045B5800280010A90456775F0237401C04C
:1000B40002120064858280D0027467B580028001D8
:1000C4000AEA600775A0558AB0800675A0AA75B0C3
:0300D400AA80FE01
:06003700E478FFF6D8FD9D
:100015007900E94400601B7A009000DB780075A048
:1000250000E493F2A308B8000205A0D9F4DAF2754A
:02003500A0FF2A
:10003D007800E84400600A790075A000E4F309D85F
:10004D00FC7800E84400600C7900900000E4F0A317
:04005D00D8FCD9FAF8
:0D0008007581071200D7E582600302000336
:0400D700758200220C
:00000001FF
