:06000000020E2302006B5A
:03000B0002006B85
:0300130002006B7D
:03001B0002006B75
:0300230002006B6D
:03002B0002006B65
:0300330002006B5D
:03003B0002006B55
:0300430002006B4D
:03004B0002006B45
:0300530002006B3D
:03005B0002006B35
:0300630002006B2D
:01006B003262
:2000800002006B0002006B0002006B0002006B0002006B0002006B0002006B0002006B00F8
:1800A00002006B0002006B0002006B0002006B0002006B0002006B00BA
:2001000002006B0002006B0002006B0002006B0002006B0002006B0002006B0002006B0077
:2001200002006B0002006B0002006B0002006B0002006B0002006B0002006B0002006B0057
:2001400002006B0002006B0002006B0002006B0002006B0002006B0002006B0002006B0037
:2001600002006B0002006B0002006B0002006B0002006B0002006B0002006B0002006B0017
:030E2900020E2F87
:030E4200020E2C71
:030E2C000203F4CA
:20018000C200E4F508F509F50AD201750B00750C001205FC1205F975CB6375CAC0758E0023
:2001A00075C804D2AFD2B0D2B122AF82850C827583E0EFF0050C0509E4B50902050A222047
:2001C0000001221205F890E6A2E0FF30E10302025BE509450A606A7EC07FE78F9D7EC07FEF
:2001E000E77F008E9E90E67C7431F07460F0C3743E9509E4950A50107F3EE50924C2F5099D
:20020000E50A34FFF50A8007AF09E4F509F50A8F067C007DE08D9A850B9B8F051FED6010CD
:2002200090E67BE090E67CF07C007DE08D9A80EA859B0B00000090E68F74022EF0D2CF80BC
:200240001A30CF1790E7C07431F090E7C17460F000000090E68F7402F0C2CFE5AA30E0010A
:2002600022C3E50994C1E50A940040012290E690E0FE7F0090E691E0FD7C00EF4DF50DEE81
:200280004CF50E7C007DF08D9A7C007DF08C9B7C007D00C3EC950DED950E400302036BE57D
:2002A00008700302032AE50DC39CFAE50E9DFBA8087900C3E89AE99B5004880289038A01D7
:2002C000E508C399F508EA2CFCEB3DFD30012C8A008B018806890718B8FF0119EE4F60B3D7
:2002E00090E67BE0F582C005C004C001C000120635D000D001D004D00580D88A068B078E0D
:20030000028F031EBEFF011FEA4B608790E67BE0F582C007C006C005C0041206721201AA8D
:20032000D004D005D006D00780D590E67BE0FFA2E69202B39201EF30E707743F5FF5088044
:200340002230010F8F82C005C004120607D004D00580108F82C005C0041206271201AAD0E3
:2003600004D0050CBC00010D02029300000090E6917480F02290E6B8E0FF20E70C90E6B9DB
:20038000E07002D2007582012290E6B9E0FFBF902B90E6BCE025E0547FFF2400F582E434FB
:2003A00018F583E0FE90E740F0EF042400F582E43418F583E0FF90E741F0800C90E74074B4
:2003C00036F090E7417483F090E68AE4F090E6BEE0FFBF0200500790E6BEE0FF80027F0243
:2003E00090E68BEFF0758201223004031209641201BF80F5C2AF90E609E4F0120180120697
:12040000C1120459120D351208CBD2AF1207BB0203E93E
:20041200AF82E50F54FEFEB50F02802A8F048C05E4FC6210ED6211EE2400F582E43418F561
:2004320083E0FE7D006210ED6211E51033C51133C51192E0F510AE0F050FEE2400F582E43E
:200452003418F583EFF022750F007510AA7511AA7582001204127582001204127F00EF2412
:2004720008F582E434E1F583E0F582C007120412D0070FC3EF6480948640E37F00EF2423C6
:20049200F582E434E1F583E0F582C007120412D0070FC3EF6480948240E375821C1204122C
:2004B2007582001204127F00EF2402F582E434E1F583E0F582C007120412D0070FC3EF644D
:2004D20080948240E37486250FFFF582C00712041290E186E0F582120412D00790E186E09A
:2004F2002FFFF582C00712041290E1A4E0F582120412D00790E1A4E02FF58212041290E1B7
:20051200BCE0F5821204127F0090E186E0FEC3EF64808EF063F08095F05017EF2486F58257
:20053200E434E1F583E0F582C007120412D0070F80D77F0090E1A4E0FEC3EF64808EF063CC
:20055200F08095F05017EF24A4F582E434E1F583E0F582C007120412D0070F80D77F0090FC
:20057200E1BCE0FEC3EF64808EF063F08095F05017EF24BCF582E434E1F583E0F582C00746
:20059200120412D0070F80D77F00EF240EF582E434E1F583E0F582C007120412D0070FC36D
:2005B200EF6480948440E37482250F400875820012041280F2AE1090187EEEF0AF119018EE
:2005D2007FEFF0227880E84400600C7901901800E4F0A3D8FCD9FAD083D082F6D8FDC08207
:0605F200C08375820022A7
:20E100001201000200000040C016EF030400010203010A060002FFFFFF400100090220005C
:20E1200001010080FA0904000002FFFFFF020705810200020007050202000200120100029D
:20E1400000000040C016EF030400010203010A060002FFFFFF4001000902200001010080AF
:20E16000FA0904000002FFFFFF0207058102400000070502024000000482E186E1A4E1BC69
:01E18000E1BD
:20E18200040309041E037700770077002E0072006500740072006F00310031002E00640095
:20E1A200650018036E00650078007900730032005F006A00740061006700120330003000FA
:0CE1C20030003000300030003000300031
:2005F80022222222D2B775B5809001F4020E12AF82AEB574FE5E441CF5B5EF13920392B436
:20061800EFA2E1920392B3EFA2E4920392B222120607A2B0E433FF74024FF58222E58213A7
:2006380092B2D2B413C2B492B2D2B413C2B492B2D2B413C2B492B2D2B413C2B492B2D2B48C
:2006580013C2B492B2D2B413C2B492B2D2B413C2B492B2D2B400C2B42222E582A2B0139271
:20067800B2D2B4C2B4A2B01392B2D2B4C2B4A2B01392B2D2B4C2B4A2B01392B2D2B4C2B4C5
:20069800A2B01392B2D2B4C2B4A2B01392B2D2B4C2B4A2B01392B2D2B4C2B4A2B01392B2AA
:0906B800D2B400C2B4F582222282
:2006C10090E6007412F090E60174ABF090E6707480F000000090E60274E0F000000090E6AB
:2006E1000374F9F000000090E6047480F000000090E60B7403F000000090E610E4F00000F9
:200701000090E61174A0F000000090E618E4F000000090E6047402F000000090E61274A26D
:20072100F000000090E6137402F000000090E6147402F000000090E6157402F00000009068
:20074100E6047404F000000090E6047406F000000090E6047408F000000090E604E4F0002E
:20076100000090E619E4F000000090E61AE4F000000090E61BE4F000000090E60BE4F000F7
:18078100000000000090E6917480F000000090E6917480F00000002268
:2007990090E6A0E04401F022AF8274805FC423541FFE740F5F90E6834EF090E683E04420C1
:2007B900F02290E680E0440AF09000FA120E1290E65D74FFF090E65F74FFF0AF9174EF5FCE
:0A07D900F59190E680E054F7F0225D
:060E3C00E478FFF6D8FD8A
:060E2300751200751300BA
:2007E30090E680E0FF30E7197514007515E17516127517E175181C7519E1751A58751BE183
:200803002275143C7515E175164E7517E17518587519E1751A1C751BE122C0E0C007C0D0B4
:2008230075D000AF9174EF5FF59175A100D204D0D0D007D0E032C021C0E0C0F0C082C083ED
:20084300C007C006C005C004C003C002C001C000C0D075D000AF9174EF5FF59175A10012F4
:2008630007E3D0D0D000D001D002D003D004D005D006D007D083D082D0F0D0E0D02132C057
:2008830021C0E0C0F0C082C083C007C006C005C004C003C002C001C000C0D075D000AF912E
:2008A30074EF5FF59175A1001207E3D0D0D000D001D002D003D004D005D006D007D083D07C
:2008C30082D0F0D0E0D021321207E3751C1D751D08758200120C8E751C39751D08758210AE
:2008E300120C8E751C82751D08758214120C8E90E65C7431F022AF828F06747F5EFF24F72B
:20090300500475820022BF010475820122530701E4BF000104F58222AF82BF010C90E6A1D9
:20092300E0FE7D008E828D8322BF810C90E6A2E0FE7D008E828D83228F06747F5EFF700CB5
:2009430090E6A0E0FE7D008E828D832290E6A3E0FE7D00EFC3137C002EFEEC3D8E82F5834F
:2009630022C20490E6B8E0FF5307608F06BE00028028BF2002800DBF4002800EBF6002802A
:2009830003020C23120799020C23120375E5826003020C23120799020C2390E6B8E0FF5375
:2009A3000780BF80028003020B2790E6B9E0FFBF0003020A9EBF06028035BF08028008BFAF
:2009C3000A028017020B2190E740E512F090E68AE4F090E68B7401F0020C2390E740E5138B
:2009E300F090E68AE4F090E68B7401F0020C2390E6BBE0FFBF01028017BF02028038BF03F3
:200A0300028059BF0602801BBF0702803C020A98AE14AF1590E6B3EFF07F0090E6B4EEF059
:200A2300020C23AE16AF1790E6B3EFF07F0090E6B4EEF0020C23AE18AF1990E6B3EFF07F23
:200A43000090E6B4EEF0020C23AE1AAF1B90E6B3EFF07F0090E6B4EEF0020C2390E6BAE0F8
:200A6300FF90E178E0FEC3EF9E4006120799020C2390E6BAE075F002A42479F58274E1357B
:200A8300F0F583E0FEA3E090E6B3F07F0090E6B4EEF0020C23120799020C2390E6B8E0FFC9
:200AA30053071F8F06BE0002800ABE0102801BBF0266802C90E740E4F090E741F090E68A79
:200AC300F090E68B7402F0020C2390E740E4F090E741F090E68AF090E68B7402F0020C23D0
:200AE30090E6BCE0F5821208F9E582602590E6BCE0F58212091BE0FF53070190E740EFF0DC
:200B030090E741E4F090E68AF090E68B7402F0020C23120799020C23120799020C231207DF
:200B230099020C2390E6B9E0FF24F45003020C20EF240A83F582EF241083F583E473206B2A
:200B4300E8C920202020205920620C0B0B0B0C0C0C0C0C0B0C0B90E6BAE0F512020C239003
:200B6300E6BAE0F513020C2390E6B8E0FF53071F8F06BE00028005BF0247800A90E6BAE0B7
:200B8300120799020C2390E6BAE0703090E6BCE0F5821208F9E582602390E6BCE0F582129E
:200BA300091BAE82AF83E0FD5305FE8E828F83EDF090E6BCE0F5821207A180641207998021
:200BC3005F120799805A90E6B8E0FF53071FBF004F90E6BAE0FFBF01028005BF02028040BA
:200BE300120799803B90E6BAE0FF702C90E6BCE0F5821208F9E582601A90E6BCE0F58212C2
:200C0300091BAE82AF83E0FD4305018E828F83EDF0800D1207998008120799800312079978
:080C230090E6A0E04480F022FD
:200C2B00AF82BF03004005EF249C500122740F5FFEBE03028007740F5FFEBE0B45A2AF9254
:200C4B0005C2AFEF2400F582E43400F5837402F07E0074012FFCE43EFDEC2400F582ED34AE
:200C6B0000F583E51DFDF074022FFFE43EFEEF2400F582EE3400F583AE1C7F00EEF0A2054C
:200C8B0092AF22E582FF2483500122EF5403600122A2AF9206C2AFEF2400F582E43401F5AB
:200CAB00837402F07E0074012FFCE43EFDEC2400F582ED3401F583E51DF074022FFFE43E2A
:200CCB00FEEF2400F582EE3401F583AE1CEEF0A20692AF22AF82BF80004005EF244B5001CF
:200CEB0022EF5403600122A2AF9207C2AFEF2480F582E43400F5837402F07E0074012FFC85
:200D0B00E43EFDEC2480F582ED3400F583E51DF074022FFFE43EFEEF2480F582EE3400F532
:200D2B0083AE1CEEF0A20792AF22C2E8C2EA751C00751D01758243120C2B751C80751D00D1
:200D4B00758253120C2B00000090E650E4F000000090E652E4F000000090E654E4F0000021
:200D6B000090E656E4F000000090E65174FFF000000090E65374FFF000000090E65574FF34
:200D8B00F000000090E65774FFF000000090E658E4F090E65974FFF090E65AE4F090E65BDF
:200DAB0074FFF090E65CE4F090E65D74FFF090E65EE4F090E65F74FFF000000090E660E44F
:200DCB00F000000090E66174FFF090E662E4F090E66374FFF090E665E4F090E668740BF0FA
:130DEB00AF9174EF5FF591AF9174BF5FF591D2E8D2EA227D
:200DFE0022AF82120DFEDFFB2290FB50A3E582458370F922AE82AF83120E071EBEFF011FAD
:050E1E00EE4F70F4220C
:0D0E2F007581211205D6E5826003020E2CAC
:00000001FF
