:06000000020E9302006BEA
:03000B0002006B85
:0300130002006B7D
:03001B0002006B75
:0300230002006B6D
:03002B0002006B65
:0300330002006B5D
:03003B0002006B55
:0300430002006B4D
:03004B0002006B45
:0300530002006B3D
:03005B0002006B35
:0300630002006B2D
:01006B003262
:2000800002006B0002006B0002006B0002006B0002006B0002006B0002006B0002006B00F8
:1800A00002006B0002006B0002006B0002006B0002006B0002006B00BA
:2001000002006B0002006B0002006B0002006B0002006B0002006B0002006B0002006B0077
:2001200002006B0002006B0002006B0002006B0002006B0002006B0002006B0002006B0057
:2001400002006B0002006B0002006B0002006B0002006B0002006B0002006B0002006B0037
:2001600002006B0002006B0002006B0002006B0002006B0002006B0002006B0002006B0017
:030E9900020E9FA7
:030EB200020E9C91
:030E9C000203F45A
:20018000C200E4F508F509F50AD201750B00750C001205FC1205F975CB6375CAC0758E0023
:2001A00075C804D2AFD2B0D2B122AF82850C827583E0EFF0050C0509E4B50902050A222047
:2001C0000001221205F890E6A2E0FF30E10302025BE509450A606A7EC07FE78F9D7EC07FEF
:2001E000E77F008E9E90E67C7431F07460F0C3743E9509E4950A50107F3EE50924C2F5099D
:20020000E50A34FFF50A8007AF09E4F509F50A8F067C007DE08D9A850B9B8F051FED6010CD
:2002200090E67BE090E67CF07C007DE08D9A80EA859B0B00000090E68F74022EF0D2CF80BC
:200240001A30CF1790E7C07431F090E7C17460F000000090E68F7402F0C2CFE5AA30E0010A
:2002600022C3E50994C1E50A940040012290E690E0FE7F0090E691E0FD7C00EF4DF50DEE81
:200280004CF50E7C007DF08D9A7C007DF08C9B7C007D00C3EC950DED950E400302036BE57D
:2002A00008700302032AE50DC39CFAE50E9DFBA8087900C3E89AE99B5004880289038A01D7
:2002C000E508C399F508EA2CFCEB3DFD30012C8A008B018806890718B8FF0119EE4F60B3D7
:2002E00090E67BE0F582C005C004C001C000120630D000D001D004D00580D88A068B078E12
:20030000028F031EBEFF011FEA4B608790E67BE0F582C007C006C005C00412066D1201AA92
:20032000D004D005D006D00780D590E67BE0FFA2E69202B39201EF30E707743F5FF5088044
:200340002230010F8F82C005C004120602D004D00580108F82C005C0041206221201AAD0ED
:2003600004D0050CBC00010D02029300000090E6917480F02290E6B8E0FF20E70C90E6B9DB
:20038000E07002D2007582012290E6B9E0FFBF902B90E6BCE025E0547FFF2400F582E434FB
:2003A00018F583E0FE90E740F0EF042400F582E43418F583E0FF90E741F0800C90E74074B4
:2003C00036F090E7417483F090E68AE4F090E6BEE0FFBF0200500790E6BEE0FF80027F0243
:2003E00090E68BEFF0758201223004031209D41201BF80F5C2AF90E609E4F0120180120627
:12040000BC120459120DA512093BD2AF12082B0203E9F1
:20041200AF82E50F54FEFEB50F02802A8F048C05E4FC6210ED6211EE2400F582E43418F561
:2004320083E0FE7D006210ED6211E51033C51133C51192E0F510AE0F050FEE2400F582E43E
:200452003418F583EFF022750F007510AA7511AA7582001204127582001204127F00EF2412
:2004720008F582E434E1F583E0F582C007120412D0070FC3EF6480948640E37F00EF2423C6
:20049200F582E434E1F583E0F582C007120412D0070FC3EF6480948240E375821C1204122C
:2004B2007582001204127F00EF2402F582E434E1F583E0F582C007120412D0070FC3EF644D
:2004D20080948240E37486250FFFF582C00712041290E19CE0F582120412D00790E19CE06E
:2004F2002FFFF582C00712041290E1BAE0F582120412D00790E1BAE02FF58212041290E18B
:20051200E4E0F5821204127F0090E19CE0FEC3EF64808EF063F08095F05017EF249CF58203
:20053200E434E1F583E0F582C007120412D0070F80D77F0090E1BAE0FEC3EF64808EF063B6
:20055200F08095F05017EF24BAF582E434E1F583E0F582C007120412D0070F80D77F0090E6
:20057200E1E4E0FEC3EF64808EF063F08095F05017EF24E4F582E434E1F583E0F582C007F6
:20059200120412D0070F80D77F00EF240EF582E434E1F583E0F582C007120412D0070FC36D
:2005B200EF6480948440E37482250F400875820012041280F2AE1090187EEEF0AF119018EE
:2005D2007FEFF0227880E84400600C7901901800E4F0A3D8FCD9FAD083D082F6D8FDC08207
:0605F200C08375820022A7
:20E100001201000200000040C016EF030400010203010A060002FFFFFF4001000902350047
:20E1200001010080FA0904000005FFFFFF020705810200020007050202000200070504029D
:11E1400000020007058602000200070588020002009E
:20E152001201000200000040C016EF030400010203010A060002FFFFFF400100090220000A
:20E1720001010080FA0904000002FFFFFF0207058102400000070502024000000498E19CCB
:05E19200E1BAE1E4E147
:20E19800040309041E037700770077002E0072006500740072006F00310031002E0064007F
:20E1B80065002A036E00650078007900730033005F006A007400610067005F00330066004E
:1EE1D800690066006F005F00690063001203300030003000300030003000300030002B
:2005F800222222229001F4020E82AF82AEB574FE5E441CF5B5EF13920392B4EFA2E19203F2
:2006180092B3EFA2E4920392B222120602A2B0E433FF74024FF58222E5821392B2D2B413D6
:20063800C2B492B2D2B413C2B492B2D2B413C2B492B2D2B413C2B492B2D2B413C2B492B29C
:20065800D2B413C2B492B2D2B413C2B492B2D2B400C2B42222E582A2B01392B2D2B4C2B490
:20067800A2B01392B2D2B4C2B4A2B01392B2D2B4C2B4A2B01392B2D2B4C2B4A2B01392B2CA
:20069800D2B4C2B4A2B01392B2D2B4C2B4A2B01392B2D2B4C2B4A2B01392B2D2B400C2B457
:0406B800F582222283
:2006BC0090E6007412F090E60174A3F090E6707480F000000090E60274E0F000000090E6B8
:2006DC000374F9F000000090E6047480F000000090E60B7403F000000090E610E4F00000FE
:2006FC000090E61174A0F000000090E618E4F000000090E6047402F000000090E61274A273
:20071C00F000000090E61374A2F000000090E61474E2F000000090E61574E2F0000000900D
:20073C00E6047404F000000090E6047406F000000090E6047408F000000090E604E4F00033
:20075C00000090E60BE4F000000090E6497484F000000090E6497484F000000090E619E467
:20077C00F000000090E6197410F000000090E6327480F000000090E6337404F0000000903D
:20079C00E61A740CF000000090E6247402F000000090E625E4F000000090E6347409F00047
:2007BC00000090E63574FCF000000090E61B740CF000000090E6267402F000000090E62772
:2007DC00E4F000000090E6367441F000000090E63774FCF000000000000090E6917480F0E0
:0D07FC0000000090E6917480F000000022E3
:2008090090E6A0E04401F022AF8274805FC423541FFE740F5F90E6834EF090E683E0442050
:20082900F02290E680E0440AF09000FA120E8290E65D74FFF090E65F74FFF0AF9174EF5FED
:0A084900F59190E680E054F7F022EC
:060EAC00E478FFF6D8FD1A
:060E93007512007513004A
:2008530090E680E0FF30E7197514007515E17516127517E175181C7519E1751A6E751BE1FC
:20087300227514527515E17516647517E175186E7519E1751A1C751BE122C0E0C007C0D002
:2008930075D000AF9174EF5FF59175A100D204D0D0D007D0E032C021C0E0C0F0C082C0837D
:2008B300C007C006C005C004C003C002C001C000C0D075D000AF9174EF5FF59175A1001284
:2008D3000853D0D0D000D001D002D003D004D005D006D007D083D082D0F0D0E0D02132C076
:2008F30021C0E0C0F0C082C083C007C006C005C004C003C002C001C000C0D075D000AF91BE
:2009130074EF5FF59175A100120853D0D0D000D001D002D003D004D005D006D007D083D09A
:2009330082D0F0D0E0D02132120853751C8D751D08758200120CFE751CA9751D087582107C
:20095300120CFE751CF2751D08758214120CFE90E65C7431F022AF828F06747F5EFF24F76A
:20097300500475820022BF010475820122530701E4BF000104F58222AF82BF010C90E6A169
:20099300E0FE7D008E828D8322BF810C90E6A2E0FE7D008E828D83228F06747F5EFF700C45
:2009B30090E6A0E0FE7D008E828D832290E6A3E0FE7D00EFC3137C002EFEEC3D8E82F583DF
:2009D30022C20490E6B8E0FF5307608F06BE00028028BF2002800DBF4002800EBF600280BA
:2009F30003020C93120809020C93120375E5826003020C93120809020C9390E6B8E0FF5363
:200A13000780BF80028003020B9790E6B9E0FFBF0003020B0EBF06028035BF08028008BF5D
:200A33000A028017020B9190E740E512F090E68AE4F090E68B7401F0020C9390E740E5133A
:200A5300F090E68AE4F090E68B7401F0020C9390E6BBE0FFBF01028017BF02028038BF0312
:200A7300028059BF0602801BBF0702803C020B08AE14AF1590E6B3EFF07F0090E6B4EEF078
:200A9300020C93AE16AF1790E6B3EFF07F0090E6B4EEF0020C93AE18AF1990E6B3EFF07FD3
:200AB3000090E6B4EEF0020C93AE1AAF1B90E6B3EFF07F0090E6B4EEF0020C9390E6BAE0A8
:200AD300FF90E18EE0FEC3EF9E4006120809020C9390E6BAE075F002A4248FF58274E135FE
:200AF300F0F583E0FEA3E090E6B3F07F0090E6B4EEF0020C93120809020C9390E6B8E0FF08
:200B130053071F8F06BE0002800ABE0102801BBF0266802C90E740E4F090E741F090E68A08
:200B3300F090E68B7402F0020C9390E740E4F090E741F090E68AF090E68B7402F0020C937F
:200B530090E6BCE0F582120969E582602590E6BCE0F58212098BE0FF53070190E740EFF08A
:200B730090E741E4F090E68AF090E68B7402F0020C93120809020C93120809020C9312083C
:200B930009020C9390E6B9E0FF24F45003020C90EF240A83F582EF241083F583E47390DB8A
:200BB30058399090909090C990D20C0B0C0C0C0C0C0C0C0B0C0B90E6BAE0F512020C9390C1
:200BD300E6BAE0F513020C9390E6B8E0FF53071F8F06BE00028005BF0247800A90E6BAE0D7
:200BF300120809020C9390E6BAE0703090E6BCE0F582120969E582602390E6BCE0F58212DC
:200C1300098BAE82AF83E0FD5305FE8E828F83EDF090E6BCE0F5821208118064120809805E
:200C33005F120809805A90E6B8E0FF53071FBF004F90E6BAE0FFBF01028005BF02028040D8
:200C5300120809803B90E6BAE0FF702C90E6BCE0F582120969E582601A90E6BCE0F582126F
:200C7300098BAE82AF83E0FD4305018E828F83EDF0800D1208098008120809800312080945
:080C930090E6A0E04480F0228D
:200C9B00AF82BF03004005EF249C500122740F5FFEBE03028007740F5FFEBE0B45A2AF92E4
:200CBB0005C2AFEF2400F582E43400F5837402F07E0074012FFCE43EFDEC2400F582ED343E
:200CDB0000F583E51DFDF074022FFFE43EFEEF2400F582EE3400F583AE1C7F00EEF0A205DC
:200CFB0092AF22E582FF2483500122EF5403600122A2AF9206C2AFEF2400F582E43401F53B
:200D1B00837402F07E0074012FFCE43EFDEC2400F582ED3401F583E51DF074022FFFE43EB9
:200D3B00FEEF2400F582EE3401F583AE1CEEF0A20692AF22AF82BF80004005EF244B50015E
:200D5B0022EF5403600122A2AF9207C2AFEF2480F582E43400F5837402F07E0074012FFC14
:200D7B00E43EFDEC2480F582ED3400F583E51DF074022FFFE43EFEEF2480F582EE3400F5C2
:200D9B0083AE1CEEF0A20792AF22C2E8C2EA751C00751D01758243120C9B751C80751D00F1
:200DBB00758253120C9B00000090E650E4F000000090E652E4F000000090E654E4F0000041
:200DDB000090E656E4F000000090E65174FFF000000090E65374FFF000000090E65574FFC4
:200DFB00F000000090E65774FFF000000090E658E4F090E65974FFF090E65AE4F090E65B6F
:200E1B0074FFF090E65CE4F090E65D74FFF090E65EE4F090E65F74FFF000000090E660E4DE
:200E3B00F000000090E66174FFF090E662E4F090E66374FFF090E665E4F090E668740BF089
:130E5B00AF9174EF5FF591AF9174BF5FF591D2E8D2EA220C
:200E6E0022AF82120E6EDFFB2290FB50A3E582458370F922AE82AF83120E771EBEFF011F5B
:050E8E00EE4F70F4229C
:0D0E9F007581211205D6E5826003020E9CCC
:00000001FF
