:020000040000FA
:10000000FF0C050006001E0C2A000700080C2F003C
:10001000EF02080A130C2700000C2700300C270001
:10002000010C27000507120A0A050A020700600CE6
:100030002700FF0C270005071B0A07022C004506B6
:100040001F0A07022D004C07170A0C06170AED06B7
:100050003B0A7B0C8D0003063B0A610C8D000306F6
:10006000390A5B0C8D0003063B0A410C8D00030727
:100070003B0A200CAD010A040A020700500C2700BD
:0A0080000D0227000507420A140ACA
:020FFE00000AE7
:00000001FF
