:100000001c9c048405a51dbd808560840000001a29
:100010001b5b1a1b609ae08405e0a40586c084007f
:10002000a6e00282004000036200424000820062bb
:100030008482004000e0008403620042400244e009
:1000400000820040400560a2848300606002e040be
:100050008402e044bdbfb3b2b1b08011137320512c
:100060000700040084110042003300022000bfb3e7
:10007000b2b1b0e0bdbdbfb00400848382006202b3
:10008000468203634300080262848300034645639b
:1000900083640080820002824002508200828700d6
:1000a00000838200620088860006b0a200470083b9
:1000b000004383840082824062070141016100069f
:1000c0000000a2838484c686c0008200428282002f
:1000d00040620701410161000600840064838200e0
:1000e00040620701410161000600828082000282b5
:1000f00040000004040084040084bfb0e0bd0000a0
:1001000000000000616c6e6974796b6f6d740a0099
:100110006673000000000000000000000000000006
:1001200000000000000000000000000000000000cf
:1001300000000000000000000000000000000000bf
:1001400000000000000000000000000000000000af
:10015000000000000000000000000000000000009f
:00000001ff
