:06000000020B5002006B30
:03000B0002006B85
:0300130002006B7D
:03001B0002006B75
:0300230002006B6D
:03002B0002006B65
:0300330002006B5D
:03003B0002006B55
:0300430002006B4D
:03004B0002006B45
:0300530002006B3D
:03005B0002006B35
:0300630002006B2D
:01006B003262
:1000800002006B0002006B0002006B0002006B00BC
:1000900002006B0002006B0002006B0002006B00AC
:1000A00002006B0002006B0002006B0002006B009C
:0800B00002006B0002006B006E
:1001000002006B0002006B0002006B0002006B003B
:1001100002006B0002006B0002006B0002006B002B
:1001200002006B0002006B0002006B0002006B001B
:1001300002006B0002006B0002006B0002006B000B
:1001400002006B0002006B0002006B0002006B00FB
:1001500002006B0002006B0002006B0002006B00EB
:1001600002006B0002006B0002006B0002006B00DB
:1001700002006B0002006B0002006B0002006B00CB
:10E000001201000200000040F1BF04000001010203
:10E0100003010A060002000000400100090220007E
:10E0200001010480FA0904000002FE03010507054E
:10E030000802400000070586024000000902200097
:10E0400001010680FA0904000002FE03010507052C
:10E05000080200020007058602000200076CE07259
:10E06000E0D8E0ECE0F6E00CE128E1000603000077
:10E07000090466034200650072006E00200055002E
:10E080006E0069007600650072007300690074001C
:10E09000790020006F0066002000410070007000D1
:10E0A0006C00690065006400200053006300690093
:10E0B00065006E006300650073003A0020004800B0
:10E0C0005500430045002D006D006900630072009B
:10E0D0006F006C00610062001403470045004300BC
:10E0E0004B004F00340043004F004D000A03560020
:10E0F00031002E0030001603460075006C006C00E5
:10E100002000530070006500650064001C0355008A
:10E110005300420054004D004300200055005300BE
:10E1200042003400380038001603480069006700D8
:0EE13000680020005300700065006500640068
:100180007800E84400600C7900901000E4F0A3D8F7
:10019000FCD9FAD083D082F6D8FDC082C0837582A4
:0201A00000223B
:03000000020003F8
:030016000201A242
:1001A20012049580FE90E6B8E0FABAA1028009BA7C
:1001B200A2030202D80203CC90E6B9E0FABA050320
:1001C200020276BA0603020290BA0702800FBA4010
:1001D2000302025BBA80030202A90202D890E7403E
:1001E2007401F090E741E4F090E742F090E7437445
:1001F20001F090E7447404F090E745E4F090E7469C
:10020200F090E747F090E748F090E749E4F090E794
:100212004AF090E74BF090E74CF090E74D7401F014
:1002220090E74EE4F090E74FF090E750F090E751FE
:10023200F090E752E4F090E753F090E754F090E743
:1002420055F090E756E4F090E757F090E68AF09088
:10025200E68B7418F07582012275B0EF90E7407456
:1002620001F075B0FF90E68AE4F090E68B7401F03D
:1002720075820122D28100C28190E7407401F09020
:10028200E68AE4F090E68B7401F07582012290E731
:10029200407401F090E741E4F090E68AF090E68B3A
:1002A2007402F07582012275B0FF90E7407401F08C
:1002B20090E6BAE0FA90E741F0740F55B0FA25E003
:1002C20025E0FA90E742F090E68AE4F090E68B743B
:1002D20003F07582012290E6B9E0FABA01028014B5
:1002E200BA02028048BA0303020361BA040302039A
:1002F2009A0203CC75B0CF90E7407401F0740F55A9
:10030200B0FA90E741F075B0DF90E68AE4F090E74A
:1003120041E0FA740F55B0FBC454F0FB420290E77F
:1003220041EAF090E68B7402F07582012290E74078
:100332007401F090E741E4F090E742F090E743F077
:1003420090E744F090E745E4F090E746F090E74705
:10035200F090E68AF090E68B7408F07582012275BF
:10036200B0CF90E7407401F0740F55B0FA90E741B6
:10037200F075B0DF90E68AE4F090E741E0FA740F9E
:1003820055B0FBC454F0FB420290E741EAF090E61C
:100392008B7402F07582012290E7407401F090E7BD
:1003A20041E4F090E742F090E743F090E744F090A8
:1003B200E745E4F090E746F090E747F090E68AF0F0
:1003C20090E68B7408F07582012275820022758294
:1003D200002290E6017403F000000000000090E6A5
:1003E200707481F000000090E60274EBF0000000EF
:1003F20090E60374D8F000000090E609E4F00000F3
:100402000090E60BE4F000000090E612E4F0000039
:100412000090E613E4F000000090E61474E2F000AD
:10042200000090E61574A0F000000090E618E4F0D9
:1004320000000090E619E4F000000090E61AE4F0F3
:1004420000000090E61BE4F000000090E6047480D7
:10045200F000000090E6047402F000000090E60450
:100462007404F000000090E6047406F000000090AE
:10047200E6047408F000000090E604E4F0000000D6
:1004820090E61B7430F000000090E61A7440F00011
:10049200000022C2AFD281C28375B20A120A6D1263
:1004A20005D01203D475B5F075B0FFD2AF1204E1D6
:1004B200C2813000FD12064580F890E6A0E0FA44C1
:1004C20001F022AA8274805AFBC423541FFB740FCA
:1004D2005A90E6834BF090E683E0FA4420F02290B3
:1004E200E680E0FA440AF09000FA120B3F90E65DD3
:1004F20074FFF090E65F74FFF05391EF90E680E0B6
:05050200FA54F7F0229D
:06001000E478FFF6D8FDC4
:060B5000750800750900A4
:1005070090E680E0FA30E71B750A00750BE0750C82
:1005170012750DE0750E3C750FE075101C7511E036
:10052700D28322750A00750BE0750C12750DE07504
:100537000E1C750FE075103C7511E0C283225391B4
:10054700EF75A100D20032C0E0C0F0C082C083C006
:1005570002C003C004C005C006C007C000C001C078
:10056700D075D0005391EF75A100120507D0D0D0F8
:1005770001D000D007D006D005D004D003D002D0D8
:1005870083D082D0F0D0E032C0E0C0F0C082C08318
:10059700C002C003C004C005C006C007C000C00138
:1005A700C0D075D0005391EF75A100120507D0D0C8
:1005B700D001D000D007D006D005D004D003D00298
:1005C700D083D082D0F0D0E032120507751245757E
:1005D70013057582001209BB75124E7513057582D6
:1005E700101209BB75128F7513057582141209BB9A
:1005F70090E65C7431F022E582547FFA24F75004C8
:1006070075820022BA010475820122530201E4BAFD
:10061700000104F58222AA82BA010490E6A122BA57
:10062700810490E6A22253027FEA700490E6A0229A
:10063700EAC313FA24A2F582E434E6F58322C20062
:1006470090E6B8E0FA530260BA00028038BA200296
:10065700800DBA4002801EBA6002801302094F1251
:1006670001A7E582600302094F1204BC02094F1279
:1006770004BC02094F1203D0E582600302094F123E
:1006870004BC02094F90E6B8E0FA530280BA800230
:10069700800302081A90E6B9E0FABA000302078F4E
:1006A700BA06028035BA08028008BA0A0280170221
:1006B700081490E740E508F090E68AE4F090E68BAE
:1006C7007401F002094F90E740E509F090E68AE4EB
:1006D700F090E68B7401F002094F90E6BBE0FABA9E
:1006E70001028017BA02028038BA03028059BA069B
:1006F70002801BBA0702803C020789AA0AAB0B904B
:10070700E6B3EBF07B0090E6B4EAF002094FAA0CDF
:10071700AB0D90E6B3EBF07B0090E6B4EAF002098C
:100727004FAA0EAB0F90E6B3EBF07B0090E6B4EA6E
:10073700F002094FAA10AB1190E6B3EBF07B0090E3
:10074700E6B4EAF002094F90E6BAE0FA90E05CE01E
:10075700FBC3EA9B40061204BC02094F90E6BAE0CD
:10076700FA75F002A4245DF58274E035F0F583E0B4
:10077700FAA3E0FB90E6B3F07B0090E6B4EAF00260
:10078700094F1204BC02094F90E6B8E0FA53021F62
:10079700BA0002800ABA0102801DBA026A802E904E
:1007A700E7407401F090E741E4F090E68AF090E6C4
:1007B7008B7402F002094F90E740E4F090E741F0B4
:1007C70090E68AF090E68B7402F002094F90E6BC3F
:1007D700E0FAF5821205FEE582602690E6BCE0FAB3
:1007E700F58212061DE0FA53020190E740EAF09005
:1007F700E741E4F090E68AF090E68B7402F0020994
:100807004F1204BC02094F1204BC02094F1204BC68
:1008170002094F90E6B9E0FA24F4500302094CEAC2
:100827002A2A90082D7302094C0208630208FE0267
:1008370008DF02094C02094C02094C02094C020963
:100847004C02085102094C02085A90E6BAE0F50832
:1008570002094F90E6BAE0F50902094F90E6B8E0C1
:10086700FA53021FBA00028005BA0266800A90E6B0
:10087700BAE01204BC02094F90E6BAE0704E90E667
:10088700BCE0FAF5821205FEE582604090E6BCE026
:10089700FAF58212061DAA82AB8390E6BCE0FCF54E
:1008A70082C002C00312061DD003D002E0FC53042D
:1008B700FE8A828B83ECF090E6A3E0FA54FEF09078
:1008C700E6BCE0FAF5821204C502094F1204BC0225
:1008D700094F1204BC02094F90E6B8E0FA53021F11
:1008E700BA006590E6BAE0FABA01028005BA0202D8
:1008F70080561204BC805190E6BAE0FA600280404C
:1009070090E6BCE0FAF5821205FEE582602D90E6DE
:10091700BCE0FAF58212061DAA82AB8390E6BCE022
:10092700FCF582C002C00312061DD003D002E0FC12
:100937004304018A828B83ECF0800D1204BC80088B
:100947001204BC80031204BC90E6A0E0FA4480F0D5
:1009570022AA82BA03004005EA249C500122740FA0
:100967005AFBBB03028007740F5AFBBB0B45A2AFB0
:100977009201C2AFEA2400F582E43400F5837402E1
:10098700F07B0074012AFCE43BFDEC2400F582EDCA
:100997003400F583E513FCF074022AFAE43BFBEA22
:1009A7002400F582EB3400F583AA127B00EAF0A25B
:1009B7000192AF22AA82BA00004005EA24835001BF
:1009C70022EA5403600122A2AF9202C2AFEA2400D6
:1009D700F582E43401F5837402F07B0074012AFC8C
:1009E700E43BFDEC2400F582ED3401F583E513FCCF
:1009F700F074022AFAE43BFBEA2400F582EB3401A7
:100A0700F583AA127B00EAF0A20292AF22AA82BA69
:100A170000004005EA24CB500122EA54036001227A
:100A2700A2AF9203C2AFEA2480F582E43400F583D3
:100A37007402F07B0074012AFCE43BFDEC2480F592
:100A470082ED3400F583E513FCF074022AFAE43BE7
:100A5700FBEA2480F582EB3400F583AA127B00EAD7
:100A6700F0A20392AF22C2E8C2EA75120075130121
:100A770075824312095875128075130075825312D7
:100A8700095800000090E650E4F000000090E6529C
:100A9700E4F000000090E654E4F000000090E65611
:100AA700E4F000000090E65174FFF000000090E6CB
:100AB7005374FFF000000090E65574FFF00000004B
:100AC70090E65774FFF000000090E658E4F090E6D7
:100AD7005974FFF090E65AE4F090E65B74FFF090EB
:100AE700E65CE4F090E65D74FFF090E65EE4F0907B
:100AF700E65F74FFF000000090E660E4F00000009D
:100B070090E66174FFF090E662E4F090E66374FFAC
:100B1700F090E665E4F090E668740BF05391AFD27D
:100B2700E8D2EA2222AA82120B2BDAFB2290FB5090
:100B3700A3E582458370F922AA82AB83120B341A8C
:090B4700BAFF011BEA4B70F42215
:0D00030075817F120180E58260030201A279
:00000001FF
