:0A0FDA0000010202030304040505F0
:100A2400E4F513F512F511F510C203C200C202C2B7
:100A340001120BA47E0E7F008E238F24752B0E755E
:100A44002C1275210E75221C75290E752A43752DDD
:100A54000E752E6AEE54E07003020B6A751400756D
:100A640015808E168F17C374949FFF740E9ECF2427
:100A740002CF3400FEE48F0F8E0EF50DF50CF50B4E
:100A8400F50AF509F508AF0FAE0EAD0DAC0CAB0BC6
:100A9400AA0AA909A808C3120FBD5026E515250BFB
:100AA400F582E514350AF58374CDF0E50B2401F5E0
:100AB4000BE4350AF50AE43509F509E43508F508C7
:100AC40080C4E4F50BF50AF509F508AF0FAE0EADD9
:100AD4000DAC0CAB0BAA0AA909A808C3120FBD5090
:100AE40033E517250BF582E516350AF583E0FFE5B6
:100AF40015250BF582E514350AF583EFF0E50B2493
:100B040001F50BE4350AF50AE43509F509E435087D
:100B1400F50880B785142385152474002480FF7498
:100B24000E34FFFEC3E52C9FF52CE52B9EF52BC35D
:100B3400E5269FF526E5259EF525C3E5289FF5289E
:100B4400E5279EF527C3E5229FF522E5219EF521A1
:100B5400C3E52A9FF52AE5299EF529C3E52E9FF5CD
:100B64002EE52D9EF52DD2E843D82090E668E0448A
:100B740009F090E65CE0443DF0D2AF90E680E020DE
:100B8400E105D204120E9690E680E054F7F0538EFD
:100B9400F8C203300105120800C20112100480F3E8
:1008000090E6B9E070030208B114700302092E24C7
:10081000FE70030209B124FB70030208AB147003DD
:100820000208A514607314607624056003020A10A0
:10083000120FFA4003020A1C90E6BBE024FE60227D
:1008400014603324FD601114602224067048E523EF
:1008500090E6B3F0E5248037E52B90E6B3F0E52C85
:10086000802DE52590E6B3F0E5268023E52790E688
:10087000B3F0E528801990E6BAE0FF120EC5AA068B
:10088000A9077B01EA494B600DEE90E6B3F0EF90CB
:10089000E6B4F0020A1C020A15120F9A020A1C1290
:1008A0000FEC020A1C120FE4020A1C120F88020A43
:1008B0001C120FFC4003020A1C90E6B8E0247F6083
:1008C0001514601924027063A200E43325E0FFA22E
:1008D00002E4334F8041E490E740F0803F90E6BC73
:1008E000E0547EFF7E00E0D394807C0040047D01D4
:1008F00080027D00EC4EFEED4F24DAF582740F3E4F
:10090000F583E493FF3395E0FEEF24A1FFEE34E698
:100910008F82F583E0540190E740F0E4A3F090E685
:100920008AF090E68B7402F0020A1C020A15120F7C
:10093000FE4003020A1C90E6B8E024FE6016240282
:100940006003020A1C90E6BAE0B40105C200020A84
:100950001C020A1590E6BAE0705590E6BCE0547EA1
:10096000FF7E00E0D394807C0040047D0180027D06
:1009700000EC4EFEED4F24DAF582740F3EF583E471
:1009800093FF3395E0FEEF24A1FFEE34E68F82F56E
:1009900083E054FEF090E6BCE05480131313541F20
:1009A000FFE0540F2F90E683F0E04420F0806D804C
:1009B00064121000506690E6B8E024FE601924022C
:1009C000705A90E6BAE0B40104D200804F90E6BAC3
:1009D000E064026047803E90E6BCE0547EFF7E000B
:1009E000E0D394807C0040047D0180027D00EC4EC9
:1009F000FEED4F24DAF582740F3EF583E493FF3366
:100A000095E0FEEF24A1FFEE34E68F82F5838008A7
:100A1000121002500790E6A0E04401F090E6A0E03A
:040A20004480F022FC
:03003300020FF4C5
:040FF40053D8EF32AD
:100E0000120100020000004047050210000001022C
:100E100000010A060002000000400100090227004C
:100E2000010100A0320904000003FF0000000705D3
:100E30008202000200070506020002000705080200
:100E400000020009022700010100A032090400008D
:100E500003FF0000000705820240000007050602AC
:100E60004000000705080200020004030904100303
:100E70004300790070007200650073007300160370
:100E800045005A002D005500530042002000460046
:060E9000580032000000D2
:100BA40090E6707440F090E600E054E74410F09052
:100BB400E60174E3F000000090E60B7403F000001B
:100BC4000090E61274E2F000000090E61474A2F0C3
:100BD40000000090E615F000000000000090E6031D
:100BE400740CF000000090E60274BAF0000000906B
:100BF400E6047480F00000007402F0000000740445
:100C0400F00000007406F00000007408F00000001A
:100C1400E4F000000090E618740BF000000090E689
:100C2400707440F000000090E6207402F0000000B0
:100C3400E490E621F000000090E6497486F000009C
:100C440000F00000007488F0000000F00000009044
:100C5400E61A7401F00000007411F000000090E640
:100C64001B7401F00000007411F0000000D2002297
:0110040022C9
:020DFE00D322FE
:020FF800D32202
:020FFA00D32200
:080FE40090E6BAE0F51BD322F0
:100F880090E740E51BF0E490E68AF090E68B04F0E9
:020F9800D32262
:080FEC0090E6BAE0F51AD322E9
:100F9A0090E740E51AF0E490E68AF090E68B04F0D8
:020FAA00D32250
:020FFC00D322FE
:020FFE00D322FC
:02100000D322F9
:02100200D322F7
:100EF000C0E0C083C082C085C084C086758600D231
:100F0000015391EF90E65D7401F0D086D084D085D6
:070F1000D082D083D0E03253
:100F3E00C0E0C083C082C085C084C0867586005361
:100F4E0091EF90E65D7404F0D086D084D085D08287
:050F5E00D083D0E03259
:100F6300C0E0C083C082C085C084C086758600533C
:100F730091EF90E65D7402F0D086D084D085D08264
:050F8300D083D0E03234
:100C7400C0E0C083C082C085C084C08675860090F1
:100C8400E680E030E70E8521258522268529278503
:100C94002A28800C852925852A268521278522282E
:100CA4005391EF90E65D7410F0D086D084D085D057
:060CB40082D083D0E03283
:100F1700C0E0C083C082C085C084C086758600D209
:100F2700035391EF90E65D7408F0D086D084D085A6
:070F3700D082D083D0E0322C
:100CBA00C0E0C083C082C085C084C08675860090AB
:100CCA00E680E030E70E85212585222685292785BD
:100CDA002A28800C852925852A26852127852228E8
:100CEA005391EF90E65D7420F0D086D084D085D001
:060CFA0082D083D0E0323D
:0110050032B8
:0110060032B7
:0110070032B6
:0110080032B5
:0110090032B4
:01100A0032B3
:01100B0032B2
:01100C0032B1
:01100D0032B0
:01100E0032AF
:01100F0032AE
:0110100032AD
:0110110032AC
:0110120032AB
:0110130032AA
:0110140032A9
:0110150032A8
:0110160032A7
:0110170032A6
:0110180032A5
:0110190032A4
:01101A0032A3
:01101B0032A2
:01101C0032A1
:01101D0032A0
:01101E00329F
:01101F00329E
:01102000329D
:01102100329C
:01102200329B
:01102300329A
:011024003299
:011025003298
:011026003297
:011027003296
:011028003295
:03004300020D00AB
:03005300020D009B
:100D0000020EF000020F6300020F3E00020F1700F8
:100D1000020C7400020CBA0002100500021006005A
:100D200002100700021008000210090002100A0059
:100D300002100B0002100C0002100D0002100E0039
:100D400002100F0002100600021010000210110025
:100D500002101200021013000210140002101500FD
:100D60000210160002100600021006000210060013
:100D700002101700021018000210190002101A00C9
:100D800002101B0002101C0002101D0002101E00A9
:100D900002101F0002102000021021000210220089
:100DA0000210230002102400021025000210260069
:080DB0000210270002102800C8
:100E960030040990E680E0440AF0800790E680E09E
:100EA6004408F07FDC7E05120DB890E65D74FFF015
:0F0EB60090E65FF05391EF90E680E054F7F02262
:020EC500A9077B
:100EC700AE2DAF2E8F828E83A3E064037017AD0122
:100ED70019ED7001228F828E83E07C002FFDEC3E9E
:080EE700FEAF0580DFE4FEFF11
:010EEF0022E0
:100DB8008E188F1990E600E054187012E519240176
:100DC800FFE43518C313F518EF13F519801590E6ED
:100DD80000E05418FFBF100BE51925E0F519E518D8
:100DE80033F518E5191519AE18700215184E600577
:060DF800120FAC80EE2298
:100FAC007400F58690FDA57C05A3E582458370F958
:010FBC002212
:03000000020FCE1E
:0C0FCE00787FE4F6D8FD75812E020A241D
:100FBD00EB9FF5F0EA9E42F0E99D42F0E89C45F08A
:010FCD002201
:00000001FF
